:020000040802F0
:10000000F89900206102020835290208C724020875
:100010003129020881090208FD33020800000000AE
:10002000000000000000000000000000A101020824
:100030006F0B020800000000FD010208372E0208C5
:100040007B0202087B0202087B0202087B02020894
:100050007B0202087B0202087B0202087B02020884
:100060007B0202087B0202087B0202087B02020874
:100070007B0202087B0202087B0202087B02020864
:100080007B0202087B0202087B0202087B02020854
:100090007B0202087B0202087B0202087B02020844
:1000A0007B020208112F02087B0202087B02020871
:1000B000212F02087B0202087B0202087B02020851
:1000C0007B0202087B0202087B0202087B02020814
:1000D0007B0202087B0202087B0202087B02020804
:1000E0007B0202087B0202087B0202087B020208F4
:1000F0007B0202087B0202087B0202087B020208E4
:100100007B0202087B0202087B0202087B020208D3
:100110007B0202087B0202087B0202087B020208C3
:100120007B0202087B0202087B0202087B020208B3
:100130007B0202087B0202087B0202087B020208A3
:100140007B0202087B0202087B0202087B02020893
:100150007B0202087B0202087B0202087B02020883
:100160007B0202087B0202087B0202087B02020873
:100170007B0202087B0202087B02020800000000EA
:100180007B0202087B020208DFF810D000F0CAFAF6
:100190000048004705510208AFF30080F89900209D
:1001A0002C4B19680868B0E8F04F80F30988BFF35A
:1001B0006F8F4FF0000080F311887047000000003F
:1001C00008480068006880F308884FF0000080F35A
:1001D000148862B661B6BFF34F8FBFF36F8F00DF35
:1001E00000BF00BF08ED00E0DFF80C00016841F43B
:1001F00070010160704700BF88ED00E0EFF30980F7
:10020000BFF36F8F134B1A681EF0100F08BF20ED5D
:10021000108A20E9F04F106009B44FF0BF0080F35E
:100220001188BFF34F8FBFF36F8F05F031FF4FF091
:10023000000080F3118809BC19680868B0E8F04F25
:100240001EF0100F08BFB0EC108A80F30988BFF3CE
:100250006F8F704730000020EFF30580704700007B
:100260000648804706480047FEE7FEE7FEE7FEE750
:10027000FEE7FEE7FEE7FEE7FEE7FEE7FD2E0208EB
:10028000890102082DE9F05F0546002092469B4651
:1002900088460646814640241BE02846414647469C
:1002A000224600F077F853465A46C01A914110D3BF
:1002B00011461846224600F05EF82D1A67EB010839
:1002C0004F4622460120002100F055F817EB0009A7
:1002D0004E41201EA4F10104DFDC484631462A4687
:1002E0004346BDE8F09F10B5431A934209D28318E4
:1002F000881803E010F8011D03F8011D521EF9D201
:1003000010BD40EA01039B0703D009E008C9121F92
:1003100008C0042AFAD203E011F8013B00F8013BBF
:10032000521EF9D210BDD2B201E000F8012B491ED5
:10033000FBD270470022F6E710B513460A46044682
:100340001946FFF7F0FF204610BD30B50B460146B9
:1003500000202022012409E021FA02F59D4205D364
:1003600003FA02F5491B04FA02F52844151EA2F10E
:100370000102F1DC30BD202A04DB203A00FA02F150
:10038000002070479140C2F1200320FA03F3194383
:1003900090407047202A04DB203A21FA02F0002125
:1003A000704721FA02F3D040C2F120029140084385
:1003B000194670472DE9FE4F804681EA0300C00FC1
:1003C0000C46009021F0004123F00045B8EB0200FC
:1003D000A94105D24046214690461C460B4602469E
:1003E00023F00040104347D0270DC7F30A00C3F3A2
:1003F0000A510290401A019040286BDAC3F31300AF
:1004000040F4801B0098924620B10023D2EB030AEF
:1004100063EB0B0B01985946C0F140025046FFF7C1
:10042000AAFF06460D4650465946019A00F08CF93F
:1004300010EB08006141002487EA115284EAE77357
:100440001A4340D0009A62B3019A012A4FEA075238
:1004500015DC001B61EB02014FF0004202EA07527B
:10046000CDE90042001C41F5801132462B4600F0D8
:100470008CF903B0BDE8F08F40462146F9E7001B38
:1004800061EB0201001C41F5801300185B4120184C
:10049000A2F5001747EB030140EAD570B6196D418C
:1004A00011E06D084FEA360645EAC0754FEA07527B
:1004B000001B61EB0201001C41F5801149084FEA65
:1004C00030000019514132462B4603B0BDE8F04FD1
:1004D00000F04CB90098012240000023D0EB02024A
:1004E00063EBE073009821464FEAE074B8EB00003C
:1004F00061EB0401E9E783F000435BE781F0004131
:1005000058E72DE9FE4F81EA030404F0004421F08E
:10051000004100944FF0000B23F0004350EA010427
:100520005ED052EA03045BD0C3F30A54C1F30A5508
:100530002C44A4F2F3340194A0FB0254C1F3130140
:1005400041F48011C3F3130343F4801301FB02440D
:1005500000FB034E840A970A44EA815447EA835712
:10056000A4FB076802958D0A05FB07854FEA932CCB
:1005700004FB0C542705029D4FEA065847EA16373C
:10058000B5EB08056EEB070C870E920E47EA811754
:1005900042EA8312A7FB0201B6EB0B0164EB0004F5
:1005A0002B0D43EA0C335E1844EB1C50DA465146DF
:1005B000E7FB0201C5F313044FEA0B3343EA14537C
:1005C0004FEA0432019C43EA0603A4F10C040294AE
:1005D000009CCDE900B400F0D8F803B0BDE8F08F7E
:1005E00000200146F9E72DE9F04D81EA030404F00B
:1005F000004B21F0004514464FF0000A23F0004163
:1006000050EA050220D054EA01021DD0C5F30A5772
:100610000246C5F31303C1F31300C1F30A5640F4B5
:10062000801543F48013A7EB0608101BD64608F28A
:10063000FD3873EB050002D308F1010801E09218C0
:100640005B41B8F1000F03DA00200146BDE8F08DF0
:1006500000204FF48011064684460EE0171B73EB12
:10066000050705D3121B63EB050306434CEA010C97
:1006700049084FEA300092185B4150EA0107EDD17A
:1006800052EA030012D082EA040083EA050108431B
:1006900005D0101BAB4106D20122002306E0002248
:1006A0004FF0004302E06FF0010253101AEB060016
:1006B0004CEB085110EB0A0041EB0B01BDE8F04D8B
:1006C00000F054B8C1F30A52C1F3130140F2FF33F2
:1006D00041F480119A4202DA00200146704740F24C
:1006E00033439A42A2F2334202DC5242FFF752BE37
:1006F000FFF741BE30B5041E71F1000404DB4FF07A
:100700000044404264EB0101141E73F1000405DB58
:100710001C464FF00043524263EB0403994208BF6A
:10072000904230BD064C074D06E0E06840F0010302
:1007300094E8070098471034AC42F6D3FFF728FD41
:100740007473020894730208202A06DBCB17203A40
:1007500041FA02F043EAE07306E041FA02F3D040C6
:10076000C2F12002914008431946704710B5141E8B
:1007700073F1000408DA401C41F1000192185B415A
:100780001A4301D120F0010010BD2DE9F04D924631
:100790009B4611B1B1FA81F202E0B0FA80F2203248
:1007A0009046FFF7E8FD04460F4640EA0A0041EA9A
:1007B0000B0153465A46084313D0114653EA010031
:1007C00019D0C8F140025046FFF7E4FD05460E4639
:1007D000504659464246FFF7CEFD084305D001205A
:1007E00004E020463946BDE8F08D0020054346EA86
:1007F000E0762C4337430A986305E40AA0EB08002F
:100800000022FD0A44EA47540A3002D5002001467E
:10081000E9E7010510196941DDE908450019694159
:10082000BDE8F04DA2E770B58C1810F8015B15F02B
:10083000070301D110F8013B2A1106D110F8012B52
:1008400003E010F8016B01F8016B5B1EF9D12B0777
:1008500005D40023521E0DD401F8013BFAE710F82D
:10086000013BCB1A921C03E013F8015B01F8015B1A
:10087000521EF9D5A142D8D3002070BD70B50546EF
:10088000284600F037F9002403E0FF2002F04AFA7E
:10089000641C1E2CF9DBFE2002F044FA284600F00E
:1008A00071F84FF4FA6002F0BDFA4FF405212846C2
:1008B00000F042F94FF4FA6002F0B4FA284600F072
:1008C00019F9C02002F02EFA284600F05BF870BD3E
:1008D0001CB51648032100234FF40072CDE9001027
:1008E00013A1164806F0AEF91548022100230A02AA
:1008F000CDE9001013A1174806F0A4F9164802210B
:1009000000238A02CDE9001014A1174806F09AF9D5
:100910001648022100238022CDE9001014A11748B7
:1009200006F090F905F076FB1CBD00009001002058
:100930004D6F646275735F54435000009931020833
:100940009401002057353530305F4D616E61676529
:1009500072000000D13102088C0100204144435F45
:100960005465737400000000913002089801002063
:100970004C45445F5461736B000000000D31020868
:1009800000BFFEE710B504460C2C09DA054A02EB5D
:10099000C4029188034A52F83400012200F00AFA96
:1009A00010BD00001473020870B51AA003F052FBCA
:1009B000642000F0DDF8002428E0E0B200F09AF8AE
:1009C000002503E0FF2002F0ADF96D1C0F2DF9DBCF
:1009D000FE2002F0A7F9E0B2FFF7D4FF0A2000F0F2
:1009E000C7F8E0B24FF0005100F0A6F8322000F056
:1009F000BFF8E0B2002100F09FF80A2000F0B8F83C
:100A0000E0B24FF4052100F097F8641C0C2CD4DB05
:100A100070BD000020203E205B494E49545D2053AC
:100A2000746172742053657175656E63652E2E2E28
:100A30000D0A0000FEB507460D4600200290019009
:100A4000002400262870384600F054F816E0761C82
:100A50000020009003E000BF0098401C0090009828
:100A60000A28F8DB41F28830864207D93846FFF77A
:100A700089FF3846FFF702FF0020FEBD4FF40061FA
:100A80001A4800F08FF90128E1D00A23012202A9B7
:100A9000174801F0BEF820B13846FFF773FF002079
:100AA000EBE70A23042201A9114800F0F3FF20B16B
:100AB0003846FFF767FF0020DFE73846FFF762FFA1
:100AC0009DF8040000049DF8051040EA01209DF8FF
:100AD000061040EA010404F4000008B144F07F4429
:100AE000A411012028702046C7E70000000802403A
:100AF0001887002010B504460C2C09DA054A02EBD1
:100B0000C4029188034A52F83400002200F052F9DE
:100B100010BD00001473020810B5002409E0E0B213
:100B2000FFF7E8FFC02002F0FDF8E0B2FFF72AFF70
:100B3000641C0C2CF3DB10BD70B505460C46284632
:100B4000FFF7D8FF032002F0EDF8200E02F0EAF8DC
:100B5000C4F3074002F0E6F8C4F3072002F0E2F81D
:100B6000E0B202F0DFF82846FFF70CFF70BD7047D7
:100B700010B5044649F6404104FB01F002F052F979
:100B800010BD72B600BFFEE770B5044600F018F95C
:100B900006462546681C10B104480078054400BF8D
:100BA00000F00EF9801BA842FAD370BD08000020A7
:100BB000F8B502460B460025002400200021D6E0AF
:100BC000012606FA01F51E6806EA0504AC4274D156
:100BD0001E7906F00306012E04D01E7906F00306E6
:100BE000022E13D190684F000326BE40B0434F0041
:100BF000DE68BE4030439060506801268E40B043AE
:100C00001E79C6F300168E40304350601E7906F000
:100C10000306032E09D0D0684F000326BE40B04320
:100C20004F009E68BE403043D0601E7906F0030638
:100C3000022E13D1CF0802F1200656F827004E07E6
:100C4000F70E0F26BE40B0434F07FF0E1E69BE4091
:100C50003043CF0802F1200646F8270010684F0005
:100C60000326BE40B0431E7906F003064F00BE4087
:100C7000304310605E6806F44036002E76D000BF28
:100C8000002600963C4E366846F480463A4F3E6059
:100C90003E46366806F48046009600BF00BF374ED9
:100CA0008F0856F827008E07370F0F26BE40B04337
:100CB000334EB24202D1002624E057E0314EB24218
:100CC00001D101261EE0304EB24201D1022619E0C8
:100CD0002E4EB24201D1032614E02D4EB24201D174
:100CE00004260FE02B4EB24201D105260AE02A4E1F
:100CF000B24201D1062605E0284EB24201D10726B4
:100D000000E008268F073F0FBE4030431B4E8F0880
:100D100046F82700224E3068A0435E6806F480162D
:100D200006B120431E4E3060361D3068A0435E6819
:100D300006F4001606B12043194E361D3060184ED9
:100D4000361F3068A0435E6806F4003606B12043C3
:100D5000134E361F3060361F3068A0435E6806F4BD
:100D6000803606B120430E4E083E3060491C1029E3
:100D7000FFF426AFF8BD00004438024008380140B7
:100D8000000002400004024000080240000C024043
:100D9000001002400014024000180240001C0240F3
:100DA000083C0140024613690B400BB1012000E0F2
:100DB000002070470AB1816101E00B048361704734
:100DC00001480068704700000000002003480068E8
:100DD0000349097808440149086070470000002071
:100DE0000800002010B50D48006840F400700B4961
:100DF00008600846006840F48060086008460068A3
:100E000040F480700860032000F0D0F80F2000F05C
:100E100007F800F055F8002010BD0000003C02402B
:100E2000F0B587B004460026002700BF00200090E0
:100E30001E48006840F001001C4908600846006830
:100E400000F00100009000BF00BF01A902A800F05F
:100E500043FA00F069FA46001548B6FBF0F0471E69
:100E600014481549086040F2E7311348C1604760F3
:100E7000002101618160816101F026F9054695B983
:100E80000D4801F077F905466DB9192000F03CF8DE
:100E9000102C07D200222146192000F049F80748FB
:100EA000046000E00125284607B0F0BD4438024048
:100EB00040420F0000000140B887002004000020DD
:100EC00008B500BF002000900E48006840F4804044
:100ED0000C4908600846006800F48040009000BF9C
:100EE00000BF00BF00200090081F006840F0805045
:100EF000091F08600846006800F08050009000BF9D
:100F000000BF08BD443802400146084600280DDBFA
:100F100000BF00BF00F01F0301229A4043099B005D
:100F200003F1E023C3F8002100BF00BF00BF7047FA
:100F30002DE9F05F80460D461646002702F092FB31
:100F4000074639462A46334601F00700C0F1070A32
:100F5000BAF1040F02D94FF0040A01E0C0F1070A08
:100F6000D14600F1040ABAF1070F02D24FF0000A8D
:100F700001E0A0F1030AD4464FF0010A0AFA09FA87
:100F8000AAF1010A0AEA020A0AFA0CFA4FF0010B66
:100F90000BFA0CFBABF1010B0BEA030B4AEA0B0457
:100FA0002146404602F066FBBDE8F09F00BF00F01E
:100FB0000702064B19684FF6FF031940044B0B4319
:100FC00043EA0221014B196000BF70470CED00E0BD
:100FD0000000FA0570B504460D460CB9012070BD3D
:100FE0005848006800F00700A84209D255490D7022
:100FF0000846006800F00700A84201D00120EEE793
:10100000207800F0020002281DD1207800F00400B2
:10101000042805D14C48006840F4E0504A49086073
:10102000207800F00800082805D14748006840F4FF
:101030006040454908604448006820F0F000A1681D
:10104000084341490860207800F00100A8B36068B7
:10105000012807D13C4808380068C0F34040B8B9BF
:101060000120BCE76068022802D06068032807D12D
:10107000354808380068C0F3406048B90120AEE741
:10108000314808380068C0F3400008B90120A6E7DD
:101090002D48006820F00300616808432A49086071
:1010A000FFF78EFE064609E0FFF78AFE801B41F23D
:1010B0008831884202D9032091E707E0224800687E
:1010C00000F00C006168B0EB810FEDD11D480068A5
:1010D00000F00700A84209D91A490D7008460068B7
:1010E00000F00700A84201D0012078E7207800F046
:1010F0000400042807D11448006820F4E050E16897
:10110000084311490860207800F00800082808D139
:101110000D48006820F46040216940EAC1000A4996
:10112000086000F011F908490968C1F30311074A82
:10113000515CC8400649086006480068FFF770FE29
:1011400000204CE7003C024008380240E4720208EC
:101150000C0000200400002010B5FFF731FE04460B
:101160005748006840F001005549086006E0FFF765
:1011700027FE001B022801D9032010BD504800683B
:1011800000F002000028F2D04D48006840F08000D6
:101190004B490860FFF714FE044600204849083117
:1011A000086008E0FFF70CFE001B41F2883188421E
:1011B00001D90320E1E742480830006800F00C0044
:1011C0000028EFD1FFF7FCFD04463D48006820F4FD
:1011D00050203B49086006E0FFF7F2FD001B642841
:1011E00001D90320C9E73648006800F40030002820
:1011F000F2D1FFF7E5FD04463148006820F0807029
:101200002F49086006E0FFF7DBFD001B022801D92B
:101210000320B2E72A48006800F000700028F2D1ED
:10122000FFF7CEFD04462648006820F08060244980
:10123000086006E0FFF7C4FD001B022801D9032067
:101240009BE71F48006800F000600028F2D11D48AD
:101250001B49091D08601C48194984310860184859
:101260000C30006820F4F85015490C31086008462D
:10127000006820F4005008600846006840F41F0031
:1012800008600846006840F4001008600C4874309C
:10129000006820F001000A497431086008460068BF
:1012A00040F08070086009480949086009480068F2
:1012B000FFF7B6FD08B101205FE700205DE7000001
:1012C0000038024010300004003000200024F400F8
:1012D0000C000020040000200F2202600D4A12685A
:1012E00002F0030242600B4A126802F0F0028260D0
:1012F000084A126802F4E052C260064A126802F418
:101300006042D2080261044A126802F007020A60D1
:101310007047000008380240003C02400148006865
:10132000704700000C00002000B5FFF7F7FF0449EC
:101330000968C1F34231034A515CC84000BD000056
:1013400008380240F47202082DE9F0470024002515
:101350000026A1462548006800F00C0020B10428B2
:1013600005D008283AD105E0DFF8849039E0DFF8AD
:10137000849036E01D48001F006800F03F041B48C1
:10138000001F006800F4800078B11A481749091F4F
:101390000968C1F38811A0FB0170014622460023B1
:1013A0003846FEF76FFF05460EE011480F49091F4A
:1013B0000968C1F38811A0FB017001462246002391
:1013C0003846FEF75FFF05460848001F0068C0F377
:1013D0000140401C4600B5FBF6F902E0DFF8109032
:1013E00000BF00BF4846BDE8F08700000838024053
:1013F0000024F40040787D01F8B504460CB90120C2
:10140000F8BD207800F00100002874D0F948006889
:1014100000F00C0004280DD0F648006800F00C0025
:10142000082813D1F348001F006800F48000B0F5CD
:10143000800F0BD1EF4808380068C0F34040002807
:1014400059D06068002856D10120D9E700BF6068F4
:10145000B0F5803F08D1E7480838006840F4803094
:10146000E449083908601EE06068B0F5A02F0DD18E
:10147000E0480838006840F48020DE4908390860F8
:101480000846006840F4803008600CE0D94808380D
:10149000006820F48030D7490839086008460068A1
:1014A00020F48020086000BF606890B1FFF788FCDE
:1014B000054606E0FFF784FC401B642801D90320A1
:1014C0009EE7CC4808380068C0F340400028F1D0BF
:1014D00011E0FFF775FC054606E0FFF771FC401BC5
:1014E000642801D903208BE7C24808380068C0F39C
:1014F00040400028F1D1207800F0020002285FD19E
:10150000BC48006800F00C0058B1BA48006800F010
:101510000C0008281CD1B748001F006800F48000A8
:10152000B0B9B44808380068C0F3400020B1E068A2
:10153000012801D0012063E7AE480838006820F098
:10154000F800216940EAC100AA490839086037E07B
:10155000E06800B30120A8490860FFF731FC0546A8
:1015600006E0FFF72DFC401B022801D9032047E7C6
:10157000A04808380068C0F340000028F1D09D481A
:101580000838006820F0F800216940EAC100994954
:101590000839086014E0002097490860FFF710FC44
:1015A000054606E0FFF70CFC401B022801D903208A
:1015B00026E7904808380068C0F340000028F1D1C1
:1015C000207800F0080008282CD16069A8B101201B
:1015D0008A490860FFF7F4FB054606E0FFF7F0FBD9
:1015E000401B022801D903200AE782486C300068BA
:1015F000C0F340000028F1D014E000207F490860CB
:10160000FFF7DEFB054606E0FFF7DAFB401B02288A
:1016100001D90320F4E677486C300068C0F340003D
:101620000028F1D1207800F00400042870D10027B0
:1016300070483830006800F0805090B900BF00203A
:1016400000906C483830006840F08050694938316B
:1016500008600846006800F08050009000BF00BF9E
:1016600001276748006800F48070B0B964480068DA
:1016700040F4807062490860FFF7A2FB054606E06F
:10168000FFF79EFB401B022801D90320B8E65C4807
:10169000006800F480700028F2D000BFA068012824
:1016A00008D154486830006840F001005149683161
:1016B00008601DE0A06805280DD14E48683000681C
:1016C00040F004004B49683108600846006840F06B
:1016D000010008600CE047486830006820F0010015
:1016E0004449683108600846006820F0040008603A
:1016F00000BFA068A8B1FFF763FB054609E0FFF74C
:101700005FFB401B41F28831884202D9032077E613
:1017100026E0384868300068C0F340000028EED06A
:1017200013E0FFF74DFB054608E0FFF749FB401BC0
:1017300041F28831884201D9032061E62D486830A2
:101740000068C0F340000028EFD1012F07D12948DD
:101750003830006820F0805026493831086000BFDA
:10176000A069002845D02348006800F00C00082834
:101770005DD0A069022845D100201F490866FFF707
:101780001FFB054606E0FFF71BFB401B022801D9A3
:10179000032035E6174808380068C0F34060002889
:1017A000F1D1D4E907010843616A40EA81110122BD
:1017B000A06AC2EB500041EA00412C20005D41EAE2
:1017C00000600C49091F086001200B490866FFF7FB
:1017D000F7FA054606E0FFF7F3FA401B022801D9A5
:1017E00003200DE6034808380068C0F34060002875
:1017F000F1D049E00838024000004742800E4742DD
:1018000000700040002021490866FFF7D9FA05461C
:1018100006E0FFF7D5FA401B022801D90320EFE5C7
:101820001B480068C0F340600028F2D12CE0A0699A
:10183000012800D1E4E51648001D0668A0690128CA
:1018400020D006F48001E06981421BD106F03F01FF
:10185000206A814216D147F6C0703040616AB0EB11
:10186000811F0FD106F440310122A06AC2EB500063
:10187000B1EB004F06D106F070612C20005DB1EB9A
:10188000006F01D00120BBE50020B9E50000474210
:101890000038024010B504460CB9012010BD606A42
:1018A00038B96068B0F5827F00D105E00021E161C0
:1018B00002E00021216161610021A16294F85100E0
:1018C00028B9002084F85000204600F047F8022094
:1018D00084F851002068006820F04000216808600A
:1018E000A08800F48270218901F404410843A18991
:1018F00001F400610843217C01F002010843217DCD
:1019000001F001010843218B01F400710843217F9C
:1019100001F0380108432021095D01F080010843EE
:10192000218D01F400510843216808600421A06959
:1019300001EA104094F8241001F0100108432168D6
:1019400048602068C06920F400602168C8610020F8
:101950006065012084F8510000209FE710B586B033
:101960000446142101A8FEF7E5FC45492068884299
:101970004ED100BF002000904248006840F48040F3
:10198000404908600846006800F48040009000BFAD
:1019900000BF00BF002000903A481038006840F0B7
:1019A00004003849103908600846006800F0040057
:1019B000009000BF00BF00BF0020009008460068F4
:1019C00040F0020008600846006800F00200009045
:1019D00000BF00BF0C200190022002900020039065
:1019E000032004900520059001A92748FFF7E0F89F
:1019F0004FF48060019002200290002003900320A9
:101A000004900520059001A92048FFF7D1F834E0A3
:101A10001F492068884230D100BF0020009019483B
:101A2000006840F40040174908600846006800F468
:101A30000040009000BF00BF00BF00200090114890
:101A40001038006840F004000E491039086008465C
:101A5000006800F00400009000BF00BF4FF4E050A9
:101A600001900220029000200390032004900620A1
:101A7000059001A90448FFF79BF806B010BD0000CF
:101A80000038004040380240000802400004024094
:101A9000003C00402DE9F8430446884616461D46A2
:101AA0004FF0000994F85100012802D04FF00209CC
:101AB000A8E06068B0F5827F0DD1A06858B9042015
:101AC00084F851003346424641462046009500F0D6
:101AD0007EF9BDE8F88300BF94F85000012801D1D9
:101AE0000220F6E7012084F8500000BFFFF768F9F4
:101AF0000746B8F1000F00D016B94FF0010981E098
:101B0000042084F8510000206065C4F83880A6875E
:101B1000E6872063A086E08620646064A068B0F554
:101B2000004F0BD12068006820F040002168086059
:101B30002068006820F48040216808602068006800
:101B400000F04000402805D02068006840F04000C8
:101B500021680860E06810BB1DE02068806800F024
:101B6000010050B12068007BA16B0870A06B401C85
:101B7000A063E08F401EE0870DE0FFF721F9C01B56
:101B8000A84201D3681C00B92DB94FF00309012008
:101B900084F8510036E0E08F0028DED121E01DE01E
:101BA0002068806800F0010050B12068C068A16B17
:101BB0000880A06B801CA063E08F401EE0870DE0D2
:101BC000FFF7FEF8C01BA84201D3681C00B92DB96D
:101BD0004FF00309012084F8510013E0E08F002842
:101BE000DED13A462946204601F00EF808B1202001
:101BF0006065606D10B14FF0010902E0012084F8CA
:101C0000510000BF00BF002084F8500000BF4846CC
:101C10005FE72DE9F84F0446884616461D464FF00B
:101C2000000A00BF94F85000012802D10220BDE84C
:101C3000F88F012084F8500000BFFFF7C1F8074675
:101C4000B14694F85100012802D04FF0020AB7E0E3
:101C5000B8F1000F00D016B94FF0010AB0E0032030
:101C600084F8510000206065C4F83080A686E686BE
:101C7000A063A087E08760642064A068B0F5004F8F
:101C80000BD12068006820F04000216808602068BF
:101C9000006840F48040216808602068006800F017
:101CA0004000402805D02068006840F040002168CE
:101CB0000860E068B0F5006F32D1606810B1B9F12A
:101CC000010F09D1206B00882168C860206B801C3F
:101CD0002063E08E401EE0861EE02068806800F0F1
:101CE000020002280AD1206B00882168C860206B9E
:101CF000801C2063E08E401EE0860DE0FFF760F858
:101D0000C01BA84201D3681C00B92DB94FF0030ACB
:101D1000012084F8510053E0E08E0028DDD131E04D
:101D2000606810B1B9F1010F09D1206B007821680A
:101D30000873206B401C2063E08E401EE0861EE08E
:101D40002068806800F0020002280AD1206B007829
:101D500021680873206B401C2063E08E401EE086E3
:101D60000DE0FFF72DF8C01BA84201D3681C00B995
:101D70002DB94FF0030A012084F8510020E0E08ED5
:101D80000028DDD13A462946204600F087FF08B1F9
:101D900020206065A06850B900BF00200090206836
:101DA000C068009020688068009000BF00BF606D30
:101DB00010B14FF0010A02E0012084F8510000BF89
:101DC00000BF002084F8500000BF50462FE72DE9E7
:101DD000FF5F0446884691461D460E9E01200290F4
:101DE0000020019000BF94F85000012803D1022088
:101DF00004B0BDE8F09F012084F8500000BFFEF75A
:101E0000DFFF074694F851B060680390AA46BBF123
:101E1000010F0BD00398B0F5827F04D1A06810B9F0
:101E2000BBF1040F02D002200190E9E0B8F1000FED
:101E300003D0B9F1000F00D015B901200190DFE007
:101E400094F85100042802D0052084F851000020A5
:101E50006065C4F83890E587A587C4F83080E586CA
:101E6000A586206460642068006800F04000402877
:101E700005D02068006840F0400021680860E068F4
:101E8000B0F5006F4DD1606810B1BAF1010F09D102
:101E9000206B00882168C860206B801C2063E08E66
:101EA000401EE08636E02068806800F002000228CC
:101EB00010D1E08E70B1029801280BD1206B008800
:101EC0002168C860206B801C2063E08E401EE08685
:101ED000002002902068806800F0010068B1E08F67
:101EE00058B12068C068A16B0880A06B801CA063FB
:101EF000E08F401EE08701200290FEF761FFC01BCB
:101F0000B04207D3701C28B103200190012084F84F
:101F1000510075E0E08E0028C5D1E08F0028C2D1C5
:101F20004DE0606810B1BAF1010F09D1206B007863
:101F300021680873206B401C2063E08E401EE08601
:101F400037E02068806800F00200022810D1E08E9F
:101F500070B1029801280BD1206B007821680873BA
:101F6000206B401C2063E08E401EE0860020029023
:101F70002068806800F0010068B1E08F58B12068E7
:101F8000C068A16B0870A06B401CA063E08F401E6E
:101F9000E08701200290FEF713FFC01BB04201D37F
:101FA000701C00B92EB903200190012084F8510063
:101FB00026E0E08E0028C4D1E08F0028C1D13A4647
:101FC0003146204600F06AFE20B101200190202019
:101FD000606515E0A06850B900BF0020009020683F
:101FE000C068009020688068009000BF00BF606DEE
:101FF00010B10120019002E0012084F8510000BFDF
:1020000000BF002084F8500000BF0198F0E6704740
:102010007047000030B502460B4600BF92F83C0006
:10202000012801D1022030BD012082F83C0000BF10
:10203000022082F83D00106844681068816824F02E
:1020400070041868044310684460184D1068A84272
:102050001BD01068B0F1804F17D0154D1068A84202
:1020600013D0144D1068A8420FD0134D1068A84229
:102070000BD0124D1068A84207D0114D1068A8422D
:1020800003D0104D1068A84205D121F08001586896
:10209000014310688160012082F83D0000BF0020EC
:1020A00082F83C0000BF00BFBDE700000000014017
:1020B0000004004000080040000C00400004014003
:1020C000004001400018004010B504460CB9012042
:1020D00010BD94F83D0028B9002084F83C0020464B
:1020E00000F026F8022084F83D00211D206800F051
:1020F0001FFF012084F8460000BF84F83E00012144
:102100003F200155402001554120015500BF00BF2F
:10211000012084F842004320015544200155452008
:10212000015500BF012084F83D000020D0E70000E9
:1021300038B504462068B0F1804F17D100BF0020A9
:1021400000900B48006840F001000949086008460B
:10215000006800F00100009000BF00BF00220721CE
:102160001C20FEF7E5FE1C20FEF7CEFE38BD000069
:1021700040380240014691F83D00012801D001207D
:102180007047022081F83D000868C06840F00100F7
:102190000B68D8601A4B086898421BD00868B0F1E9
:1021A000804F17D0174B0868984213D0164B086819
:1021B00098420FD0154B086898420BD0144B086812
:1021C000984207D0134B0868984203D0124B086816
:1021D00098420CD10868806800F00702062A0CD0EB
:1021E0000868006840F001000B68186005E00868A6
:1021F000006840F001000B6818600020C0E7000094
:10220000000001400004004000080040000C0040B5
:102210000004014000400140001800402DE9F04159
:1022200004460D46002700BF94F83C00012802D167
:102230000220BDE8F081012084F83C0000BF0220AC
:1022400084F83D002068866826F0770626F47F46ED
:10225000206886602868502833D00CDC202850D0B5
:1022600004DC00284BD0102851D149E0302849D057
:1022700040284CD139E060282DD0702807D0B0F527
:10228000805F03D0B0F5005F41D10DE041E0D5E9BA
:1022900002136A68206800F0BFFE2068866846F076
:1022A00077062068866034E0D5E902136A68206802
:1022B00000F0B2FE2068806840F4804021688860A9
:1022C00027E0EA686968206800F0BAFE50212068BB
:1022D00000F0ADFE1DE0EA686968206800F0C3FE0A
:1022E0006021206800F0A3FE13E0EA6869682068B6
:1022F00000F0A6FE4021206800F099FE09E000BF32
:1023000000BF00BF2968206800F091FE01E00127AE
:1023100000BF00BF012084F83D0000BF002084F80A
:102320003C0000BF384684E7704770B5044620681B
:10233000C5682068066906F00200022819D105F078
:102340000200022815D1401F216808610120207772
:102350002068806900F0030018B12046FFF7E4FF11
:1023600005E0204600F097F8204600F095F80020A0
:10237000207706F00400042819D105F00400042891
:1023800015D1C04321680861022020772068806948
:1023900000F4407018B12046FFF7C6FF05E0204664
:1023A00000F079F8204600F077F80020207706F05A
:1023B0000800082819D105F00800082815D1C043E5
:1023C00021680861042020772068C06900F00300BC
:1023D00018B12046FFF7A8FF05E0204600F05BF8A3
:1023E000204600F059F80020207706F01000102851
:1023F00019D105F01000102815D1C04321680861DB
:10240000082020772068C06900F4407018B1204689
:10241000FFF78AFF05E0204600F03DF8204600F077
:102420003BF80020207706F0010048B105F00100DC
:1024300030B16FF0010021680861204600F02EF8ED
:1024400006F08000802809D105F08000802805D1A1
:10245000C043216808612046FFF7D9FD06F040001F
:10246000402809D105F04000402805D1C04321682B
:102470000861204600F026F806F02000202809D147
:1024800005F02000202805D1C043216808612046BE
:10249000FFF7BEFD70BD70477047000010B50446E1
:1024A00006492068884201D1FEF790FC2068B0F10F
:1024B000804F02D102480068804710BD00000140F3
:1024C00098000020704700BFFEE710B501F046FD00
:1024D00002F0B1FB10BD70B504460D4616463246FB
:1024E0002146284602F0B2FB012801D1002070BD30
:1024F0000120FCE770B504460D46164632462146DB
:10250000284602F0E2FB012801D1002070BD012025
:10251000FCE7000070B504460D462CB1204603F0E0
:1025200085FF084803F00CFF074805804FF4427010
:1025300000F080FF28B1002001F0ACFD002001F088
:1025400039FD70BDA88600208201002000B58BB047
:102550002E48006820B9042004F0E2F82B490860F6
:102560002B492C4803F036FA00F060F803F0FEFB2C
:1025700029A103C9CDE9090127A103C9CDE90701B3
:1025800007A909A803F00AFF4FF4FB700090694601
:1025900001A800F055FA224800788DF80400204880
:1025A00040788DF805001E4880788DF806001C489C
:1025B000C0788DF807001A4800798DF8080018488F
:1025C00040798DF8090001208DF81A0007214FF499
:1025D000C85000F0AFFFD021480100F0ABFF03214D
:1025E0004FF4D85000F0A6FF0A2142F6087000F020
:1025F000A1FF01A803F01AFF0A4803F0A1FEBDF8ED
:102600000000094908800BB000BD000084010020D3
:102610001D34020801340208080800000000000010
:102620007C010020A88600208201002010B5002235
:1026300040210748FEF7BEFB3220FEF7A5FA012233
:1026400040210348FEF7B6FBC820FEF79DFA10BDF7
:102650000008024070B504460D460CB9012000E0A8
:10266000002002464FF480710648FEF7A3FB0DB927
:10267000012000E00020024680210248FEF79AFB7C
:1026800070BD000000100240014800887047000043
:102690002E01002010B503F0C3FB00200349088081
:1026A0000349088003F0CEFB10BD00002E0100207E
:1026B0003001002000B587B0142102A8FDF73AFED2
:1026C00000BF002001905848006840F08000564943
:1026D00008600846006800F08000019000BF00BF5D
:1026E00000BF002001900846006840F00400086028
:1026F0000846006800F00400019000BF00BF00BF62
:10270000002001900846006840F01000086008466C
:10271000006800F01000019000BF00BF00BF002063
:1027200001900846006840F0020008600846006812
:1027300000F00200019000BF00BF00BF0020019028
:102740000846006840F0080008600846006800F08D
:102750000800019000BF00BF00BF002001900846A4
:10276000006840F0010008600846006800F00100C1
:10277000019000BF00BF012210212C48FEF71AFB78
:1027800001224FF4C0712A48FEF714FB00224FF4D7
:1027900020612848FEF70EFB012243F69F71264870
:1027A000FEF708FB002240212048FEF703FB5020E3
:1027B000029001200390002004900220059002A9BD
:1027C0001A48FEF7F5F94FF4C0700290012003900B
:1027D00000200490059002A91548FEF7E9F94FF48E
:1027E00080600290002003900120049002A910480C
:1027F000FEF7DEF94FF420600290012003900020E4
:102800000490059002A90B48FEF7D2F943F69F7099
:102810000290012003900490059002A90648FEF75B
:10282000C7F907B000BD0000303802400008024080
:102830000010024000040240000C024010B50E4897
:102840000E4908604FF48270486000210B48816097
:10285000C160016141614FF4007181610821C16172
:1028600000210162416281620A21C162FFF712F810
:1028700008B1FEF786F910BD00380040C086002080
:1028800010B50E480E4908604FF482704860002170
:102890000B488160C160016141614FF40071816149
:1028A0002821C16100210162416281620A21C16265
:1028B000FEF7F0FF08B1FEF764F910BD003C0040E0
:1028C0001887002000B587B0002003900490059081
:1028D0000690019002904FF0804014490860532008
:1028E00048600021114881603121C16000210161EF
:1028F00080218161FFF7E8FB08B1FEF742F94FF450
:102900008050039003A90948FFF788FC08B1FEF73F
:1029100038F900200190029001A90448FFF77AFBE2
:1029200008B1FEF72EF907B000BD00007087002047
:1029300000BFFEE700BFFEE730B502460B464FF68C
:10294000FF7016E012F8015B80EA052000210EE01E
:1029500000F400442CB141F2210484EA4004A0B206
:1029600003E04FF6FF7404EA40004C1CA1B20829B2
:10297000EEDB1C1EA3F10105ABB2E3D130BD0000BC
:1029800010B504461E212046FDF7D4FC0F482060F8
:1029900001202071C0202072A82161720021A17243
:1029A000EA21E172FF202073FF216173A1730021EE
:1029B000E173C0202074A82161740021A174012159
:1029C000E1744FF4FB70A08210BD00003154454EFD
:1029D00030B589B004460D4601A8FFF7D1FF4CB3CE
:1029E00017212046FDF7A6FC9DF80C00A0719DF86C
:1029F0000D10E1719DF80E1021729DF80F1061729B
:102A00009DF81000A0729DF81110E1729DF812104F
:102A100021739DF8131061739DF81400A0739DF845
:102A20001510E1739DF8161021749DF8171061744C
:102A30000120A07515B1BDF81800288009B030BD7F
:102A400070B588B004460D4604B10DB908B070BD2C
:102A50004FF480612248FEF7A5F90646FFF735FDE1
:102A600026B929462046FFF7B3FF36E0684600F056
:102A700039F868B317212046FDF75CFC9DF8080083
:102A8000A0719DF80910E1719DF80A1021729DF85E
:102A90000B1061729DF80C00A0729DF80D10E17290
:102AA0009DF80E1021739DF80F1061739DF81000B2
:102AB000A0739DF81110E1739DF8121021749DF818
:102AC000131061740120A075BDF81400288003E084
:102AD00029462046FFF77CFF00BF00BFB6E7000095
:102AE0000010024070B504460CB9002070BD1E22D3
:102AF00021460020FFF7EFFC08B10020F6E7206830
:102B00000949884202D12079012801D00020EDE74F
:102B10001C212046FFF710FF0546A08BA84201D0DC
:102B20000020E3E70120E1E73154454EF0B589B0DC
:102B300004460D4616461F4601A8FFF721FF5CB16B
:102B400020788DF80C0061788DF80D10A1788DF843
:102B50000E10E1788DF80F105DB128788DF8100017
:102B600069788DF81110A9788DF81210E9788DF830
:102B700013105EB130788DF8140071788DF815104F
:102B8000B1788DF81610F1788DF81710ADF818702F
:102B900001A800F002F809B0F0BD10B588B00446F5
:102BA00014B9002008B010BD1E2221466846FDF76A
:102BB0009AFB1C216846FFF7BFFEADF81C001E22E1
:102BC00069460020FFF796FC08B10020EAE70120E3
:102BD000E8E7000010B586B0182209496846FDF7FD
:102BE00082FB4FF4FB7423460DF10E02111F081FE8
:102BF000FFF79CFF01200349087006B010BD0000DC
:102C0000FC72020888010020F8B504460E461546FD
:102C10006068B0F5827F0DD1A068B0F5004F03D099
:102C2000A068B0F5806F05D12068006820F04000F2
:102C3000216808606068B0F5827F1FD1A068B0F598
:102C4000806F0DD03346002280212046009500F091
:102C50007DF808B3606D40F0200060650320F8BD8A
:102C60003346002201212046009500F06FF898B10C
:102C7000606D40F0200060650320F0E733460022DD
:102C800001212046009500F061F828B1606D40F008
:102C9000200060650320E2E70020E0E77CB5044601
:102CA0000E4615463346012202212046009500F0CB
:102CB0004DF828B1606D40F02000606503207CBDB8
:102CC000164800681821B0FBF1F01549B0FBF1F08F
:102CD0004FF47A71484301906068B0F5827F0DD15E
:102CE0003346002280212046009500F02FF898B14D
:102CF000606D40F0200060650320E0E700BF0198B0
:102D000000B908E00198401E019020688068C0F377
:102D1000C0100028F3D100BF0020D0E70C00002035
:102D200040420F0001B582B000200190012003460F
:102D300001AA02A900900448FFF749F808B1FF2052
:102D40000EBD9DF80400FBE7188700202DE9F84F21
:102D500004460D4690461E46DDF82890FEF730F8F2
:102D6000A0EB0900371AFEF72BF882462C480068C2
:102D7000C0F3CB307843009045E0701C002842D06F
:102D8000FEF71EF8A0EB0A00B84200D2A7BB2068ED
:102D9000406820F0E000216848606068B0F5827FFC
:102DA0000DD1A068B0F5004F03D0A068B0F5806FDA
:102DB00005D12068006820F0400021680860A06A02
:102DC000B0F5005F0DD100BF2068006820F400500E
:102DD000216808602068006840F40050216808609D
:102DE00000BF012084F8510000BF002084F850008B
:102DF00000BF0320BDE8F88FFFE7009800B9002767
:102E00000098401E0090206880682840A84201D1A8
:102E1000012000E000204045AFD10020EAE700009B
:102E20000C00002001B500E000BF0098411E009199
:102E30000028F9D108BD10B503F078FF012801D0B2
:102E400003F054FC10BD000000B593B0302107A87A
:102E5000FDF770FA142102A8FDF76CFA00BF0020FC
:102E600001902448006840F08050224908600846DC
:102E7000006800F08050019000BF00BF00BF00203C
:102E800001901D48006840F480401B4908600846D6
:102E9000006800F48040019000BF00BF012007904F
:102EA0000004089002200D9041050E9119210F9108
:102EB0004FF4A8711091022111910421129107A8D9
:102EC000FEF79AFA08B1FDF75CFE0F20029002208F
:102ED0000390002004904FF4A05005904FF48050D0
:102EE0000690052102A8FEF775F808B1FDF749FE26
:102EF00013B000BD40380240007000400348006835
:102F000040F47000014908607047000088ED00E05F
:102F100010B50248FFF709FA10BD0000B88700207D
:102F200010B50248FFF701FA10BD000070870020BD
:102F300010B502682D4B98420ED0B0F1804F0BD0E7
:102F40002B4B984208D02B4B984205D02A4B9842E5
:102F500002D02A4B984203D122F070024B681A43E8
:102F6000224B984220D0B0F1804F1DD0204B984288
:102F70001AD0204B984217D01F4B984214D01F4BA9
:102F8000984211D01E4B98420ED01E4B98420BD047
:102F90001D4B984208D01D4B984205D01C4B9842BF
:102FA00002D01C4B984203D122F44072CB681A43E2
:102FB00022F080034C6943EA040202608B68C3621A
:102FC0000B688362094B984202D00C4B984201D1A6
:102FD0000B69036301234361036903F001031BB120
:102FE000036923F00103036110BD000000000140EC
:102FF0000004004000080040000C004000040140B4
:1030000000400140004401400048014000180040D9
:10301000001C00400020004030B50C46816821F4BF
:103020007F4142EA032525432943816030BD0A469A
:10303000816821F0700142F00703194381607047F5
:1030400030B50B461446026A056A25F00105056293
:10305000816921F0F00141EA041122F00A021A43C9
:103060008161026230BD30B50B461446026A056AC2
:1030700025F010050562816921F4704141EA0431AF
:1030800022F0A00242EA03128161026230BD000018
:103090001FB54FF4FA7002F017FFFDF785FCFDF73E
:1030A0003BFD03F053FE009028E01548007802280D
:1030B00006D0C82002F008FF03F048FE00901DE093
:1030C000002412E001AA1119E0B2FDF7B3FC054695
:1030D00001A8005D012807D10A4840F824500020CB
:1030E000094901EB04110860641C0C2CEADB00BFE9
:1030F0000121684603F0DAFD00BF00BFD5E70000FC
:10310000AC0100200088002030880020642002F0FC
:10311000DBFE00BF1F48007830B101280CD0022828
:1031200012D003282CD117E000210120FFF792FADA
:10313000C82002F0C9FE2CE001210020FFF78AFA26
:10314000C82002F0C1FE24E001210846FFF782FA00
:10315000C82002F0B9FE1CE000210120FFF77AFA36
:10316000642002F0B1FE0B480078032800D010E084
:1031700000210846FFF76EFA642002F0A5FE08E081
:1031800000210846FFF766FA4FF4FA7002F09CFE41
:1031900000BFBFE7AC01002003F0DAF908B900BFB7
:1031A000FEE70A48008801F0C1FC04460CB100BFEC
:1031B000FEE700F0CDFF04460CB100BFFEE700BF04
:1031C00001F06AFA012002F07FFEF9E78201002097
:1031D00088B000BFFFF7BAF901208049087000BF2E
:1031E0004FF480617E48FDF7DDFDF8B97D48006849
:1031F00020B9FDF7E5FD7B4908601CE0FDF7E0FD27
:1032000078490968401AB0F57A7F14D97648007871
:1032100088B903207149087040F2DC5002F054FE76
:10322000FFF7D8FC01207049087004E000206D49C8
:1032300008606D4908706D48007888B100206B49BE
:10324000087001A902A8FFF7FBFBBDF8041002A853
:10325000FFF760F9FFF71EFA0A2002F035FEBFE71C
:103260004FF4427000F0E6F80446172C06D1022015
:103270005A49087000205E4908601FE057480078EE
:10328000022815D15A48006818B903F05FFD584963
:10329000086003F05BFD56490968401AB0F57A7F73
:1032A0000CD94E48007848B101204C49087005E01F
:1032B0004A48007810B1012048490870182C79D08C
:1032C00007DC7CB1132C23D0142C53D0172C7FD1C6
:1032D00055E01A2C6FD01B2C6ED01C2C68D01D2CE6
:1032E00076D166E0FFF7D6F94248008818B94FF466
:1032F000FB704049088000233E480288012118469F
:1033000002F06AFC054615B1642002F0DDFD63E0C1
:103310003948006818B9FDF753FD374908600020A7
:1033200001F0A0FE0546012D03D0322002F0CCFDB5
:1033300002E00A2002F0C8FDFDF742FD2E490968AF
:10334000401AB0F5FA7F14D3002000F033FEFFF7E7
:10335000A1F90023274802880121184602F03CFC0D
:10336000064616B1642002F0AFFD00202249086035
:1033700000BF31E04FF4FA7002F0A6FD2CE000200F
:1033800001F0EAFC0546FFF77FF90646002D01DC57
:10339000002E09DD012003F0EDF8052002F094FD78
:1033A00005E007E014E006E0142002F08DFD13E0D4
:1033B00000BF00BF00BF00BF002000F06BFE002078
:1033C00000F0F8FDFFF766F9642002F07DFD03E0F0
:1033D0000A2002F079FD00BF00BF01E7AC01002028
:1033E00000100240A0010020A4010020880100205C
:1033F0009C01002082010020A801002000BFFEE700
:1034000010B50548006828B14FF0FF310248006848
:1034100003F0CCFB10BD00008401002010B504486F
:10342000006818B10248006803F08EFA10BD000071
:103430008401002038B504461A49C86880471949F4
:103440004869804700BF1748406A10B11548806A34
:1034500070B91448016AC4F3074088471148016AEB
:10346000C4F307208847E0B20E4A116A88470DE08E
:10347000200C8DF80000200A8DF80100E0B28DF8D4
:10348000020008480321826A684690470549C869D6
:103490008047054603498869804702490869804793
:1034A000284638BD40010020F8B504460E461746B0
:1034B0001F49C86880471E494869804700BF1C48AB
:1034C000406A10B11A48806AC0B91948016AC4F349
:1034D000074088471648016AC4F307208847E0B2CE
:1034E000134A116A8847002505E01149C8698047D9
:1034F0007055681C85B2BD42F7DB12E0200C8DF8D8
:103500000000200A8DF80100E0B28DF802000848A2
:103510000321826A6846904705483946426A304628
:103520009047034988698047014908698047F8BD89
:103530004001002038B504460D461A49C868804746
:1035400018494869804744F004041648806A90B9D5
:103550001448016AC4F3074088471248016AC4F35B
:1035600007208847E0B20F4A116A88470D48016A70
:10357000284688470FE0200C8DF80000200A8DF8BF
:103580000100E0B28DF802008DF8035005480421D7
:10359000826A6846904703498869804701490869FB
:1035A000804738BD40010020F8B504460E46174656
:1035B0001E49C86880471D494869804744F0040493
:1035C0001A48806AC0B91948016AC4F3074088479D
:1035D0001648016AC4F307208847E0B2134A116A0B
:1035E0008847002505E0705D104A116A8847681C0D
:1035F00085B2BD42F7DB12E0200C8DF80000200AF6
:103600008DF80100E0B28DF8020008480321826ABB
:103610006846904705483946826A304690470349D4
:1036200088698047014908698047F8BD400100204A
:103630007CB50C001D461646014601D0601E00E018
:103640000020CDE90010064B6A462946304600F0BE
:10365000F7F8002C02D0009A002111707CBD000008
:10366000473F020802480068C0F30220704700008C
:103670000CED00E010B5002804DB0A07130E054A24
:10368000135406E00A07140E034A00F00F031B1F31
:10369000D45410BD00E400E018ED00E002E008C8DA
:1036A000121F08C1002AFAD170477047002001E0BC
:1036B00001C1121F002AFBD1704700002DE9FF5FF6
:1036C00082B00021DDE90430020DDDF840B0034393
:1036D00018D044F61050A2F2FF324243151411984C
:1036E00001281FD0A5EB0B00401C5FEA000A4FF039
:1036F00000064E4FDFF83891B046504615D5CAF156
:10370000000413E0119801244AA3012801D16FEAB3
:103710000B010298119AC0E90031C0E9024206B0DB
:10372000BDE8F09FCBF10000DFE704460021404AEE
:10373000491842EB0450CDE9001012E0E00707D031
:1037400032463B4640464946FCF7DBFE804689460A
:1037500032463B4610461946FCF7D3FE06460F4656
:103760006410002CEAD1DDE90401DDE90023BAF19F
:10377000000F06DAFCF7C5FE42464B46FCF7C1FED9
:1037800005E0FCF730FF42464B46FCF72CFF0446B1
:103790000E460022284BFCF7ADFF03D84FF0FF3058
:1037A000014607E00022254B20463146FCF702FE89
:1037B000FCF788FF102409E0002C0ADB0A22002312
:1037C000FCF760FD039B30321A55641E50EA01027B
:1037D000F2D1641C039AC4F111031444119A012A12
:1037E00003D0012208430DD10AE0084304D0002091
:1037F0004FF0110B119072E7A3EB0B056D1E0DE05E
:103800005B4504DD4FF0000205F1010504E003DA39
:103810004FF00002A5F10105002AECD002981199A1
:10382000C0E90231C0E9004579E70000000014401A
:103830000000F03F300000000000F0430000E03FD7
:103840002DE9FF4F95B09A46884606460025EEE1E1
:10385000252877D100242746F94A0121039400E066
:10386000044316F8013F203B01FA03F01042F7D160
:1038700030782A2811D06FF02F033078A0F1300271
:10388000092A16D8039A44F0020402EB820203EBE1
:1038900042021044761C0390EFE758F8042B039281
:1038A000002A03DA504244F40054039044F0020426
:1038B000761C30782E2816D116F8010F44F0040437
:1038C0002A280DD06FF02F023078A0F13003092B99
:1038D00009D807EB870302EB4303C718761CF3E70D
:1038E00058F8047B761C30786C280FD006DC4C2806
:1038F00017D068280DD06A2814D104E0742810D09D
:103900007A280FD10DE044F400140AE044F4801446
:1039100001E044F440147278824202D104F580142C
:10392000761C761C307866280BD013DC582877D0AC
:1039300009DC002875D04528F6D04628F4D0472861
:103940001AD193E118E0632835D0642879D065282E
:1039500012D18BE1702873D008DC6728F1D0692878
:103960006FD06E280DD06F2806D1ACE073282CD014
:10397000752874D0782853D05246179990476D1CFB
:1039800054E1C4F30250022809D003280DD0D8F81E
:10399000001004280DD00D6008F1040846E1D8F8A5
:1039A0000010EA17C1E90052F6E7D8F800100D80C0
:1039B000F2E70D70F0E718F8041B8DF800100020F6
:1039C0008DF80100EB46012003E058F804BB4FF0EE
:1039D000FF3061074FF0000102D40DE009F1010151
:1039E0008946B9420FDA8145F8DB1BF80910002936
:1039F000F4D108E009F1010189468142FADB1BF8A4
:103A000009100029F6D103985346A0EB0907214677
:103A10003846179A00F080FA284400EB090507E0C1
:103A200044E008E10DE01BF8010B5246179990475E
:103A3000B9F10109F7D2534621463846179AF2E008
:103A400039E00A21C4F302524FF0000B0091022A20
:103A500006D058F8040BC117032A09D00AE023E066
:103A600008F1070020F00702F2E80201904605E0A5
:103A700000B2C117042A01D140B2C117002906DAE9
:103A80000A460021404261EB02012D2202E022059C
:103A900004D52B228DF80420012203E0E20701D097
:103AA0002022F7E7914657E00A2100E010214FF06D
:103AB000000B00910BE010214FF0000B44F00404C8
:103AC0000827009103E008204FF0000B0090C4F39A
:103AD0000252022A05D058F8040B0021032A08D00C
:103AE00008E008F1070020F00702F2E80201904622
:103AF00003E080B2042A00D1C0B24FF000092207CF
:103B00002AD53278702A07D0DDF800C08CF0100C6E
:103B10005CEA0B0C05D00EE040228DF80420012257
:103B200008E050EA010306D030238DF804308DF808
:103B3000052002229146009B83F0080353EA0B0301
:103B40000AD150EA010201D1620705D530228DF871
:103B500004204FF001097F1E3278582A04D039A280
:103B60000C920CAA02920BE03BA2F9E75B46009A8A
:103B7000FCF788FB0C9B9B5C029A521E029213700E
:103B800050EA0102F2D1029804A9081A00F1200BB0
:103B9000600702D524F4803400E001275F4502DD90
:103BA000A7EB0B0000E0002000EB0B010090039856
:103BB0004944401A0390E00306D453462146179A1D
:103BC000039800F0A9F90544002706E001A8524631
:103BD000C05D179990476D1C7F1C4F45F6DBE003D5
:103BE0000CD553462146179A039800F095F90544E1
:103BF00004E030205246179990476D1C0099481EEA
:103C000000900029F5DC08E00298029952460078FD
:103C1000491C0291179990476D1CBBF10001ABF153
:103C2000010BF1DC5BE100F065F90544761C3078AE
:103C300000287FF40DAE19B02846BDE8F08F0000D3
:103C40000928010030313233343536373839616272
:103C50006364656600000000303132333435363736
:103C6000383941424344454600000000600700D413
:103C7000062708F1070020F00700F0E8022380463D
:103C800003F0004C5FEA0C0001D097A009E020058A
:103C900001D596A005E0E00701D095A001E0AFF2C4
:103CA0004C001390307823F0004365280CD006DCDC
:103CB000452809D046281DD047287FD13BE06628FB
:103CC00018D067287AD136E00021112F01DB1120AE
:103CD00000E0781CCDE9000104A90CA8FFF7EEFC78
:103CE000DDE90D010C9A4FF0000B07F1010910926C
:103CF00000914EE04FF000400097CDE9011004A97B
:103D00000CA8FFF7DBFCDDE90D020C9B0F994FF0CF
:103D1000000B91461093009211B9791C00EB010938
:103D2000B7EB090003D4C0F1FF3B07F10109A9EB90
:103D30000700019042E0012F00DA01270021112F36
:103D400001DD112000E03846CDE9000104A90CA8EE
:103D5000FFF7B4FCDDE90D010C9A00914FF0000B68
:103D6000B946109221070FD4009A4A4503DA9146CA
:103D700001E0A9F10109B9F1010F05DD109AA9F1DE
:103D80000101515C3029F4D0B84202DA10F1040F7D
:103D900003DA0121CDE9011010E0002803DC83449F
:103DA000A9EB000102E0411C494500DD8946A0EB7A
:103DB0000B00401C01904FF000400290200705D4FA
:103DC0000198484502DB4FF0FF30019000208DF84C
:103DD0004B0002980DF14B07B0F1004F25D00220A7
:103DE0000C902B200D90029800280CDA4042029093
:103DF0002D200D9007E00A210298FCF7A6FA303139
:103E0000029007F8011D0C99481E0C900029F2DC65
:103E100002980028EFD1791E0D980870307800F0D4
:103E2000200040F0450007F8020D11A8C01BC01D7E
:103E300002901398007800B1012000EB090101986D
:103E400001EBE071029801440398401A401E039070
:103E5000E00306D453462146179A039800F05CF815
:103E600005441398007818B15246179990476D1C75
:103E7000E00323D553462146179A039800F04CF8E7
:103E800005441BE0BBF1000F07DB0098584504DD3B
:103E90001098179910F80B0001E01799302052463E
:103EA000904701980BF1010B401E05F101050190AF
:103EB00004D12E205246179990476D1CB9F100018C
:103EC000A9F10109DEDC05E017F8010B524617994C
:103ED00090476D1C0299481E02900029F4DC53465D
:103EE0002146179A03989EE62D0000002B00000043
:103EF000200000002DE9F041044600251E4617462B
:103F0000880404D405E039462020B0476D1C641EA7
:103F1000F9D52846BDE8F0812DE9F0410446002599
:103F20001E469046C80301D5302700E020278804AC
:103F300004D505E041463846B0476D1C641EF9D5EE
:103F40002846BDE8F0814A68002A06D00A68531C5A
:103F50000B6010704868401E4860704700B587B01D
:103F600000BF002001901148006840F002000F4996
:103F700008600846006800F00200019000BF00BF22
:103F800001200590112003904815029002A90848CD
:103F9000FCF70EFE4FF40060029002A90448FCF703
:103FA00007FE01F021F807B000BD000030380240E4
:103FB0000004024010B5044600BF082C02DD4FF09B
:103FC000FF3010BD00BFA100491C4FF4807202EB0E
:103FD000C1001021FFF7AEFA00BFA100491C4FF449
:103FE000807202EBC100FFF725FA0028F5D1A1008D
:103FF000491C4FF4007202EBC1001F21FFF79AFA2F
:104000000120A0400F49098881430E48018001200A
:10401000A0400D49098881430B48018000200B49CD
:1040200021F814000A49085500BFA100491C4FF4AB
:10403000407202EBC100FFF7FDF90028F5D1012025
:10404000BFE70000340100203601002098860020E0
:10405000380100200FB410B5C2B045A801904FF44C
:10406000807102A8019B449AFFF7E2FA04460020FF
:104070000190002C0ADD4FF44A70FFF7DBF9172896
:1040800004D1A2B202A9012001F0E6FC42B010BCAA
:104090005DF814FB10B5044600BF082C02DD4FF09C
:1040A000FF3010BD00BF00BFA100491C002202EB81
:1040B000C100FFF7BFF900F00F00012802D06FF038
:1040C0000400EEE700BFA100491C4FF4807202EB30
:1040D000C1000821FFF72EFA00BFA100491C4FF4D0
:1040E000807202EBC100FFF7A5F90028F5D101208D
:1040F000A040154909888143134801800120A04050
:1041000012490988084008B10020CAE710E0A10060
:10411000491C4FF4007202EBC100FFF78BF900F06D
:10412000080028B12046FFF745FF6FF00C00B8E704
:10413000A100491C4FF4407202EBC100FFF77AF96D
:104140000028E4D10120ACE7360100203401002032
:1041500010B5002406480078012806D105480068FB
:10416000804700200249087000E00624204610BD68
:104170007A000020800000202DE9F05F06460D4601
:104180004FF0000B2888052848D170784FEA0029A5
:10419000B07840EA090909F101001FFA80F9F078C6
:1041A000040230790443012C35DBB4F5FA6F32DABE
:1041B000374600202880012007F8010B2888401C82
:1041C000288004F0070040B12046E11704EB51714C
:1041D000C910491C01F0FF0805E02046E11704EB77
:1041E0005171C1F3C70807F8018B2888401C28804B
:1041F000002322464946384600F0EAFA8246BAF1E0
:10420000000F04D0504601F0ABFA834608E028883E
:104210004044288004E04FF0030B01E04FF0030B13
:104220005846BDE8F09F2DE9F05F06460D464FF079
:10423000000B2888052847D170784FEA0029B0780C
:1042400040EA090909F101001FFA80F9F078040237
:1042500030790443012C34DBB4F5FA6F31DA374698
:1042600000202880022007F8010B2888401C2880A5
:1042700004F0070040B12046E11704EB5171C9106A
:10428000491C01F0FF0805E02046E11704EB5171DD
:10429000C1F3C70807F8018B2888401C28802246F4
:1042A0004946384600F012FB8246BAF1000F04D0AE
:1042B000504601F055FA834608E02888404428809B
:1042C00004E04FF0030B01E04FF0030B5846BDE84C
:1042D000F09F2DE9F04705460C464FF0000A208874
:1042E000052837D168784FEA0028A87840EA0808FE
:1042F00008F101001FFA80F8E87806022E79012EF5
:1043000025DB7D2E23DC2F4600202080032007F8AC
:10431000010B2088401C20807006000E07F8010B5E
:104320002088401C2080002332464146384600F059
:10433000D1FA8146B9F1000F04D0484601F010FAD5
:10434000824609E0208800EB4600208004E04FF020
:10435000030A01E04FF0030A5046BDE8F0872DE95B
:10436000F04705460C464FF0000A2088052837D153
:1043700068784FEA0028A87840EA080808F10100A8
:104380001FFA80F8E878060228790643012E24DB1C
:104390007D2E22DA2F4600202080042007F8010B12
:1043A0002088401C20807006000E07F8010B208832
:1043B000401C208032464146384600F07DFB814655
:1043C000B9F1000F04D0484601F0CAF9824609E06D
:1043D000208800EB4600208004E04FF0030A01E053
:1043E0004FF0030A5046BDE8F0872DE9FC5F044614
:1043F0000D460020009028880A285DDB60784FEA8F
:10440000002AA07840EA0A0A0AF101001FFA80FA9D
:10441000E07806022079064360794FEA002BA07904
:1044200040EA0B0B0BF101001FFA80FBE079070259
:10443000207A0743607A0190012E3BDB7D2E39DC28
:10444000012F37DB792F35DC79000198814231D19A
:1044500001233A46594604F10A0000F03BFA81462E
:10446000B9F1000F1ED1A04600202880172008F8BF
:10447000010B2888401C28807006000E08F8010BEC
:104480002888401C2880002332465146404600F0D0
:1044900021FA8146B9F1000F04D12888022101FBDD
:1044A00006002880B9F1000F06D0484601F058F9FF
:1044B000009001E0032000900098BDE8FC9F000000
:1044C00070B505460C46064802880649681CFBF78D
:1044D0000AFF03480088401C2080002070BD0000B7
:1044E00070000020788200202DE9F84304460F4632
:1044F0004FF000083888052829D160780502A07897
:104500000543681C85B22079F0B9E078FF2801D016
:10451000E078C8B900208DF80100E078FF2803D1C9
:1045200001208DF8000002E000208DF8000001233A
:104530001A462946684600F04BF906464EB1304609
:1045400001F00EF9804604E04FF0030801E04FF05F
:1045500003084046BDE8F8832DE9F04104460F46C4
:104560004FF000083888052812D160780502A0783D
:104570000543681C85B201231A462946E01C00F059
:10458000A9F9064636B1304601F0EAF8804601E066
:104590004FF003084046BDE8F0812DE9F05F054685
:1045A0000E464FF0000B3088052839DD6878070289
:1045B000A8780743781C87B2E87804022879044376
:1045C00095F805A004F0070040B12046E11704EB80
:1045D0005171C910491C01F0FF0805E02046E117A0
:1045E00004EB5171C1F3C708012C16DBB4F5F66F6B
:1045F00013DCD04511D1012322463946A81D00F015
:10460000E7F88146B9F1000F04D0484601F0A8F858
:10461000834607E00520308004E04FF0030B01E003
:104620004FF0030B5846BDE8F09F2DE9F0470446D4
:104630000E464FF0000A3088062828DB6078070213
:10464000A0780743781C87B2E078050220790543FB
:1046500094F80590012D17DB782D15DC6806000E07
:10466000484511D101232A463946A01D00F032F9F0
:104670008046B8F1000F04D0404601F071F8824640
:1046800007E00520308004E04FF0030A01E04FF01E
:10469000030A5046BDE8F08738B500254148007848
:1046A00008B1062038BD684601F042FF012877D1E5
:1046B0009DF8000030B1012805D0022818D0032849
:1046C0006DD16BE06BE0384A38493948394B1B688B
:1046D000984705465DB936480078374909788842D9
:1046E00002D03348007810B9022001F043FF56E0B1
:1046F0002E48006800783149087001203049087060
:10470000002417E02F4810F8340000B914E02D48B9
:1047100010F834002949097888420AD1294800EB69
:10472000C400214942682148006890472449087024
:1047300002E0641C102CE5DB00BF1D48007858B374
:104740001F480078C8B10020174908801B4800782E
:1047500040F08001144802880088401C124B1880E9
:10476000124800688154164802781846018800886B
:10477000401C18800D4800684254134800780128F6
:1047800000D100BF08480288084801680A4800783C
:104790000E4B1B689847054601E001E000BF00BFD3
:1047A00000207FE77A0000202A0100202401002059
:1047B0002801002088000020780000202901002026
:1047C0002C010020A4000020790000207C000020A3
:1047D0002DE9FC5F07460E461546984600200190DD
:1047E000012E67DB70190D2864DC741EB8F1000F10
:1047F0002ED1B946AA464FF0000BE81DC217009013
:1048000000EB5270C1103846FBF794FD1CE02C48B9
:10481000005D012808D199F80000012101FA0BF18F
:10482000C9B2084389F80000641CAAF101001FFA0C
:1048300080FA0BF101001FFA80FBBBF1080F03D1D6
:104840004FF0000B09F10109BAF1000FDFDC33E092
:10485000B8F1010F30D139462A46002027E091F8FF
:1048600000C04CFA00FC0CF0010343B1DFF854C067
:104870005CF824C0DFF8509049F824C005E04FF000
:10488000000CDFF8449049F824C0DFF834C00CF87D
:104890000430641CA2F1010C1FFA8CF200F1010C2F
:1048A0001FFA8CF0082801D10020491C00BF002A03
:1048B000D5DC01E0012001900198BDE8FC9F0000DB
:1048C000E889002000880020B889002003460120E4
:1048D000704700002DE9F04F87B005460F46164699
:1048E00098464FF00009CA46B81964287CDC38465F
:1048F000401E84B2B8F1000F78D172E06B4830F8F6
:1049000014B00A2C62DB1C2C60DC01A801F018FD3D
:10491000A4F10A00132856D2DFE800F00A0E12169E
:104920001A1E22262A2E32363A3D4145494D510063
:104930005F4890F806B047E05D4890F807B043E064
:104940005B4890F808B03FE0594890F809B03BE068
:10495000574890F80AB037E0554890F80BB033E06C
:10496000534890F80CB02FE0514890F80DB02BE070
:104970004F4890F80EB027E04D4890F80FB023E074
:104980004B4890F810B01FE0494890F811B01BE078
:104990004FF4FB7B18E0464890F800B014E0444820
:1049A00090F801B010E0424890F802B00CE04048A6
:1049B00090F803B008E03E4890F804B004E03C48AA
:1049C00090F805B000E000BF00BF00BF4FEA2B2009
:1049D00005F8010B05F801BB601C84B2701E86B29D
:1049E00000BF002E8ADC5DE05AE0FFE7B8F1010F5E
:1049F00058D13DE069782A7841EA02202B4921F814
:104A000014000A2C09DB0D2C07DCA4F10A01284A4A
:104A1000921D50544FF0010A24E00E2C09DB112C9A
:104A200007DCA4F10E01224A0A3250544FF0010A69
:104A300018E0122C09DB152C07DCA4F112011C4A2A
:104A40000E3250544FF0010A0CE0162C02D14FF0F8
:104A5000010A07E0172C05DB1C2C03DCA4F117016D
:104A6000134B5854AD1C611C8CB2711E8EB200BF2A
:104A7000002EBFDCBAF1000F14D00C48B0F82CB0F7
:104A8000BBF1000F01D14FF4FB7B5B46084A0E32AD
:104A9000111F081FFEF74AF801200649087001E0BF
:104AA0004FF00109484607B0BDE8F08FF0880020BC
:104AB000A886002088010020F0B503460C4600259A
:104AC0000B2C22DBA0183D281FDCA4F10B0119E000
:104AD000002000290DDB0C290BDADFF834C05CF86C
:104AE0002160DFF830C05CF821C0A6EB0C07B8B23B
:104AF00000BF061203F8016B03F8010B491C561E98
:104B0000B2B200BF002AE3DC00E001252846F0BD78
:104B100000880020B889002070B504460025204692
:104B200001F066FD00B90325284670BD70B5044646
:104B300000252046FFF7F0FF051E03D00120114994
:104B400008701CE001F004FD08B9032517E00E48C9
:104B50000E4908600E480F4908600F480F49086069
:104B60000F481049086000200F490860FF200F49D6
:104B7000087002200E49087001200249087028467A
:104B800070BD00007A0000202D4C0208800000203B
:104B90002F4C020884000020B54B0208880000203A
:104BA000FD4B02087C0000208C00002078000020D3
:104BB000790000202DE9FC4104460D4616464FF0D1
:104BC0000508694601A801F0E5FC90B101988078DC
:104BD00007020198C07807436FB90198C01D28608B
:104BE000BDF80000C01F30804FF00008FF2020708B
:104BF00001E04FF005084046BDE8FC812DE9F04793
:104C000081460E4614460027F51FE01D1FFA80F866
:104C1000601C000A2871601C68714146284601F03A
:104C2000EDFC00B905273846BDE8F087704710B5A0
:104C300001F0F4F810BD10B5A02000F019F908B982
:104C4000012010BD00F0D0F90020FAE72DE9F04175
:104C500007460D46164600F0A7F9A02000F070F9AF
:104C600000F0DAF900B12CE0281200F069F900F048
:104C7000D3F900B125E0E8B200F062F900F0CCF918
:104C800000B11EE000F090F9A12000F059F900F009
:104C9000C3F900B115E000240CE000F02BF9385501
:104CA000701EA04202D000F0C3F801E000F008F945
:104CB000601C84B2B442F0DB00F096F90120BDE83C
:104CC000F08100F091F90020F9E72DE9F04707465F
:104CD000884691464546002433E014B105F01F0094
:104CE00020BB00F081F900260AE000F05DF9A02069
:104CF00000F026F900F090F900B904E0701C86B2CB
:104D0000B6F57A7FF1DB00BFB6F57A7F00D11FE000
:104D1000281200F015F900F07FF900B118E0E8B2B0
:104D200000F00EF900F078F900B111E0385D00F004
:104D300007F900F071F900B10AE0681C85B2601C47
:104D400084B24C45C9DB00F04FF90120BDE8F08783
:104D500000F04AF90020F9E770B504460025002666
:104D600000BFA100491C4FF4185202EBC100FEF72E
:104D700061FB0646A100491C4FF4185202EBC10129
:104D800001F58070FEF756FB00EB062086B2AEB14F
:104D9000A100491C4FF4185202EBC100FEF74AFB78
:104DA0000546A100491C4FF4185202EBC10101F560
:104DB0008070FEF73FFB00EB052085B2B542D0D1F5
:104DC000284670BD70B504460025002600BFA1002E
:104DD000491C4FF4005202EBC100FEF72BFB0646C4
:104DE000A100491C4FF4005202EBC10101F5807093
:104DF000FEF720FB00EB062086B2AEB1A100491CF5
:104E00004FF4005202EBC100FEF714FB0546A1006F
:104E1000491C4FF4005202EBC10101F58070FEF70E
:104E200009FB00EB052085B2B542D0D1284670BD04
:104E300010B500224FF400610C48FBF7BBFF00F0F7
:104E400037F8012251020948FBF7B4FF00F030F8AF
:104E500000224FF400710548FBF7ACFF00F028F882
:104E60000122D1020148FBF7A5FF10BD000402405A
:104E700070B504464FF400610C48FBF793FF01281E
:104E800011D141020948FBF78DFF01280BD100F039
:104E90008BF8204600F054F800F0BEF8054600F00C
:104EA000A3F8284670BD0120FCE700000004024082
:104EB000002001E0411CC8B21E28FBDB7047000047
:104EC00010B50122D1020A48FBF774FFFFF7F0FF8B
:104ED000012251020648FBF76DFFFFF7E9FF0022B0
:104EE0004FF400710248FBF765FFFFF7E1FF10BDCB
:104EF0000004024070B5002400251BE06006040E8B
:104F0000012251020D48FBF755FFFFF7D1FF4FF487
:104F100000610A48FBF746FF012801D1601CC4B2BA
:104F200000224FF400710548FBF744FFFFF7C0FF74
:104F3000681CC5B2082DE1DB204670BD00040240AC
:104F400070B5044600252AE004F0800028B1012253
:104F5000D1021448FBF72EFF05E000224FF4006158
:104F60001048FBF727FFFFF7A3FF012251020D486E
:104F7000FBF720FFFFF79CFF00224FF40071094868
:104F8000FBF718FF072D04D10122D1020548FBF7DA
:104F900011FF6006040EFFF78BFF681CC5B2082DD9
:104FA000D2DB70BD0004024010B50122D1020D48D1
:104FB000FBF700FF012251020A48FBF7FBFEFFF757
:104FC00077FF00224FF400610648FBF7F3FEFFF77E
:104FD0006FFF00224FF400710248FBF7EBFEFFF772
:104FE00067FF10BD0004024010B500224FF40061BD
:104FF0000848FBF7DFFE012251020648FBF7DAFE04
:10500000FFF756FF0122D1020248FBF7D3FEFFF75C
:105010004FFF10BD0004024010B50122D10210481C
:10502000FBF7C8FEFFF744FF012251020C48FBF7D3
:10503000C1FEFFF73DFF4FF400610948FBF7B2FEE8
:10504000012801D1012400E0002400224FF4007166
:105050000348FBF7AFFEFFF72BFF204610BD000013
:105060000004024010B5044600BF082C02DD4FF0DA
:10507000FF3010BD00BF00BFA100491C002202EBA1
:10508000C100FEF7D7F900F00F00012802D06FF041
:105090000400EEE700BF00BFA100491C4FF44072BE
:1050A00002EBC100FEF7C6F9132802D06FF0020030
:1050B000DFE700BFA100491C4FF4807202EBC10082
:1050C0000221FEF737FA00BFA100491C4FF480729D
:1050D00002EBC100FEF7AEF90028F5D105E020464D
:1050E000FEF768FF6FF00300C3E7A100491C4FF40F
:1050F000407202EBC100FEF79DF91428EFD10120A8
:10510000B7E700000A480B49086062B6FCF724F8CC
:10511000FBF768FEFDF798FEFDF7CCFAFDF78EFB76
:10512000FDF7AEFBFDF7CEFBFBF7D2FB00BFFEE7C2
:105130000000020808ED00E00F480088072801DAA7
:10514000002070470D4840790C4B1B7940EA032240
:10515000901D81B2072902DBB1F5806F03DD0020CD
:10516000054B1880EDE704480088884201DB0846BB
:10517000E7E70020E5E700002E01002098820020EC
:105180002DE9F04105460E46264807682648006886
:10519000001D00F005FE50B92348006890F82C105F
:1051A0000120884021490968814320480160681C2A
:1051B000D8B9D6B11E4948681B49096888601A49A0
:1051C00082680968CA6018490968091D82685160C7
:1051D00015490968091D8160154A134909684A6122
:1051E00011460968491C11601AE07C190E480068D4
:1051F0004460BC4207D20C480168091D0D48006894
:1052000000F0F2FD0CE008480168091D0A4800683A
:1052100000F0EAFD09480068844201D207480460B2
:10522000BDE8F0814400002030000020480000204C
:10523000648200203800002034000020600000203C
:1052400010B5044600F0ECFD2F480068401C2E49C4
:1052500008602E48006840B92C4804600846006881
:1052600001280DD100F096F90AE02948006838B904
:1052700026480068C06AE16A884201D82348046071
:1052800024480068401C2349086094F82C10012031
:1052900088402149096808431F490860E16A01EB19
:1052A00081011E4A02EB81014868A0608268E260C9
:1052B000211D826851608160E16A01EB8101174A1A
:1052C00002EB81026261E16A01EB8101134A52F84B
:1052D0002110491CE26A02EB8202104B43F82210B3
:1052E00000F0B0FD0A48006868B108480068C06A6C
:1052F000E16A884207D24FF0805009490860BFF345
:105300004F8FBFF36F8F10BD400000203000002092
:105310004C0000205C00002048000020B0810020EC
:1053200004ED00E010B516E000F07AFD0C48C0680E
:10533000C468201D00F034FD0A480068401E094979
:10534000086009480068401E0749086000F07AFDBF
:10535000204600F05FF8044800680028E4D110BD42
:1053600050820020400000203C00002070B5044620
:105370000D46206C70B1216CE0680144E160D4E915
:105380000210884201D32168E1602846226CE1685E
:10539000FAF7A9FF70BD2DE9F04104460F46154606
:1053A0004FF00008A66B206C48B9206800282CD16B
:1053B000A06801F099FD80460020A06025E07DB93D
:1053C0003946226C6068FAF78EFF216C60680844E9
:1053D0006060D4E90101884217D32068606014E05E
:1053E0003946226CE068FAF77EFF216CE068411ACA
:1053F000E1602168E068884203D2216CA068411A0C
:10540000E160022D01D106B1761E701CA0634046FA
:10541000BDE8F08110B50446206B00F023FD204666
:1054200000F020FD10BD01464A6A22B10A6B1268E5
:10543000C2F1050000E000207047000030B54FF4D5
:105440000043154800F007042CB1C01D20F00700F0
:10545000114C041B1B1B0246104C226000240F4DF4
:105460006C60D018083820F007000D4C2060002434
:105470000B4D2D686C600A4D2D682C601146441A46
:105480004C60074C24680C60064D4C682C60064D3F
:105490004C682C6030BD0000B001002010000020DE
:1054A00018000020200000201C00002000BFFFF793
:1054B00039FF064800680128F9D94FF080500449A7
:1054C0000860BFF34F8FBFF36F8FF0E7B08100200C
:1054D00004ED00E010B5044654B10020A060206047
:1054E0000021E16000231A461946204601F0A0F988
:1054F00010BD2DE9F04106460D4617469846069C1C
:105500000DB9246000E02760E66325640121204690
:1055100001F03EF9BDE8F0812DE9FF5F80460E46BF
:105520009146DDE90E7A109CA9F10100216B01EB97
:10553000800B2BF0070B7EB1002507E0715D04F1B5
:1055400034004155705D00B902E06D1C102DF5D39B
:1055500000BF002143200155052F00D30427E76237
:105560006764201D00F03DFC04F1180000F039FCD8
:105570002461C7F10500A061646241465846039A60
:1055800000F082F92060BAF1000F01D0CAF80040A3
:10559000BDE8FF9F10B5002407E004EB84010F4A2B
:1055A00002EB810000F010FC641C052CF5D30C48C4
:1055B00000F00AFC0B4800F007FC0B4800F004FC6C
:1055C0000A4800F001FC0A4800F0FEFB04480949C3
:1055D000086004480849086010BD0000B081002040
:1055E00014820020288200203C820020508200206B
:1055F00064820020340000203800002010B50146ED
:10560000164800E0006803688B42FBD302464368FB
:1056100013448B4204D143684C68234443600146E1
:105620000A464B6813440468A34211D10C4C03682A
:105630002468A34208D04B680468646823444B6024
:1056400003681B680B6005E0054B1B680B6001E0FD
:1056500003680B60884200D0016010BD100000207C
:105660001800002070B5054600F0DAFBA86B08B9F9
:10567000012400E0002400F0E5FB204670BD70B579
:10568000054600F0CDFBA86BE96B884201D10124EF
:1056900000E0002400F0D6FB204670BD09480068F9
:1056A000006808B9012000E0002020B14FF0FF3071
:1056B0000549086005E003480068C06800680249C1
:1056C00008607047340000206000002000BFBF2049
:1056D00080F31188BFF34F8FBFF36F8F00BF00BF00
:1056E000FEE770B5044600F09BFB94F9455010E0CE
:1056F000606A08B9012000E0002038B904F12400F4
:1057000001F0BEFC18B100F005FC00E003E0681EEB
:1057100045B2002DECDC00BFFF2084F8450000F00E
:1057200091FB00F07DFB94F9445010E0206908B92A
:10573000012000E0002048B904F1100001F0A0FCB5
:1057400008B100F0E7FB681E45B200E001E0002D63
:10575000ECDC00BFFF2084F8440000F073FB70BD58
:10576000014621B1012904D0072906D103E0002018
:1057700005E0022003E0062001E0042000BF00BF96
:10578000704700002DE9F04705464FF0000900F092
:1057900077FC3048006808B9FFF750FE75B105F096
:1057A0000700C0F11008C8F1FF30A84201D2012063
:1057B00000E0002008B9454400E00025012000EB8E
:1057C000E570002841D0002D3FD023480068854275
:1057D0003BD8224E3046046801E0264624686068C3
:1057E000A84202D220680028F7D11A4800688442F3
:1057F0002BD0306800F10809206830606068401BD9
:10580000102807D967196068401B786065603846C2
:10581000FFF7F4FE104960680968081A0E4908602D
:10582000084600680E490968884203D20A480068A1
:105830000B490860606840F0004060600020206014
:1058400008480068401C0749086001F09DFC484674
:10585000BDE8F087180000201C0000201000002088
:1058600020000020240000200648006830B10549CF
:10587000096801F14800896C491C01600148006811
:105880007047000030000020001F4FF0807303605D
:10589000001F21F001030360001F054B0360143853
:1058A0000260001F6FF002030360203870470000A1
:1058B000CD5602082DE9F0470446884616460027D3
:1058C000002500BF082C02DD681EBDE8F08700BF80
:1058D00000BFA100491C002202EBC100FDF7AAFD98
:1058E00000F00F00012802D06FF00400EDE700BFC8
:1058F00000BF16B96FF00D00E7E700BFA100491C1B
:105900004FF4F05202EBC100FDF794FD4FF6FF712A
:1059100001EA8025B54200DA2E4638E02046FFF73E
:105920001BFA0546A100491C4FF4407202EBC1006E
:10593000FDF780FD0746172F1ED01C2F16D105B18D
:1059400026E02046FFF73EFA8146A100491C4FF4AD
:10595000F85202EBC100FDF76DFDB9EB802F0BD1C2
:105960002046FEF727FB6FF00600AEE72046FEF765
:1059700021FB6FF00600A8E70120A0401449098828
:10598000084010B10DB900209FE705B100E0C5E760
:1059900000BFB54200DA2E4632464146204600F0AE
:1059A0002FFCA100491C4FF4807202EBC100402182
:1059B000FDF7C0FD00BFA100491C4FF4807202EB4F
:1059C000C100FDF737FD0028F5D130467DE7000026
:1059D0003401002000B131B9054A064BDA60064BAC
:1059E000044A136102E0034AD0601161704700006D
:1059F00013630208400100201563020800B131B9A9
:105A0000054A064B5A61064B044A936102E0034A79
:105A100050619161704700002D6302084001002031
:105A20001963020800BF094A128802F40072002AB2
:105A3000F9D000B131B9064A044BDA61054B034A8B
:105A4000136202E0014AD0611162704740010020F8
:105A500085640208A56402082DE9F04104468846E1
:105A600015460026002700BF082C02DD701EBDE889
:105A7000F08100BF00BFA100491C002202EBC10061
:105A8000FDF7D8FC00F00F00012802D06FF00400F1
:105A9000EDE700BF00BF15B96FF00D00E7E700BFED
:105AA000A100491C4FF4407202EBC100FDF7C2FC9B
:105AB0000646172E04D01C2E02D06FF00600D6E743
:105AC0000120A04042490988084040B3A100491C78
:105AD0004FF4007202EBC100FDF7ACFC00F01F06B2
