:020000040802F0
:10000000809F002061020208592E0208FB27020887
:10001000552E0208C1090208913B020800000000A9
:10002000000000000000000000000000A101020824
:10003000650E020800000000FD010208F934020804
:100040007B0202087B0202087B0202087B02020894
:100050007B0202087B0202087B0202087B02020884
:100060007B0202087B0202087B0202087B02020874
:100070007B0202087B0202087B0202087B02020864
:100080007B0202087B0202087B0202087B02020854
:100090007B0202087B0202087B0202087B02020844
:1000A0007B020208D13502087B0202087B020208AB
:1000B000E13502087B0202087B0202087B0202088B
:1000C0007B0202087B0202087B0202087B02020814
:1000D0007B0202087B0202087B0202087B02020804
:1000E0007B0202087B0202087B0202087B020208F4
:1000F0007B0202087B0202087B0202087B020208E4
:100100007B0202087B0202087B0202087B020208D3
:100110007B0202087B0202087B0202087B020208C3
:100120007B0202087B0202087B0202087B020208B3
:100130007B0202087B0202087B0202087B020208A3
:100140007B0202087B0202087B0202087B02020893
:100150007B0202087B0202087B0202087B02020883
:100160007B0202087B0202087B0202087B02020873
:100170007B0202087B0202087B02020800000000EA
:100180007B0202087B020208DFF810D000F0FCF8C6
:100190000048004731530208AFF30080809F0020E1
:1001A0002C4B19680868B0E8F04F80F30988BFF35A
:1001B0006F8F4FF0000080F311887047000000003F
:1001C00008480068006880F308884FF0000080F35A
:1001D000148862B661B6BFF34F8FBFF36F8F00DF35
:1001E00000BF00BF08ED00E0DFF80C00016841F43B
:1001F00070010160704700BF88ED00E0EFF30980F7
:10020000BFF36F8F134B1A681EF0100F08BF20ED5D
:10021000108A20E9F04F106009B44FF0BF0080F35E
:100220001188BFF34F8FBFF36F8F06F065F84FF063
:10023000000080F3118809BC19680868B0E8F04F25
:100240001EF0100F08BFB0EC108A80F30988BFF3CE
:100250006F8F704730000020EFF30580704700007B
:100260000648804706480047FEE7FEE7FEE7FEE750
:10027000FEE7FEE7FEE7FEE7FEE7FEE7BD35020824
:10028000890102082DE9F05F0546002092469B4651
:1002900088460646814640241BE02846414647469C
:1002A000224600F061F853465A46C01A914110D3D5
:1002B00011461846224600F048F82D1A67EB01084F
:1002C0004F4622460120002100F03FF817EB0009BD
:1002D0004E41201EA4F10104DFDC484631462A4687
:1002E0004346BDE8F09F10B5431A934209D28318E4
:1002F000881803E010F8011D03F8011D521EF9D201
:1003000010BD40EA01039B0703D009E008C9121F92
:1003100008C0042AFAD203E011F8013B00F8013BBF
:10032000521EF9D210BDD2B201E000F8012B491ED5
:10033000FBD270470022F6E710B513460A46044682
:100340001946FFF7F0FF204610BD202A04DB203AB3
:1003500000FA02F1002070479140C2F1200320FA18
:1003600003F3194390407047202A04DB203A21FA16
:1003700002F00021704721FA02F3D040C2F12002BE
:100380009140084319467047064C074D06E0E06867
:1003900040F0010394E8070098471034AC42F6D3CC
:1003A000FFF7F6FE187602083876020870B58C184A
:1003B00010F8015B15F0070301D110F8013B2A1179
:1003C00006D110F8012B03E010F8016B01F8016B66
:1003D0005B1EF9D12B0705D40023521E0DD401F862
:1003E000013BFAE710F8013BCB1A921C03E013F82B
:1003F000015B01F8015B521EF9D5A142D8D3002060
:1004000070BD000010B586B00446204600F0FEF92D
:100410004FF400600190012002900020039003201F
:10042000049001A90B4800F05DFD0122D1020948AA
:1004300000F05AFE00224FF48051074800F054FEAD
:1004400000224FF48061044800F04EFE012006B007
:1004500010BD0000000C02400008024010B586B03C
:100460000446204600F0D2F94FF48050019001205C
:100470000290002003900320049001A90B4800F093
:1004800031FD01221103094800F02EFE00224FF435
:100490008051074800F028FE00224FF48061044894
:1004A00000F022FE012006B010BD0000000C02404A
:1004B0000008024010B586B00446204600F0A6F9B8
:1004C0004FF400500190012002900020039003207F
:1004D000049001A90B4800F005FD012251030948D1
:1004E00000F002FE00224FF48051074800F0FCFDAE
:1004F00000224FF48061044800F0F6FD012006B0B0
:1005000010BD0000000C02400008024010B586B08B
:100510000446204600F07AF9012001900290002064
:1005200003900320049001A90B4800F0DBFC01229A
:100530001146094800F0D8FD00224FF480510748C9
:1005400000F0D2FD00224FF48061044800F0CCFDA1
:10055000012006B010BD0000000C0240000802405F
:1005600010B586B00446204600F050F902200190F4
:1005700001200290002003900320049001A90B4861
:1005800000F0B0FC01220221084800F0ADFD00227D
:100590004FF48051064800F0A7FD00224FF480611F
:1005A000034800F0A1FD012006B010BD000C024080
:1005B0000008024010B586B00446204600F026F937
:1005C0000420019001200290002003900320049059
:1005D00001A90B4800F086FC01220421084800F024
:1005E00083FD00224FF48051064800F07DFD00227B
:1005F0004FF48061034800F077FD012006B010BD84
:10060000000C02400008024010B586B004462046A7
:1006100000F0FCF8082001900120029000200390D7
:100620000320049001A90B4800F05CFC0122082182
:10063000084800F059FD00224FF48051064800F0B0
:1006400053FD00224FF48061034800F04DFD01206E
:1006500006B010BD000C02400008024010B586B084
:100660000446204600F0D2F81020019001200290AC
:10067000002003900320049001A90B4800F032FCF5
:1006800001221021084800F02FFD00224FF4805174
:10069000064800F029FD00224FF48061034800F075
:1006A00023FD012006B010BD000C024000080240EE
:1006B00010B586B00446204600F0A8F880200190CE
:1006C00001200290002003900320049001A90B4810
:1006D00000F008FC01228021084800F005FD0022FE
:1006E0004FF48051064800F0FFFC00224FF4806177
:1006F000034800F0F9FC012006B010BD000C0240D8
:100700000008024010B586B00446204600F07EF88E
:100710004FF480700190012002900020039003208C
:10072000049001A90B4800F0DDFB012211020948E9
:1007300000F0DAFC00224FF48051074800F0D4FCAE
:1007400000224FF48061044800F0CEFC012006B086
:1007500010BD0000000C02400008024010B586B039
:100760000446204600F052F84FF40070019001203A
:100770000290002003900320049001A90B4800F090
:10078000B1FB01225102094800F0AEFC00224FF4F7
:100790008051074800F0A8FC00224FF48061044813
:1007A00000F0A2FC012006B010BD0000000C0240C9
:1007B0000008024010B586B00446204600F026F836
:1007C0004FF48060019001200290002003900320EC
:1007D000049001A90B4800F085FB01229102094811
:1007E00000F082FC00224FF48051074800F07CFCAE
:1007F00000224FF48061044800F076FC012006B02E
:1008000010BD0000000C02400008024008B500BF07
:1008100000BF002100910F49096841F004010D4A11
:1008200011601146096801F00401009100BF00BF8A
:1008300000BF002100911146096841F008011160D4
:100840001146096801F00801009100BF00BF00BF18
:1008500008BD00003038024038B504460D46207D02
:1008600008B9002038BD002000906946204600F0FD
:1008700007F808B90020F5E7009828600120F1E7A3
:1008800070B504460D460026012003F0DCFB012074
:10089000616A8847012003F0D6FB4FF400611948D4
:1008A00000F01AFC20B10020616A8847002070BD6A
:1008B000607B88B100206073FF2000F0AFF800F08B
:1008C00095F8204600F07EFAA179C031C8B200F058
:1008D000A5F80320206110E0002000F09FF800F050
:1008E00085F828602878C0F380002073206918B14B
:1008F0002069401E206100E001260020616A8847CF
:100900003046D4E70008024070B505460E4628463A
:1009100000F0BAFA04460CB9002070BD31462046FA
:10092000E2699047F9E700001CB500F045F801F0D6
:1009300066FF00F0B1F81148042100234A02CDE916
:1009400000100FA1114806F0B1FA1148052100234B
:100950004FF40062CDE900100EA1114806F0A6FA8E
:100960001048042100238022CDE900100EA1114877
:1009700006F09CFA05F082FC1CBD000090010020EE
:100980004E65745F436F726500000000B138020865
:100990008C0100204144435F5465737400000000E3
:1009A00051370208940100204C45445F5461736B39
:1009B000000000002538020810B503F089FA10BDC8
:1009C00000BFFEE770B504460D46AAB20A232146D1
:1009D000014801F0F9F970BDF488002010B5044613
:1009E000204600F01BF800F001F810BD08B500200B
:1009F000009004216846FFF7E5FF009800BA08BDA3
:100A000010B5002404E0FF2000F008F8601CC4B218
:100A10000F2CF8DBFE2000F001F810BD01B50A2311
:100A200001226946014801F08EFA08BDF4880020D1
:100A300070B504460D46AAB20A232146014801F0CA
:100A400082FA70BDF488002070B505460C46284631
:100A5000FFF7E4FF204600F001F870BD01B50098F3
:100A600000BA009004216846FFF7E2FF08BD10B508
:100A700002460023002003E0145C1C44A3B2401C87
:100A80008842F9DB184610BD10B5044651212046B6
:100A9000FFF7EDFF10BD000070B5C0211648FFF74D
:100AA00049FC002422E0532104FB01F000F5807092
:100AB00085B253206043114A81185322284601F021
:100AC000A4FE532161430D4A8818FFF7DDFF53212F
:100AD00061430A4A1144B1F85110884205D05321AC
:100AE000614388185321FFF725FC641C0C2CDADBCA
:100AF00000F006F870BD00002C8E0020488A00200F
:100B000010B5A6B0922201A94FF4006001F07DFE5D
:100B1000902101A8FFF7ABFF0446BDF89400A04266
:100B200005D1902201A90448FFF7DDFB01E000F0A8
:100B3000BDF826B010BD0000EC8E00202DE9F34F6B
:100B40002DED028B83B005460C2D04DB03B0BDEC0C
:100B5000028BBDE8FC8F06984FEAE02A00EE10AA4F
:100B6000B8EEC00ADFED4E0A20EE208ABDEEC80ABC
:100B70008DED020A2846029901F09CFF83464949FF
:100B800001EB0511C1F800B0464800EB0510006804
:100B9000444901EB05114968401A424901EB05112E
:100BA0008860404800EB05108768532068433E4941
:100BB00044182078022804DA3A4800EB0510C76090
:100BC000C4E7D4F80500B84201DB002620E0207815
:100BD000401E611C01EBC0004068B84202DC207876
:100BE000861E15E000260EE0601C00EBC600406883
:100BF000B84207DC601C711C00EBC1004068B842C1
:100C000000DD04E0761C2078401EB042ECDC00BF22
:100C1000601C00EBC600D0F80490601C711C00EB57
:100C2000C10040680190601C00EBC600D0F8008055
:100C3000601C00EBC100006800900198484505D198
:100C4000184800EB0510C0F80C8027E00098A0EBD6
:100C5000080001EE100AF8EEC11A0198A0EB090095
:100C600001EE100AB8EEC11A81EE812AB0EE420AF6
:100C7000A7EB090001EE100AF8EEC11A01EE108A86
:100C8000B8EEC11A00EE211AF0EE410ABDEEE01AEC
:100C9000044800EB051080ED031A00BF00BF55E7C4
:100CA00020BC3E3F2C8E0020488A002010B500203A
:100CB00013E000210EE000EB40020A4B03EB82023E
:100CC00052F8212000EB4003074C04EB830343F868
:100CD0002120491C0329EEDB401C0C28E9DB00F035
:100CE00049F810BD88750208EC8E002070B50446E6
:100CF0000C2C00DB70BD0025002013E05321614364
:100D00001B4A1144491C01EBC001496839B9532100
:100D100061431144491C01EBC001096809B1691C18
:100D2000CDB2401C0A28E9DB5320604310490D5422
:100D30000021532060430E4A1044A0F85110532163
:100D400061438818FFF7A0FE53216143084A11440C
:100D5000A1F85100532104FB01F000F580765320E7
:100D6000604381185322304601F06DFD00BFC1E79A
:100D7000488A002000B5A5B0902209496846FFF7CF
:100D8000B2FA90216846FFF772FEADF89000922209
:100D900069464FF4006001F056FD25B000BD00002B
:100DA000EC8E00200C2800DB7047054901EB001198
:100DB0000968034A02EB0012516000BFF4E700002B
:100DC0002C8E002070B50446607801280ED10025D5
:100DD000607945EA4065E07845EAC025207945EA32
:100DE000802529460320FFF72FFE37E06078022890
:100DF00034D14520FFF712FE00261AE0002545F009
:100E00008045A07845EAC065E07845EAC05520797C
:100E100045EA805500BFA07845EAC025E07845EA5C
:100E2000C015207945EA80152846FFF717FE701C8B
:100E3000C6B2042EE2DBE07980B9012003F003F9A9
:100E40008120FFF7EBFD0A2003F0FDF800BF4FF40F
:100E50000061034800F040F90028F8D170BD00009F
:100E600000080240704710B54FF6FF7400BFA02085
:100E700004F014F918B1201EA4F10104F7D110BD3B
:100E800072B600BFFEE7000010B501460022002048
:100E90000DE000EB8003084C14F833308B4204D192
:100EA00000EB800304EBC30203E0431CD8B20C2820
:100EB000EFD300BF104610BDAC01002070B5044652
:100EC00000F018F906462546681C10B10448007861
:100ED000054400BF00F00EF9801BA842FAD370BD94
:100EE00008000020F8B502460B460025002400202B
:100EF0000021D6E0012606FA01F51E6806EA05047F
:100F0000AC4274D11E7906F00306012E04D01E797E
:100F100006F00306022E13D190684F000326BE4050
:100F2000B0434F00DE68BE403043906050680126F9
:100F30008E40B0431E79C6F300168E403043506099
:100F40001E7906F00306032E09D0D0684F00032651
:100F5000BE40B0434F009E68BE403043D0601E7913
:100F600006F00306022E13D1CF0802F1200656F830
:100F700027004E07F70E0F26BE40B0434F07FF0E67
:100F80001E69BE403043CF0802F1200646F8270014
:100F900010684F000326BE40B0431E7906F00306DA
:100FA0004F00BE40304310605E6806F44036002EAD
:100FB00076D000BF002600963C4E366846F4804648
:100FC0003A4F3E603E46366806F48046009600BFC3
:100FD00000BF374E8F0856F827008E07370F0F26B1
:100FE000BE40B043334EB24202D1002624E057E067
:100FF000314EB24201D101261EE0304EB24201D143
:10100000022619E02E4EB24201D1032614E02D4EE5
:10101000B24201D104260FE02B4EB24201D1052687
:101020000AE02A4EB24201D1062605E0284EB2421D
:1010300001D1072600E008268F073F0FBE4030434E
:101040001B4E8F0846F82700224E3068A0435E688A
:1010500006F4801606B120431E4E3060361D3068FF
:10106000A0435E6806F4001606B12043194E361DF3
:101070003060184E361F3068A0435E6806F40036B4
:1010800006B12043134E361F3060361F3068A04330
:101090005E6806F4803606B120430E4E083E30608E
:1010A000491C1029FFF426AFF8BD00004438024067
:1010B00008380140000002400004024000080240DD
:1010C000000C0240001002400014024000180240D0
:1010D000001C0240083C0140024613690B400BB162
:1010E000012000E0002070470AB1816101E00B049B
:1010F00083617047014800687047000000000020CD
:1011000003480068034909780844014908607047AA
:10111000000000200800002010B50D48006840F4D1
:1011200000700B4908600846006840F48060086061
:101130000846006840F480700860032000F0D0F892
:101140000F2000F007F800F055F8002010BD000057
:10115000003C0240F0B587B004460026002700BFDF
:10116000002000901E48006840F001001C49086003
:101170000846006800F00100009000BF00BF01A910
:1011800002A800F043FA00F069FA46001548B6FBE1
:10119000F0F0471E14481549086040F2E731134843
:1011A000C1604760002101618160816101F026F921
:1011B000054695B90D4801F077F905466DB9192036
:1011C00000F03CF8102C07D200222146192000F034
:1011D00049F80748046000E00125284607B0F0BD43
:1011E0004438024040420F00000001409489002032
:1011F0000400002008B500BF002000900E480068E1
:1012000040F480400C4908600846006800F48040C3
:10121000009000BF00BF00BF00200090081F0068C2
:1012200040F08050091F08600846006800F08050B8
:10123000009000BF00BF08BD443802400146084688
:1012400000280DDB00BF00BF00F01F0301229A4001
:1012500043099B0003F1E023C3F8002100BF00BF56
:1012600000BF70472DE9F05F80460D461646002707
:1012700002F002FE074639462A46334601F00700CF
:10128000C0F1070ABAF1040F02D94FF0040A01E0D5
:10129000C0F1070AD14600F1040ABAF1070F02D2E1
:1012A0004FF0000A01E0A0F1030AD4464FF0010A12
:1012B0000AFA09FAAAF1010A0AEA020A0AFA0CFA77
:1012C0004FF0010B0BFA0CFBABF1010B0BEA030B1C
:1012D0004AEA0B042146404602F0D6FDBDE8F09FE5
:1012E00000BF00F00702064B19684FF6FF031940D4
:1012F000044B0B4343EA0221014B196000BF7047C6
:101300000CED00E00000FA0570B504460D460CB97E
:10131000012070BD5848006800F00700A84209D2BB
:1013200055490D700846006800F00700A84201D03A
:101330000120EEE7207800F0020002281DD120787D
:1013400000F00400042805D14C48006840F4E05047
:101350004A490860207800F00800082805D147486D
:10136000006840F46040454908604448006820F047
:10137000F000A168084341490860207800F00100AE
:10138000A8B36068012807D13C4808380068C0F35A
:101390004040B8B90120BCE76068022802D060680C
:1013A000032807D1354808380068C0F3406048B9C1
:1013B0000120AEE7314808380068C0F3400008B9A2
:1013C0000120A6E72D48006820F00300616808436B
:1013D0002A490860FFF78EFE064609E0FFF78AFEFD
:1013E000801B41F28831884202D9032091E707E04F
:1013F0002248006800F00C006168B0EB810FEDD16D
:101400001D48006800F00700A84209D91A490D706C
:101410000846006800F00700A84201D0012078E7E4
:10142000207800F00400042807D11448006820F454
:10143000E050E168084311490860207800F0080096
:10144000082808D10D48006820F46040216940EA6E
:10145000C1000A49086000F011F908490968C1F3A0
:101460000311074A515CC8400649086006480068F5
:10147000FFF770FE00204CE7003C024008380240B5
:101480004C7502080C0000200400002010B5FFF786
:1014900031FE04465748006840F001005549086095
:1014A00006E0FFF727FE001B022801D9032010BD2C
:1014B0005048006800F002000028F2D04D48006853
:1014C00040F080004B490860FFF714FE04460020FE
:1014D00048490831086008E0FFF70CFE001B41F2A4
:1014E0008831884201D90320E1E74248083000688A
:1014F00000F00C000028EFD1FFF7FCFD04463D484A
:10150000006820F450203B49086006E0FFF7F2FD38
:10151000001B642801D90320C9E73648006800F49D
:1015200000300028F2D1FFF7E5FD0446314800689D
:1015300020F080702F49086006E0FFF7DBFD001BFC
:10154000022801D90320B2E72A48006800F00070A1
:101550000028F2D1FFF7CEFD04462648006820F0AF
:1015600080602449086006E0FFF7C4FD001B0228E4
:1015700001D903209BE71F48006800F000600028A5
:10158000F2D11D481B49091D08601C4819498431C6
:10159000086018480C30006820F4F85015490C31E8
:1015A00008600846006820F400500860084600689B
:1015B00040F41F0008600846006840F4001008600E
:1015C0000C487430006820F001000A49743108604A
:1015D0000846006840F080700860094809490860C2
:1015E00009480068FFF7B6FD08B101205FE7002059
:1015F0005DE7000000380240103000040030002099
:101600000024F4000C000020040000200F220260DF
:101610000D4A126802F0030242600B4A126802F09F
:10162000F0028260084A126802F4E052C260064A80
:10163000126802F46042D2080261044A126802F0A1
:1016400007020A607047000008380240003C024070
:1016500001480068704700000C00002000B5FFF74B
:10166000F7FF04490968C1F34231034A515CC8409D
:1016700000BD0000083802405C7502082DE9F04703
:10168000002400250026A1462548006800F00C0033
:1016900020B1042805D008283AD105E0DFF884906D
:1016A00039E0DFF8849036E01D48001F006800F044
:1016B0003F041B48001F006800F4800078B11A48FE
:1016C0001749091F0968C1F38811A0FB0170014681
:1016D000224600233846FEF7D5FD05460EE01148A8
:1016E0000F49091F0968C1F38811A0FB0170014669
:1016F000224600233846FEF7C5FD05460848001F70
:101700000068C0F30140401C4600B5FBF6F902E05A
:10171000DFF8109000BF00BF4846BDE8F08700002A
:10172000083802400024F40040787D01F8B50446F2
:101730000CB90120F8BD207800F00100002874D019
:10174000F948006800F00C0004280DD0F648006845
:1017500000F00C00082813D1F348001F006800F4C3
:101760008000B0F5800F0BD1EF4808380068C0F357
:101770004040002859D06068002856D10120D9E7A0
:1017800000BF6068B0F5803F08D1E74808380068BE
:1017900040F48030E449083908601EE06068B0F524
:1017A000A02F0DD1E0480838006840F48020DE49C1
:1017B000083908600846006840F4803008600CE092
:1017C000D9480838006820F48030D74908390860C3
:1017D0000846006820F48020086000BF606890B16F
:1017E000FFF788FC054606E0FFF784FC401B6428F1
:1017F00001D903209EE7CC4808380068C0F3404078
:101800000028F1D011E0FFF775FC054606E0FFF770
:1018100071FC401B642801D903208BE7C2480838BB
:101820000068C0F340400028F1D1207800F00200A9
:1018300002285FD1BC48006800F00C0058B1BA48DB
:10184000006800F00C0008281CD1B748001F006891
:1018500000F48000B0B9B44808380068C0F3400014
:1018600020B1E068012801D0012063E7AE480838C4
:10187000006820F0F800216940EAC100AA4908394F
:10188000086037E0E06800B30120A8490860FFF76E
:1018900031FC054606E0FFF72DFC401B022801D96C
:1018A000032047E7A04808380068C0F3400000283C
:1018B000F1D09D480838006820F0F800216940EA1E
:1018C000C10099490839086014E000209749086070
:1018D000FFF710FC054606E0FFF70CFC401B022852
:1018E00001D9032026E7904808380068C0F340007B
:1018F0000028F1D1207800F0080008282CD1606978
:10190000A8B101208A490860FFF7F4FB054606E00C
:10191000FFF7F0FB401B022801D903200AE78248A9
:101920006C300068C0F340000028F1D014E00020C3
:101930007F490860FFF7DEFB054606E0FFF7DAFBAC
:10194000401B022801D90320F4E677486C30006878
:10195000C0F340000028F1D1207800F004000428F2
:1019600070D1002770483830006800F0805090B97E
:1019700000BF002000906C483830006840F0805074
:101980006949383108600846006800F080500090CE
:1019900000BF00BF01276748006800F48070B0B93D
:1019A0006448006840F4807062490860FFF7A2FB59
:1019B000054606E0FFF79EFB401B022801D90320E5
:1019C000B8E65C48006800F480700028F2D000BFE0
:1019D000A068012808D154486830006840F0010030
:1019E0005149683108601DE0A06805280DD14E48B6
:1019F0006830006840F004004B49683108600846D0
:101A0000006840F0010008600CE04748683000685A
:101A100020F001004449683108600846006820F061
:101A20000400086000BFA068A8B1FFF763FB05468B
:101A300009E0FFF75FFB401B41F28831884202D981
:101A4000032077E626E0384868300068C0F340009D
:101A50000028EED013E0FFF74DFB054608E0FFF746
:101A600049FB401B41F28831884201D9032061E6DD
:101A70002D4868300068C0F340000028EFD1012FE6
:101A800007D129483830006820F080502649383185
:101A9000086000BFA069002845D02348006800F016
:101AA0000C0008285DD0A069022845D100201F49FC
:101AB0000866FFF71FFB054606E0FFF71BFB401B10
:101AC000022801D9032035E6174808380068C0F31A
:101AD00040600028F1D1D4E907010843616A40EA77
:101AE00081110122A06AC2EB500041EA00412C2082
:101AF000005D41EA00600C49091F086001200B49A4
:101B00000866FFF7F7FA054606E0FFF7F3FA401B11
:101B1000022801D903200DE6034808380068C0F305
:101B200040600028F1D049E00838024000004742F8
:101B3000800E474200700040002021490866FFF7F0
:101B4000D9FA054606E0FFF7D5FA401B022801D96D
:101B50000320EFE51B480068C0F340600028F2D185
:101B60002CE0A069012800D1E4E51648001D0668B4
:101B7000A069012820D006F48001E06981421BD1D0
:101B800006F03F01206A814216D147F6C07030400E
:101B9000616AB0EB811F0FD106F440310122A06AC7
:101BA000C2EB5000B1EB004F06D106F070612C2063
:101BB000005DB1EB006F01D00120BBE50020B9E56D
:101BC000000047420038024010B504460CB901201D
:101BD00010BD606A38B96068B0F5827F00D105E059
:101BE0000021E16102E00021216161610021A16227
:101BF00094F8510028B9002084F85000204600F0E5
:101C000047F8022084F851002068006820F0400066
:101C100021680860A08800F48270218901F40441E1
:101C20000843A18901F400610843217C01F002010D
:101C30000843217D01F001010843218B01F400716B
:101C40000843217F01F0380108432021095D01F09C
:101C500080010843218D01F4005108432168086088
:101C60000421A06901EA104094F8241001F0100149
:101C70000843216848602068C06920F4006021683A
:101C8000C86100206065012084F8510000209FE7B2
:101C900010B586B00446142101A8FEF74BFB454958
:101CA000206888424ED100BF002000904248006862
:101CB00040F48040404908600846006800F48040D5
:101CC000009000BF00BF00BF002000903A481038CD
:101CD000006840F004003849103908600846006880
:101CE00000F00400009000BF00BF00BF0020009083
:101CF0000846006840F0020008600846006800F0EE
:101D00000200009000BF00BF0C2001900220029052
:101D100000200390032004900520059001A9274886
:101D2000FFF7E0F84FF4806001900220029000205D
:101D30000390032004900520059001A92048FFF797
:101D4000D1F834E01F492068884230D100BF00201C
:101D500000901948006840F40040174908600846A0
:101D6000006800F40040009000BF00BF00BF0020EA
:101D7000009011481038006840F004000E491039F6
:101D800008600846006800F00400009000BF00BF33
:101D90004FF4E050019002200290002003900320B5
:101DA00004900620059001A90448FFF79BF806B0AF
:101DB00010BD0000003800404038024000080240DA
:101DC00000040240003C00402DE9F84304468846E8
:101DD00016461D464FF0000994F85100012802D024
:101DE0004FF00209A8E06068B0F5827F0DD1A068CD
:101DF00058B9042084F851003346424641462046F3
:101E0000009500F07EF9BDE8F88300BF94F850001B
:101E1000012801D10220F6E7012084F8500000BF1C
:101E2000FFF768F90746B8F1000F00D016B94FF078
:101E3000010981E0042084F8510000206065C4F8A5
:101E40003880A687E6872063A086E08620646064E9
:101E5000A068B0F5004F0BD12068006820F040006A
:101E6000216808602068006820F4804021680860CC
:101E70002068006800F04000402805D02068006815
:101E800040F0400021680860E06810BB1DE0206859
:101E9000806800F0010050B12068007BA16B0870E1
:101EA000A06B401CA063E08F401EE0870DE0FFF7B1
:101EB00021F9C01BA84201D3681C00B92DB94FF00D
:101EC0000309012084F8510036E0E08F0028DED1BC
:101ED00021E01DE02068806800F0010050B120681A
:101EE000C068A16B0880A06B801CA063E08F401EBF
:101EF000E0870DE0FFF7FEF8C01BA84201D3681C85
:101F000000B92DB94FF00309012084F8510013E006
:101F1000E08F0028DED13A462946204601F01AF922
:101F200008B120206065606D10B14FF0010902E03A
:101F3000012084F8510000BF00BF002084F8500049
:101F400000BF48465FE72DE9F84F0446884616462D
:101F50001D464FF0000A00BF94F85000012802D13E
:101F60000220BDE8F88F012084F8500000BFFFF781
:101F7000C1F80746B14694F85100012802D04FF04D
:101F8000020AB7E0B8F1000F00D016B94FF0010A0D
:101F9000B0E0032084F8510000206065C4F8308070
:101FA000A686E686A063A087E08760642064A068B8
:101FB000B0F5004F0BD12068006820F04000216888
:101FC00008602068006840F480402168086020684C
:101FD000006800F04000402805D02068006840F00C
:101FE000400021680860E068B0F5006F32D1606899
:101FF00010B1B9F1010F09D1206B00882168C860C8
:10200000206B801C2063E08E401EE0861EE020686E
:10201000806800F0020002280AD1206B0088216845
:10202000C860206B801C2063E08E401EE0860DE0BF
:10203000FFF760F8C01BA84201D3681C00B92DB996
:102040004FF0030A012084F8510053E0E08E00288D
:10205000DDD131E0606810B1B9F1010F09D1206B19
:10206000007821680873206B401C2063E08E401EBE
:10207000E0861EE02068806800F0020002280AD195
:10208000206B007821680873206B401C2063E08E71
:10209000401EE0860DE0FFF72DF8C01BA84201D3DB
:1020A000681C00B92DB94FF0030A012084F85100D3
:1020B00020E0E08E0028DDD13A462946204601F096
:1020C00093F808B120206065A06850B900BF0020D7
:1020D00000902068C068009020688068009000BF71
:1020E00000BF606D10B14FF0010A02E0012084F8DA
:1020F000510000BF00BF002084F8500000BF5046D0
:102100002FE72DE9FF5F0446884691461D460E9E47
:10211000012002900020019000BF94F85000012897
:1021200003D1022004B0BDE8F09F012084F85000E4
:1021300000BFFEF7DFFF074694F851B060680390D8
:10214000AA46BBF1010F0BD00398B0F5827F04D1F2
:10215000A06810B9BBF1040F02D002200190E9E0A1
:10216000B8F1000F03D0B9F1000F00D015B901206C
:102170000190DFE094F85100042802D0052084F893
:10218000510000206065C4F83890E587A587C4F841
:102190003080E586A586206460642068006800F0D1
:1021A0004000402805D02068006840F040002168C9
:1021B0000860E068B0F5006F4DD1606810B1BAF109
:1021C000010F09D1206B00882168C860206B801C3A
:1021D0002063E08E401EE08636E02068806800F0D4
:1021E0000200022810D1E08E70B1029801280BD1B4
:1021F000206B00882168C860206B801C2063E08E03
:10220000401EE086002002902068806800F00100F7
:1022100068B1E08F58B12068C068A16B0880A06BDE
:10222000801CA063E08F401EE08701200290FEF733
:1022300061FFC01BB04207D3701C28B1032001907E
:10224000012084F8510075E0E08E0028C5D1E08FB0
:102250000028C2D14DE0606810B1BAF1010F09D178
:10226000206B007821680873206B401C2063E08E8F
:10227000401EE08637E02068806800F002000228F7
:1022800010D1E08E70B1029801280BD1206B00783C
:1022900021680873206B401C2063E08E401EE0869E
:1022A000002002902068806800F0010068B1E08F93
:1022B00058B12068C068A16B0870A06B401CA06377
:1022C000E08F401EE08701200290FEF713FFC01B45
:1022D000B04201D3701C00B92EB903200190012037
:1022E00084F8510026E0E08E0028C4D1E08F002859
:1022F000C1D13A463146204600F076FF20B1012098
:1023000001902020606515E0A06850B900BF002052
:1023100000902068C068009020688068009000BF2E
:1023200000BF606D10B10120019002E0012084F82F
:10233000510000BF00BF002084F8500000BF01988A
:10234000F0E670477047000030B502460B4600BF0C
:1023500092F83C00012801D1022030BD012082F812
:102360003C0000BF022082F83D00106844681068FD
:10237000816824F070041868044310684460184DA4
:102380001068A8421BD01068B0F1804F17D0154DCF
:102390001068A84213D0144D1068A8420FD0134DF6
:1023A0001068A8420BD0124D1068A84207D0114DFA
:1023B0001068A84203D0104D1068A84205D121F042
:1023C00080015868014310688160012082F83D0057
:1023D00000BF002082F83C0000BF00BFBDE7000046
:1023E000000001400004004000080040000C0040D4
:1023F00000040140004001400018004010B50446B0
:102400000CB9012010BD94F83D0028B9002084F8D3
:102410003C00204600F026F8022084F83D00211DF3
:10242000206801F0E5F8012084F8460000BF84F838
:102430003E0001213F20015540200155412001551A
:1024400000BF00BF012084F8420043200155442012
:1024500001554520015500BF012084F83D000020B2
:10246000D0E7000038B504462068B0F1804F17D19E
:1024700000BF002000900B48006840F001000949AF
:1024800008600846006800F00100009000BF00BF2F
:10249000002207211C20FEF7E5FE1C20FEF7CEFEE1
:1024A00038BD000040380240014691F83D00012847
:1024B00001D001207047022081F83D000868C06803
:1024C00040F001000B68D8601A4B086898421BD096
:1024D0000868B0F1804F17D0174B0868984213D0A6
:1024E000164B086898420FD0154B086898420BD0DD
:1024F000144B0868984207D0134B0868984203D0E1
:10250000124B086898420CD10868806800F00702F6
:10251000062A0CD00868006840F001000B681860BB
:1025200005E00868006840F001000B6818600020B2
:10253000C0E7000000000140000400400008004027
:10254000000C004000040140004001400018004021
:102550002DE9F04104460D46002700BF94F83C00E9
:10256000012802D10220BDE8F081012084F83C005E
:1025700000BF022084F83D002068866826F07706B8
:1025800026F47F46206886602868502833D00CDC0B
:10259000202850D004DC00284BD0102851D149E02D
:1025A000302849D040284CD139E060282DD07028FF
:1025B00007D0B0F5805F03D0B0F5005F41D10DE0EA
:1025C00041E0D5E902136A68206801F085F82068C7
:1025D000866846F077062068866034E0D5E9021305
:1025E0006A68206801F078F82068806840F48040CC
:1025F0002168886027E0EA686968206801F080F84F
:102600005021206801F073F81DE0EA6869682068CD
:1026100001F089F86021206801F069F813E0EA68A8
:102620006968206801F06CF84021206801F05FF8CB
:1026300009E000BF00BF00BF2968206801F057F81B
:1026400001E0012700BF00BF012084F83D0000BF6A
:10265000002084F83C0000BF384684E7704770B51E
:1026600004462068C5682068066906F00200022852
:1026700019D105F00200022815D1401F2168086118
:10268000012020772068806900F0030018B12046FF
:10269000FFF7E4FF05E0204600F097F8204600F041
:1026A00095F80020207706F00400042819D105F0E1
:1026B0000400042815D1C043216808610220207756
:1026C0002068806900F4407018B12046FFF7C6FF0B
:1026D00005E0204600F079F8204600F077F8002069
:1026E000207706F00800082819D105F0080008280E
:1026F00015D1C04321680861042020772068C06993
:1027000000F0030018B12046FFF7A8FF05E02046BF
:1027100000F05BF8204600F059F80020207706F022
:102720001000102819D105F01000102815D1C04351
:1027300021680861082020772068C06900F4407093
:1027400018B12046FFF78AFF05E0204600F03DF86B
:10275000204600F03BF80020207706F0010048B149
:1027600005F0010030B16FF00100216808612046DA
:1027700000F02EF806F08000802809D105F08000D6
:10278000802805D1C043216808612046FFF7D9FDA4
:1027900006F04000402809D105F04000402805D14E
:1027A000C04321680861204600F026F806F02000AA
:1027B000202809D105F02000202805D1C043216838
:1027C00008612046FFF7BEFD70BD704770470000EE
:1027D00010B5044606492068884201D1FEF790FCF6
:1027E0002068B0F1804F02D102480068804710BDD8
:1027F0000000014098000020704700BFFEE710B5C0
:1028000001F098FB02F02DFB10BD70B504460D469B
:10281000164632462146284602F02EFB012801D1F9
:10282000002070BD0120FCE770B504460D46164639
:1028300032462146284602F05EFB012801D10020E5
:1028400070BD0120FCE72DE9F04705460F46144610
:102850004FF00008C146C24600262846E91705EB9E
:10286000D1614911A5EB411101F0FF0ACAF1200025
:10287000C6B22046E11704EBD161C1F34718E11756
:1028800004EBD1614911A4EB411101F0FF09BAF148
:10289000000F28D1B8F1000F07D14A463946284623
:1028A000FFF7C2FFFEF7DFFA62E00AE020223946B6
:1028B0002846FFF7B9FFFEF7D6FA05F1200085B2EA
:1028C0002037B8F10000A8F1010101F0FF08EDD1B7
:1028D000B9F1000F4CD04A4639462846FFF7A4FF0D
:1028E000FEF7C1FA44E0B4420BDA4FF0000804F0FE
:1028F000FF094A4639462846FFF796FFFEF7B3FA26
:1029000036E0A01B84B22046E11704EBD161C1F38D
:102910004718E11704EBD1614911A4EB411101F013
:10292000FF09324639462846FFF77EFFFEF79BFA3D
:10293000A81985B237440AE0202239462846FFF715
:1029400073FFFEF790FA05F1200085B22037B8F149
:102950000000A8F1010101F0FF08EDD1B9F1000F6D
:1029600006D04A4639462846FFF75EFFFEF77BFA57
:10297000BDE8F08770B504460D462CB1204603F043
:1029800089FE084803F010FE074805804FF44270A6
:1029900001F01AF928B1002001F064FB002001F0D9
:1029A000F5FA70BD848800208201002000B58BB04C
:1029B0002E48006820B9042003F0E6FF2B49086088
:1029C0002B492C4803F03AF900F060F803F002FBC1
:1029D00029A103C9CDE9090127A103C9CDE907014F
:1029E00007A909A803F00EFE4FF4FB70009069469A
:1029F00001A800F0B7FA224800788DF804002048BA
:102A000040788DF805001E4880788DF806001C4837
:102A1000C0788DF807001A4800798DF8080018482A
:102A200040798DF8090001208DF81A0007214FF434
:102A3000C85001F049F9D021480101F045F90321BE
:102A40004FF4D85001F040F90A2142F6087001F025
:102A50003BF901A803F01EFE0A4803F0A5FDBDF8EE
:102A60000000094908800BB000BD0000840100206F
:102A7000B13B0208953B0208080800000000000076
:102A80007C010020848800208201002010B50022F3
:102A900040210748FEF728FB3220FEF70FFA0122FB
:102AA00040210348FEF720FBC820FEF707FA10BDBF
:102AB0000008024030B504460B460C2C01DB1846DA
:102AC00030BD04EB44002C4D05EB80012B4A9FEDFB
:102AD0002C0A4868984224DDD1E90050A84201D16F
:102AE0001068EDE7D2E90050401B01EE100AF8EE45
:102AF000C11AD1E90050401B01EE100AB8EEC11A0C
:102B0000C1EE810A92ED001AB8EEC11A0868181ACF
:102B100001EE900AF8EEE11A00EEA11AB0EE410AB9
:102B200024E0D1E90150A84201D15068C8E7D2E9B8
:102B30000150401B01EE100AF8EEC11AD1E9015014
:102B4000401B01EE100AB8EEC11AC1EE810A92EDE7
:102B5000011AB8EEC11A4868181A01EE900AF8EE88
:102B6000E11A00EEA11AB0EE410A00BFFDEEC00A64
:102B700010EE900AA4E70000EC8E00207C7502089D
:102B80000000000070B504460D460CB9012000E0BD
:102B9000002002464FF480710648FEF7A5FA0DB9F1
:102BA000012000E00020024680210248FEF79CFA46
:102BB00070BD00000010024010B503F065FA00205F
:102BC000034908800349088003F070FA10BD000033
:102BD0002E0100203001002000B587B0142102A88A
:102BE000FDF7A8FB00BF002001905848006840F0A6
:102BF0008000564908600846006800F08000019097
:102C000000BF00BF00BF002001900846006840F0F0
:102C1000040008600846006800F00400019000BF4E
:102C200000BF00BF002001900846006840F010007F
:102C300008600846006800F01000019000BF00BF67
:102C400000BF002001900846006840F002000860C4
:102C50000846006800F00200019000BF00BF00BFFE
:102C6000002001900846006840F00800086008460F
:102C7000006800F00800019000BF00BF00BF002006
:102C800001900846006840F00100086008460068AE
:102C900000F00100019000BF00BF012210212C486C
:102CA000FEF722FA01224FF4C0712A48FEF71CFAFF
:102CB00000224FF420612848FEF716FA012243F65D
:102CC0009F712648FEF710FA002240212048FEF7A7
:102CD0000BFA502002900120039000200490022063
:102CE000059002A91A48FEF7FDF84FF4C070029053
:102CF0000120039000200490059002A91548FEF7DA
:102D0000F1F84FF4806002900020039001200490BD
:102D100002A91048FEF7E6F84FF420600290012067
:102D2000039000200490059002A90B48FEF7DAF802
:102D300043F69F70029001200390049003200590B9
:102D400002A90648FEF7CEF807B000BD30380240B1
:102D5000000802400010024000040240000C024043
:102D600010B50E480E4908604FF48270486000218B
:102D70000B488160C160016141614FF40071816164
:102D80000821C16100210162416281620A21C162A0
:102D9000FEF71AFF08B1FEF773F810BD00380040C7
:102DA0009C88002010B50E480E4908604FF48270D0
:102DB000486000210B488160C160016141614FF4AE
:102DC000007181612821C16100210162416281623B
:102DD0000A21C162FEF7F8FE08B1FEF751F810BDF6
:102DE000003C0040F488002000B587B0002003902C
:102DF000049005900690019002904FF08040144995
:102E00000860532048600021114881603121C16071
:102E10000021016180218161FFF7F0FA08B1FEF71E
:102E20002FF84FF48050039003A90948FFF790FB57
:102E300008B1FEF725F800200190029001A904488E
:102E4000FFF782FA08B1FEF71BF807B000BD0000DB
:102E50004C89002000BFFEE700BFFEE730B5024608
:102E60000B464FF6FF7016E012F8015B80EA052072
:102E700000210EE000F400442CB141F2210484EA68
:102E80004004A0B203E04FF6FF7404EA40004C1C7B
:102E9000A1B20829EEDB1C1EA3F10105ABB2E3D100
:102EA00030BD000010B5044624212046FDF742FA4B
:102EB0000F48206001202071C0202072A82161727B
:102EC0000021A172EA21E172FF202073FF216173CA
:102ED000A1730021E173C0202074A8216174002136
:102EE000A1740121E1744FF4FB70608310BD0000F8
:102EF0003154454E30B589B004460D466846FFF75B
:102F0000D1FF4CB317212046FDF714FA9DF80800B5
:102F1000A0719DF80910E1719DF80A1021729DF8C9
:102F20000B1061729DF80C00A0729DF80D10E172FB
:102F30009DF80E1021739DF80F1061739DF810001D
:102F4000A0739DF81110E1739DF8121021749DF883
:102F5000131061740120A07515B1BDF81A00288006
:102F600009B030BD70B58AB004460D4604B10DB944
:102F70000AB070BD4FF480612248FEF7ADF80646F6
:102F8000FFF73DFC26B929462046FFF7B3FF36E0A0
:102F900001A800F039F868B317212046FDF7CAF9F7
:102FA0009DF80C00A0719DF80D10E1719DF80E10B8
:102FB00021729DF80F1061729DF81000A0729DF8AB
:102FC0001110E1729DF8121021739DF813106173B6
:102FD0009DF81400A0739DF81510E1739DF816106C
:102FE00021749DF8171061740120A075BDF81E00B2
:102FF000288003E029462046FFF77CFF00BF00BF82
:10300000B6E700000010024070B504460CB900207D
:1030100070BD242221460020FFF7F7FB08B10020F5
:10302000F6E720680949884202D12079012801D0B9
:103030000020EDE722212046FFF710FF0546608CB7
:10304000A84201D00020E3E70120E1E73154454EDA
:103050002DE9F0418AB005460E4617461C46DDF8BC
:10306000408001A8FFF71EFF5DB128788DF80C00A5
:1030700069788DF80D10A9788DF80E10E9788DF823
:103080000F105EB130788DF8100071788DF8111046
:10309000B1788DF81210F1788DF813105FB138788F
:1030A0008DF8140079788DF81510B9788DF8161010
:1030B000F9788DF817108CB120788DF818006178A8
:1030C0008DF81910A1788DF81A10E1788DF81B1081
:1030D00021798DF81C1061798DF81D10ADF81E80D6
:1030E00001A800F003F80AB0BDE8F08110B58AB07D
:1030F000044614B900200AB010BD2422214601A8BC
:10310000FDF7F1F8222101A8FFF7A8FEADF826008F
:10311000242201A90020FFF796FB0120EBE7000025
:1031200010B588B01822094902A8FDF7DCF84FF461
:10313000FB7402AB0DF11602111F081F0094FFF77C
:1031400087FF01200249087008B010BD64750208AD
:1031500088010020F8B504460E4615466068B0F5B3
:10316000827F0DD1A068B0F5004F03D0A068B0F504
:10317000806F05D12068006820F040002168086059
:103180006068B0F5827F1FD1A068B0F5806F0DD068
:103190003346002280212046009500F069F808B3EC
:1031A000606D40F0200060650320F8BD33460022CA
:1031B00001212046009500F05BF898B1606D40F069
:1031C000200060650320F0E73346002201212046FD
:1031D000009500F04DF828B1606D40F0200060656A
:1031E0000320E2E70020E0E77CB504460E461546E2
:1031F0003346012202212046009500F039F828B11B
:10320000606D40F02000606503207CBD16480068BA
:103210001821B0FBF1F01549B0FBF1F04FF47A71D1
:10322000484301906068B0F5827F0DD1334600229B
:1032300080212046009500F01BF898B1606D40F0A9
:10324000200060650320E0E700BF019800B908E0B6
:103250000198401E019020688068C0F3C0100028CB
:10326000F3D100BF0020D0E70C00002040420F0047
:103270002DE9F84F04460D4690461E46DDF828908D
:10328000FDF738FFA0EB0900371AFDF733FF824640
:103290002C480068C0F3CB307843009045E0701CA8
:1032A000002842D0FDF726FFA0EB0A00B84200D26A
:1032B000A7BB2068406820F0E00021684860606893
:1032C000B0F5827F0DD1A068B0F5004F03D0A068A3
:1032D000B0F5806F05D12068006820F040002168BB
:1032E0000860A06AB0F5005F0DD100BF20680068DB
:1032F00020F40050216808602068006840F4005005
:103300002168086000BF012084F8510000BF002040
:1033100084F8500000BF0320BDE8F88FFFE7009855
:1033200000B900270098401E00902068806828405F
:10333000A84201D1012000E000204045AFD100208B
:10334000EAE700000C00002010B50446012C05D16E
:103350000022C1020448FDF7C7FE04E00122D102A9
:103360000148FDF7C1FE10BD000C024010B5044637
:10337000012C05D1002201030448FDF7B5FE04E04D
:10338000012211030148FDF7AFFE10BD000C024001
:1033900010B50446012C05D1002241030448FDF775
:1033A000A3FE04E0012251030148FDF79DFE10BD7C
:1033B000000C024010B50446012C05D10022012169
:1033C0000448FDF791FE04E0012211460148FDF793
:1033D0008BFE10BD000C024010B50446012C05D137
:1033E000002202210448FDF77FFE04E001220221B1
:1033F0000148FDF779FE10BD000C024010B50446EF
:10340000012C05D1002204210448FDF76DFE04E0E3
:10341000012204210148FDF767FE10BD000C0240A7
:1034200010B50446012C05D1002208210448FDF7FF
:103430005BFE04E0012208210148FDF755FE10BDA6
:10344000000C024010B50446012C05D100221021C9
:103450000448FDF749FE04E0012210210148FDF770
:1034600043FE10BD000C024010B50446012C05D1EE
:10347000002280210448FDF737FE04E0012280216C
:103480000148FDF731FE10BD000C024010B50446A6
:10349000012C05D1002201020448FDF725FE04E0BD
:1034A000012211020148FDF71FFE10BD000C024071
:1034B00010B50446012C05D1002241020448FDF755
:1034C00013FE04E0012251020148FDF70DFE10BD7C
:1034D000000C024010B50446012C05D100228102E7
:1034E0000448FDF701FE04E0012291020148FDF7C6
:1034F000FBFD10BD000C024010B503F04BFD012890
:1035000001D003F027FA10BD00B593B0302107A811
:10351000FCF710FF142102A8FCF70CFF00BF0020ED
:1035200001902448006840F0805022490860084615
:10353000006800F08050019000BF00BF00BF002075
:1035400001901D48006840F480401B49086008460F
:10355000006800F48040019000BF00BF0120079088
:103560000004089002200D9041050E9119210F9141
:103570004FF4A8711091022111910421129107A812
:10358000FEF7D4F808B1FDF77BFC0F200290022073
:103590000390002004904FF4A05005904FF4805009
:1035A0000690052102A8FDF7AFFE08B1FDF768FC03
:1035B00013B000BD4038024000700040034800686E
:1035C00040F47000014908607047000088ED00E099
:1035D00010B50248FFF743F810BD000094890020A1
:1035E00010B50248FFF73BF810BD00004C890020E1
:1035F00010B502682D4B98420ED0B0F1804F0BD021
:103600002B4B984208D02B4B984205D02A4B98421E
:1036100002D02A4B984203D122F070024B681A4321
:10362000224B984220D0B0F1804F1DD0204B9842C1
:103630001AD0204B984217D01F4B984214D01F4BE2
:10364000984211D01E4B98420ED01E4B98420BD080
:103650001D4B984208D01D4B984205D01C4B9842F8
:1036600002D01C4B984203D122F44072CB681A431B
:1036700022F080034C6943EA040202608B68C36253
:103680000B688362094B984202D00C4B984201D1DF
:103690000B69036301234361036903F001031BB159
:1036A000036923F00103036110BD00000000014025
:1036B0000004004000080040000C004000040140ED
:1036C0000040014000440140004801400018004013
:1036D000001C00400020004030B50C46816821F4F9
:1036E0007F4142EA032525432943816030BD0A46D4
:1036F000816821F0700142F007031943816070472F
:1037000030B50B461446026A056A25F001050562CC
:10371000816921F0F00141EA041122F00A021A4302
:103720008161026230BD30B50B461446026A056AFB
:1037300025F010050562816921F4704141EA0431E8
:1037400022F0A00242EA03128161026230BD000051
:103750009EB04FF4FA7002F0EBFC00201D900025A3
:10376000ADF80800ADF80A004FF44C50ADF80C006D
:1037700001208DF80E0004208DF80F0030208DF808
:10378000100003F017FC019043E0002424E0E0B2B5
:103790001DA9FDF7B9F8054611A840F824501DB140
:1037A000E0B21D99FDF7CAF91A48007898B11A4A93
:1037B00002EB04129168A0000B0E0DF111021354DC
:1037C000C1F30746431CD654C1F30726831CD654C5
:1037D000C31CD15400BF641C0C2CD8DB0D480078EE
:1037E00088B14FF4427000F0EFF917280BD102F0C6
:1037F0004BFC392202A90948FCF775FD0120084954
:10380000087002F053FC00BF012101A803F082FB05
:1038100000BFBAE7A60100202C8E0020DC89002022
:1038200098010020642002F083FC00BF1F4800784C
:1038300030B101280CD0022812D003282CD117E077
:1038400000210120FFF79EF9C82002F071FC2CE056
:1038500001210020FFF796F9C82002F069FC24E05E
:1038600001210846FFF78EF9C82002F061FC1CE038
:1038700000210120FFF786F9642002F059FC0B4873
:103880000078032800D010E000210846FFF77AF9FD
:10389000642002F04DFC08E000210846FFF772F9B1
:1038A0004FF4FA7002F044FC00BFBFE7A50100200E
:1038B0009EB000BF0026FFF779F808A909A8FFF716
:1038C00051FBBDF8200010B94FF4FB7001E0BDF8CA
:1038D0002000A54908800846018809A8FFF74AF892
:1038E00002F06AFF08B900BFFEE79F48008801F0B8
:1038F00033FA04460CB100BFFEE700F011FC0446A9
:103900000CB100BFFEE701209849087000BF4FF4DA
:1039100080619748FDF7E0FBF8B99648006820B948
:10392000FDF7E8FB934908601CE0FDF7E3FB9149D4
:103930000968401AB0F57A7F14D98F48007888B9A1
:1039400003208A49087040F2DC5002F0F1FBFFF7D7
:10395000E7FB01208849087004E0002085490860E1
:103960008549087085480078E8B1002083490870CF
:1039700001A902A8FFF7F6FABDF8040020B1BDF8CE
:1039800004007949088003E04FF4FB707649088011
:103990007548018802A8FEF7EDFFFFF70DF90A2030
:1039A00002F0C6FBB3E74FF4427000F00DF9054694
:1039B000172D06D102206D4908700020704908605B
:1039C0001FE06A480078022815D16D48006818B9D0
:1039D00003F0F0FA6A49086003F0ECFA68490968F4
:1039E000401AB0F57A7F0CD96048007848B10120C0
:1039F0005E49087005E05D48007810B101205B4920
:103A00000870182D79D007DC7DB1132D22D0142D2C
:103A100024D0172D72D125E01A2D70D01B2D7FD008
:103A20001C2D6FD01D2DF5D17BE0FFF7C5F84E485A
:103A3000008818B94FF4FB704B49088000234A48AE
:103A400002880121184602F0FBF910B1642002F04F
:103A50006FFB73E0002001F01BFC6FE00A2002F016
:103A600067FB6BE00220414908704648007878B354
:103A7000002001F0BDFA0746392F18D3002602F0C6
:103A800003FB3C2240490FA8FCF72DFC00203D49D8
:103A9000087002F00BFB4FF4427000F095F8172805
:103AA00017D139220FA9002002F00AF911E01EB93E
:103AB00003F080FA06460CE003F07CFA801B40F627
:103AC000B831884205D9002000F060FA00261EE7D0
:103AD00000E000BF002001F055FA002802DD0120BF
:103AE00002F07CFE00F0C0FD4FF0805027490860D6
:103AF000BFF34F8FBFF36F8F20E00FE01AE00EE0AF
:103B00000EE0FFE7002000F0ADFA002000F03EFAE2
:103B1000FFF752F80120154908700FE000BF00BF01
:103B200000BF002000F032FAFFF746F801200F49ED
:103B3000087003E00A2002F0FBFA00BF00BF114842
:103B4000007838B9002001F01DFA18B9012002F000
:103B5000EFFA07E04FF080500C490860BFF34F8F39
:103B6000BFF36F8FD3E6000082010020A501002083
:103B700000100240A0010020A401002088010020C4
:103B80009C01002098010020DC89002004ED00E069
:103B900000BFFEE710B50548006828B14FF0FF31BF
:103BA0000248006803F036F910BD000084010020CF
:103BB00010B50448006818B10248006802F0F8FF28
:103BC00010BD00008401002038B504461A49C868B9
:103BD000804719494869804700BF1748406A10B1BB
:103BE0001548806A70B91448016AC4F307408847D1
:103BF0001148016AC4F307208847E0B20E4A116AEF
:103C000088470DE0200C8DF80000200A8DF8010097
:103C1000E0B28DF8020008480321826A68469047A6
:103C20000549C869804705460349886980470249B4
:103C300008698047284638BD40010020F8B5044691
:103C40000E4617461F49C86880471E494869804785
:103C500000BF1C48406A10B11A48806AC0B91948B0
:103C6000016AC4F3074088471648016AC4F3072075
:103C70008847E0B2134A116A8847002505E01149D8
:103C8000C86980477055681C85B2BD42F7DB12E0F9
:103C9000200C8DF80000200A8DF80100E0B28DF8AC
:103CA000020008480321826A684690470548394661
:103CB000426A30469047034988698047014908694C
:103CC0008047F8BD4001002038B504460D461A492A
:103CD000C868804718494869804744F0040416487A
:103CE000806A90B91448016AC4F3074088471248B3
:103CF000016AC4F307208847E0B20F4A116A884777
:103D00000D48016A284688470FE0200C8DF8000016
:103D1000200A8DF80100E0B28DF802008DF8035002
:103D200005480421826A68469047034988698047AC
:103D300001490869804738BD40010020F8B50446B4
:103D40000E4617461E49C86880471D494869804786
:103D500044F004041A48806AC0B91948016AC4F3DF
:103D6000074088471648016AC4F307208847E0B235
:103D7000134A116A8847002505E0705D104A116AF0
:103D80008847681C85B2BD42F7DB12E0200C8DF835
:103D90000000200A8DF80100E0B28DF8020008480A
:103DA0000321826A6846904705483946826A304650
:103DB0009047034988698047014908698047F8BDF1
:103DC0004001002070B50446142000F02FF90120B6
:103DD000616A8847012000F029F9FCF711FE4FF0D5
:103DE00000510320FCF730FE322000F01FF90021C3
:103DF0000320FCF729FE0026002500BF0B20FCF75E
:103E0000EDFD06466D1CB5F57A7F01D3002070BD2F
:103E1000102000EA16600028F0D16078032818D13D
:103E20004D20FCF7DBFD0546681C60B90B20FCF754
:103E3000D5FD0546681C18B900202075607004E0A7
:103E40000120607001E0022060702046FFF7BAFF99
:103E5000DDE72046FCF7B6FF0A2000F0F4F8A17970
:103E6000C031C8B2FCF7DAFD0020616A8847012042
:103E700000F0E9F80120CAE702480068C0F3022018
:103E8000704700000CED00E010B5002804DB0A07C5
:103E9000130E054A135406E00A07140E034A00F0F5
:103EA0000F031B1FD45410BD00E400E018ED00E028
:103EB00002E008C8121F08C1002AFAD170477047F3
:103EC000002001E001C1121F002AFBD17047000051
:103ED00070B5002413E004EB8400154901EBC00029
:103EE000806950B104EB84020B4603EBC20004EB83
:103EF000840203EBC20291698847601CC4B20C2C97
:103F0000E9D3002411E004EB8400094901EBC0006F
:103F1000007D40B104EB8401054A02EBC100FFF7CC
:103F200051FF054600BF601CC4B20C2CEBD370BD22
:103F3000AC01002000B587B000BF002001901148FF
:103F4000006840F002000F4908600846006800F071
:103F50000200019000BF00BF0120059011200390D6
:103F60004815029002A90848FCF7BCFF4FF4006016
:103F7000029002A90448FCF7B5FF01F04BF907B025
:103F800000BD0000303802400004024010B5044675
:103F900000BF082C02DD4FF0FF3010BD00BFA100B4
:103FA000491C4FF4807202EBC1001021FFF78CFE18
:103FB00000BFA100491C4FF4807202EBC100FFF763
:103FC00003FE0028F5D1A100491C4FF4007202EB5A
:103FD000C1001F21FFF778FE0120A0400F4909888A
:103FE00081430E4801800120A0400D49098881438A
:103FF0000B48018000200B4921F814000A4908559C
:1040000000BFA100491C4FF4407202EBC100FFF752
:10401000DBFD0028F5D10120BFE7000034010020BE
:1040200036010020748800203801002010B50446B5
:1040300003E04FF4487000F006F8201EA4F10101DF
:104040008CB2F6D110BD06E0082100BF0A1EA1F116
:10405000010399B2FAD1021EA0F1010398B2F3D183
:104060007047000010B5044600BF082C02DD4FF079
:10407000FF3010BD00BF00BFA100491C002202EBB1
:10408000C100FFF7A1FD00F00F00012802D06FF082
:104090000400EEE700BFA100491C4FF4807202EB60
:1040A000C1000821FFF710FE00BFA100491C4FF41A
:1040B000807202EBC100FFF787FD0028F5D10120D7
:1040C000A040154909888143134801800120A04080
:1040D00012490988084008B10020CAE710E0A10091
:1040E000491C4FF4007202EBC100FFF76DFD00F0B8
:1040F000080028B12046FFF749FF6FF00C00B8E731
:10410000A100491C4FF4407202EBC100FFF75CFDB7
:104110000028E4D10120ACE7360100203401002062
:1041200010B5002406480078012806D1054800682B
:10413000804700200249087000E00624204610BD98
:104140007A000020800000202DE9F05F06460D4631
:104150004FF0000B2888052848D170784FEA0029D5
:10416000B07840EA090909F101001FFA80F9F078F6
:10417000040230790443012C35DBB4F5FA6F32DAEE
:10418000374600202880012007F8010B2888401CB2
:10419000288004F0070040B12046E11704EB51717C
:1041A000C910491C01F0FF0805E02046E11704EBA7
:1041B0005171C1F3C70807F8018B2888401C28807B
:1041C000002322464946384600F0EAFA8246BAF110
:1041D000000F04D0504601F0F7FB834608E0288822
:1041E0004044288004E04FF0030B01E04FF0030B44
:1041F0005846BDE8F09F2DE9F05F06460D464FF0AA
:10420000000B2888052847D170784FEA0029B0783C
:1042100040EA090909F101001FFA80F9F078040267
:1042200030790443012C34DBB4F5FA6F31DA3746C8
:1042300000202880022007F8010B2888401C2880D5
:1042400004F0070040B12046E11704EB5171C9109A
:10425000491C01F0FF0805E02046E11704EB51710D
:10426000C1F3C70807F8018B2888401C2880224624
:104270004946384600F0D2FA8246BAF1000F04D01F
:10428000504601F0A1FB834608E02888404428807E
:1042900004E04FF0030B01E04FF0030B5846BDE87C
:1042A000F09F2DE9F04705460C464FF0000A2088A4
:1042B000052837D168784FEA0028A87840EA08082E
:1042C00008F101001FFA80F8E87806022E79012E25
:1042D00025DB7D2E23DC2F4600202080032007F8DD
:1042E000010B2088401C20807006000E07F8010B8F
:1042F0002088401C2080002332464146384600F08A
:1043000091FA8146B9F1000F04D0484601F05CFBF8
:10431000824609E0208800EB4600208004E04FF050
:10432000030A01E04FF0030A5046BDE8F0872DE98B
:10433000F04705460C464FF0000A2088052837D183
:1043400068784FEA0028A87840EA080808F10100D8
:104350001FFA80F8E878060228790643012E24DB4C
:104360007D2E22DA2F4600202080042007F8010B42
:104370002088401C20807006000E07F8010B208862
:10438000401C208032464146384600F053FC8146AE
:10439000B9F1000F04D0484601F016FB824609E04F
:1043A000208800EB4600208004E04FF0030A01E083
:1043B0004FF0030A5046BDE8F0872DE9FC5F044644
:1043C0000D460020009028880A285DDB60784FEABF
:1043D000002AA07840EA0A0A0AF101001FFA80FACE
:1043E000E07806022079064360794FEA002BA07935
:1043F00040EA0B0B0BF101001FFA80FBE07907028A
:10440000207A0743607A0190012E3BDB7D2E39DC58
:10441000012F37DB792F35DC79000198814231D1CA
:1044200001233A46594604F10A0000F0FBF981469F
:10443000B9F1000F1ED1A04600202880172008F8EF
:10444000010B2888401C28807006000E08F8010B1C
:104450002888401C2880002332465146404600F000
:10446000E1F98146B9F1000F04D12888022101FB4E
:1044700006002880B9F1000F06D0484601F0A4FAE2
:10448000009001E0032000900098BDE8FC9F000030
:1044900070B505460C46064802880649681CFBF7BD
:1044A00022FF03480088401C2080002070BD0000CF
:1044B00070000020548400202DE9F84304460F4684
:1044C0004FF000083888052829D160780502A078C7
:1044D0000543681C85B22079F0B9E078FF2801D047
:1044E000E078C8B900208DF80100E078FF2803D1FA
:1044F00001208DF8000002E000208DF8000001236B
:104500001A462946684600F04BF906464EB1304639
:1045100001F05AFA804604E04FF0030801E04FF042
:1045200003084046BDE8F8832DE9F04104460F46F4
:104530004FF000083888052812D160780502A0786D
:104540000543681C85B201231A462946E01C00F089
:1045500069F9064636B1304601F036FA804601E088
:104560004FF003084046BDE8F0812DE9F05F0546B5
:104570000E464FF0000B3088052839DD68780702B9
:10458000A8780743781C87B2E878040228790443A6
:1045900095F805A004F0070040B12046E11704EBB0
:1045A0005171C910491C01F0FF0805E02046E117D0
:1045B00004EB5171C1F3C708012C16DBB4F5F66F9B
:1045C00013DCD04511D1012322463946A81D00F045
:1045D000E7F88146B9F1000F04D0484601F0F4F93C
:1045E000834607E00520308004E04FF0030B01E034
:1045F0004FF0030B5846BDE8F09F2DE9F047044605
:104600000E464FF0000A3088062828DB6078070243
:10461000A0780743781C87B2E0780502207905432B
:1046200094F80590012D17DB782D15DC6806000E37
:10463000484511D101232A463946A01D00F0F2F861
:104640008046B8F1000F04D0404601F0BDF9824623
:1046500007E00520308004E04FF0030A01E04FF04E
:10466000030A5046BDE8F08738B500254148007878
:1046700008B1062038BD684602F08EF8012877D1CF
:104680009DF8000030B1012805D0022818D0032879
:104690006DD16BE06BE0384A38493948394B1B68BB
:1046A000984705465DB93648007837490978884209
:1046B00002D03348007810B9022002F08FF856E09B
:1046C0002E48006800783149087001203049087090
:1046D000002417E02F4810F8340000B914E02D48EA
:1046E00010F834002949097888420AD1294800EB9A
:1046F000C400214942682148006890472449087055
:1047000002E0641C102CE5DB00BF1D48007858B3A4
:104710001F480078C8B10020174908801B4800785E
:1047200040F08001144802880088401C124B188019
:10473000124800688154164802781846018800889B
:10474000401C18800D480068425413480078012826
:1047500000D100BF08480288084801680A4800786C
:104760000E4B1B689847054601E001E000BF00BF03
:1047700000207FE77A0000202A0100202401002089
:104780002801002088000020780000202901002056
:104790002C010020A4000020790000207C000020D3
:1047A0002DE9FC5F80460C46154699460020019095
:1047B000012C2EDB60190D282BDC661EB9F1010FD0
:1047C0001ED1C2460095002713E09AF80000384138
:1047D00000F0010BBBF1000F02D0F0B2FCF7E2FADF
:1047E000761C781C87B2082F02D100270AF1010A33
:1047F00000BF0098411E89B200910028E5D10AE06F
:10480000EF1DF81707EB5070C1104046FBF792FD03
:1048100001E0012001900198BDE8FC9F03460120C2
:10482000704700002DE9F04F85B004468946924656
:104830001E460020049003900290F648008818B9A4
:10484000F5480088F3490880B9F1010F6FDB09EBE7
:104850000A0040F24D41884269DCA9F10105B9E145
:104860000A2D65DB1C2D63DC8EBB00200A2D06DBC8
:104870000D2D04DCA5F10A01E84A505C21E00E2D63
:1048800007DB112D05DCA5F10E01E44A121D505C79
:1048900017E0122D07DB152D05DCA5F11201DF4A0B
:1048A0000832505C0DE0162D02D1DA49088808E084
:1048B000172D06DB1C2D04DCA5F11701D74A921F2A
:1048C000505C011204F8011B04F8010B7DE1FFE7C5
:1048D0006178227841EA02200A2D08DB0D2D06DCE2
:1048E000A5F10A01CD4A5054012103911DE00E2D7E
:1048F00009DB112D07DCA5F10E01C84A121D505429
:104900000121039111E0122D09DB152D07DCA5F122
:104910001201C24A083250540121039105E0162DBC
:1049200003D1BC49088001210391A41C4DE16AE137
:104930001F2D78DBB5F5C37F75DCA5F11F00019055
:104940001E21019890FBF1F00090019890FBF1F28C
:1049500001FB120700980C2878DA5321009848438D
:10496000AF4900EB010886BB00210A2F06DA08F1E7
:10497000010000EBC700008801B220E0A7F10A02A5
:1049800002EBD27B4FEA6B0302EBD27B4FEA6B0B5D
:10499000A2EB4B0BBBF1000F02D14FF0010B01E07A
:1049A0004FF0000BDC4608F1010202EBC302506835
:1049B000BCF1000F01D0011400E001B200BF080AF1
:1049C00004F8010B04F8011B3EE0FFE76178207852
:1049D00041EA002B0A2F07DA0FFA8BF108F10100E8
:1049E00000EBC700016029E0A7F10A0202EBD27CCC
:1049F0004FEA6C0102EBD27C4FEA6C0CA2EB4C0C40
:104A0000BCF1000F02D14FF0010C01E04FF0000C9F
:104A1000634608F1010202EBC102506823B180B283
:104A200040EA0B4004E01AE06FF30F0040EA0B008D
:104A300008F1010202EBC102506000BF0099C8B248
:104A4000FCF754F9A41C00BF08E0FFE72EB90020D2
:104A500004F8010B04F8010B00E0A41CB5E05F2D85
:104A60001AD13EB96F490878011204F8011B04F805
:104A7000010BAAE06278237842EA0321012901D1DF
:104A8000012200E000221046664A1278824201D0DC
:104A9000644A1070A41C98E0B5F57A7F19D13EB92C
:104AA00061490878011204F8011B04F8010B8CE03D
:104AB0006178227841EA022046F28861884203D177
:104AC0000121594A117002E00021574A1170A41CBB
:104AD0007BE0B5F57A7F70DDB5F5866F6DDCA5F20C
:104AE000E932062092FBF0F392FBF0F800FB18216C
:104AF000084601EBD0784FEA680701EBD0784FEA1F
:104B00006808A1EB4808B8F1000F02D14FF0010886
:104B100001E04FF00008C446D6B903EB430BDFF8C1
:104B20000CE10EEB8B0B0BEB870BDBF80080BCF181
:104B3000000F04D04FF6FF7B0BEA284001E01FFA7C
:104B400088F04FEA202B04F801BB04F8010B32E097
:104B50003548007870B394F801B094F800E04BEA5F
:104B60000E2803EB430BDFF8C4E00EEB8B0B0BEBD3
:104B70008700BCF1000F0CD0B0F800B01FFA8BFB1F
:104B8000C0F800B0D0F800B04BEA084BC0F800B055
:104B90000BE0D0F800B06FF30F0BC0F800B0D0F806
:104BA00000B04BEA080BC0F800B04FF0010BCDF895
:104BB00008B000BFA41C08E0FFE72EB9002004F8ED
:104BC000010B04F8010B00E0A41C6D1CAAF101000C
:104BD0001FFA80FABAF1000F3FF742AE039868B1AE
:104BE0000C4800880D4B9B1F03F10E02111F009013
:104BF000081FFEF72DFA01200D490870029820B118
:104C0000FCF7B8F801E001200490049805B0BDE875
:104C1000F08F0000A8010020820100208A88002077
:104C2000488A0020A6010020A7010020EC8E002069
:104C3000880100202DE9F04303460C464FF0000C9C
:104C4000012C77DBA018652874DC611E6EE000265D
:104C50000025A84600291ADB172918DC0F4601EBAE
:104C6000D7794FEA690501EBD7794FEA6909A1EBDA
:104C70004909B9F1000F02D14FF0010901E04FF0ED
:104C80000009C8462E4F07EB0517FE683CE01E29B9
:104C90001BDB352919DCA1F11E0707EBD7794FEA99
:104CA000690507EBD7794FEA6909A7EB4909B9F11B
:104CB000000F02D14FF0010901E04FF00009C84692
:104CC0001F4F07EB0517BE681EE03C291BDB53296D
:104CD00019DCA1F13C0707EBD7794FEA690507EB2F
:104CE000D7794FEA6909A7EB4909B9F1000F02D159
:104CF0004FF0010901E04FF00009C846104F07EBE3
:104D000005173E6800E00026B8F1000F04D04FF60A
:104D1000FF7707EA264000E0B0B2071203F8017BF4
:104D200003F8010B491C571EBAB200BF002A8EDCE3
:104D300002E0FFE74FF0010C6046BDE8F0830000A1
:104D40002C8E002070B504460025204601F084FD1D
:104D500000B90325284670BD70B5044600252046DD
:104D6000FFF7F0FF051E03D00120114908701CE079
:104D700001F022FD08B9032517E00E480E4908602E
:104D80000E480F4908600F480F4908600F48104946
:104D9000086000200F490860FF200F4908700220BA
:104DA0000E490870012002490870284670BD0000B5
:104DB0007A000020594E0208800000205B4E020855
:104DC00084000020E14D020888000020294E0208DE
:104DD0007C0000208C00002078000020790000205A
:104DE0002DE9FC4104460D4616464FF0050869467C
:104DF00001A801F003FD90B10198807807020198A5
:104E0000C07807436FB90198C01D2860BDF8000045
:104E1000C01F30804FF00008FF20207001E04FF0ED
:104E200005084046BDE8FC812DE9F04781460E4665
:104E300014460027F51FE01D1FFA80F8601C000AC9
:104E40002871601C68714146284601F00BFD00B9CD
:104E500005273846BDE8F087704710B501F012F914
:104E600010BD10B5A02000F019F908B9012010BD3F
:104E700000F0D0F90020FAE72DE9F04107460D4691
:104E8000164600F0A7F9A02000F070F900F0DAF95A
:104E900000B12CE0281200F069F900F0D3F900B15C
:104EA00025E0E8B200F062F900F0CCF900B11EE0B4
:104EB00000F090F9A12000F059F900F0C3F900B119
:104EC00015E000240CE000F02BF93855701EA042CC
:104ED00002D000F0C3F801E000F008F9601C84B2D1
:104EE000B442F0DB00F096F90120BDE8F08100F05B
:104EF00091F90020F9E72DE9F047074688469146E9
:104F00004546002433E014B105F01F0020BB00F03B
:104F100081F900260AE000F05DF9A02000F026F9F2
:104F200000F090F900B904E0701C86B2B6F57A7F03
:104F3000F1DB00BFB6F57A7F00D11FE0281200F048
:104F400015F900F07FF900B118E0E8B200F00EF9B1
:104F500000F078F900B111E0385D00F007F900F0D9
:104F600071F900B10AE0681C85B2601C84B24C453E
:104F7000C9DB00F04FF90120BDE8F08700F04AF9E5
:104F80000020F9E770B504460025002600BFA10007
:104F9000491C4FF4185202EBC100FEF715FE0646FD
:104FA000A100491C4FF4185202EBC10101F58070B9
:104FB000FEF70AFE00EB062086B2AEB1A100491C46
:104FC0004FF4185202EBC100FEF7FEFD0546A100AA
:104FD000491C4FF4185202EBC10101F58070FEF735
:104FE000F3FD00EB052085B2B542D0D1284670BD57
:104FF00070B504460025002600BFA100491C4FF4EF
:10500000005202EBC100FEF7DFFD0646A100491C7D
:105010004FF4005202EBC10101F58070FEF7D4FDA0
:1050200000EB062086B2AEB1A100491C4FF400523D
:1050300002EBC100FEF7C8FD0546A100491C4FF474
:10504000005202EBC10101F58070FEF7BDFD00EBDF
:10505000052085B2B542D0D1284670BD10B50022DA
:105060004FF400610C48FCF73FF800F037F80122DC
:1050700051020948FCF738F800F030F800224FF4EC
:1050800000710548FCF730F800F028F80122D10241
:105090000148FCF729F810BD0004024070B5044631
:1050A0004FF400610C48FCF717F8012811D14102B8
:1050B0000948FCF711F801280BD100F08BF82046C5
:1050C00000F054F800F0BEF8054600F0A3F82846BA
:1050D00070BD0120FCE7000000040240002001E058
:1050E000411CC8B21E28FBDB7047000010B501222E
:1050F000D1020A48FBF7F8FFFFF7F0FF0122510247
:105100000648FBF7F1FFFFF7E9FF00224FF40071BB
:105110000248FBF7E9FFFFF7E1FF10BD0004024082
:1051200070B5002400251BE06006040E0122510228
:105130000D48FBF7D9FFFFF7D1FF4FF400610A4894
:10514000FBF7CAFF012801D1601CC4B200224FF452
:1051500000710548FBF7C8FFFFF7C0FF681CC5B228
:10516000082DE1DB204670BD0004024070B5044606
:1051700000252AE004F0800028B10122D102144861
:10518000FBF7B2FF05E000224FF400611048FBF787
:10519000ABFFFFF7A3FF012251020D48FBF7A4FF6D
:1051A000FFF79CFF00224FF400710948FBF79CFFBA
:1051B000072D04D10122D1020548FBF795FF6006B7
:1051C000040EFFF78BFF681CC5B2082DD2DB70BD43
:1051D0000004024010B50122D1020D48FBF784FF04
:1051E000012251020A48FBF77FFFFFF777FF0022F9
:1051F0004FF400610648FBF777FFFFF76FFF0022CF
:105200004FF400710248FBF76FFFFFF767FF10BD17
:105210000004024010B500224FF400610848FBF77B
:1052200063FF012251020648FBF75EFFFFF756FFBE
:105230000122D1020248FBF757FFFFF74FFF10BDD5
:105240000004024010B50122D1021048FBF74CFFC8
:10525000FFF744FF012251020C48FBF745FFFFF71F
:105260003DFF4FF400610948FBF736FF012801D1EB
:10527000012400E0002400224FF400710348FBF7F2
:1052800033FFFFF72BFF204610BD00000004024053
:1052900010B5044600BF082C02DD4FF0FF3010BDF2
:1052A00000BF00BFA100491C002202EBC100FEF7B5
:1052B0008BFC00F00F00012802D06FF00400EEE735
:1052C00000BF00BFA100491C4FF4407202EBC100B7
:1052D000FEF77AFC132802D06FF00200DFE700BF70
:1052E000A100491C4FF4807202EBC1000221FEF7BD
:1052F000EBFC00BFA100491C4FF4807202EBC1001F
:10530000FEF762FC0028F5D105E02046FEF73EFEE0
:105310006FF00300C3E7A100491C4FF4407202EB99
:10532000C100FEF751FC1428EFD10120B7E70000BF
:1053300018481949086062B6FCF7A8F8FBF7ECFEBC
:10534000FEF7E2F81548006820F000701349086085
:1053500012480838006820F0010010490839086038
:105360000E483038006840F008000C4930390860B9
:105370000846006820F008000860FDF72DFCFDF7E6
:10538000EFFCFDF70FFDFDF72FFDFBF7CDFA00BF9A
:10539000FEE700000000020808ED00E0403802408F
:1053A0000F480088072801DA002070470D4840792F
:1053B0000C4B1B7940EA0322901D81B2072902DBC6
:1053C000B1F5806F03DD0020054B1880EDE7044840
:1053D0000088884201DB0846E7E70020E5E7000097
:1053E0002E010020748400202DE9F04105460E4670
:1053F0002648076826480068001D00F005FE50B9E1
:105400002348006890F82C10012088402149096841
:10541000814320480160681CD8B9D6B11E4948684C
:105420001B49096888601A4982680968CA60184976
:105430000968091D8268516015490968091D816064
:10544000154A134909684A6111460968491C1160E7
:105450001AE07C190E4800684460BC4207D20C4830
:105460000168091D0D48006800F0F2FD0CE00848D5
:105470000168091D0A48006800F0EAFD0948006853
:10548000844201D207480460BDE8F0814400002056
:105490003000002048000020408400203800002018
:1054A000340000206000002010B5044600F0ECFD40
:1054B0002F480068401C2E4908602E48006840B9FB
:1054C0002C4804600846006801280DD100F096F9C8
:1054D0000AE02948006838B926480068C06AE16ACD
:1054E000884201D82348046024480068401C2349AE
:1054F000086094F82C10012088402149096808436D
:105500001F490860E16A01EB81011E4A02EB81013B
:105510004868A0608268E260211D826851608160F5
:10552000E16A01EB8101174A02EB81026261E16AE3
:1055300001EB8101134A52F82110491CE26A02EB87
:105540008202104B43F8221000F0B0FD0A480068B8
:1055500068B108480068C06AE16A884207D24FF023
:10556000805009490860BFF34F8FBFF36F8F10BDA4
:1055700040000020300000204C0000205C00002093
:10558000480000208C83002004ED00E010B516E0F8
:1055900000F07AFD0C48C068C468201D00F034FD9E
:1055A0000A480068401E0949086009480068401E12
:1055B0000749086000F07AFD204600F05FF80448D3
:1055C00000680028E4D110BD2C8400204000002099
:1055D0003C00002070B504460D46206C70B1216C73
:1055E000E0680144E160D4E90210884201D32168F7
:1055F000E1602846226CE168FAF775FE70BD2DE97E
:10560000F04104460F4615464FF00008A66B206C8B
:1056100048B9206800282CD1A06801F099FD804687
:105620000020A06025E07DB93946226C6068FAF759
:105630005AFE216C606808446060D4E90101884228
:1056400017D32068606014E03946226CE068FAF7EE
:105650004AFE216CE068411AE1602168E0688842F6
:1056600003D2216CA068411AE160022D01D106B17C
:10567000761E701CA0634046BDE8F08110B504465C
:10568000206B00F023FD204600F020FD10BD0146F8
:105690004A6A22B10A6B1268C2F1050000E00020DC
:1056A0007047000030B54FF40043154800F0070480
:1056B0002CB1C01D20F00700114C041B1B1B02461F
:1056C000104C226000240F4D6C60D018083820F078
:1056D00007000D4C206000240B4D2D686C600A4DB6
:1056E0002D682C601146441A4C60074C24680C60ED
:1056F000064D4C682C60064D4C682C6030BD000097
:105700008C03002010000020180000202000002042
:105710001C00002000BFFFF739FF06480068012881
:10572000F9D94FF0805004490860BFF34F8FBFF3A1
:105730006F8FF0E78C83002004ED00E010B5044685
:1057400054B10020A06020600021E16000231A46CF
:105750001946204601F0A0F910BD2DE9F04106469A
:105760000D4617469846069C0DB9246000E0276058
:10577000E66325640121204601F03EF9BDE8F08191
:105780002DE9FF5F80460E469146DDE90E7A109CBA
:10579000A9F10100216B01EB800B2BF0070B7EB10F
:1057A000002507E0715D04F134004155705D00B9DA
:1057B00002E06D1C102DF5D300BF002143200155E0
:1057C000052F00D30427E7626764201D00F03DFC2D
:1057D00004F1180000F039FC2461C7F10500A06154
:1057E000646241465846039A00F082F92060BAF19B
:1057F000000F01D0CAF80040BDE8FF9F10B500249B
:1058000007E004EB84010F4A02EB810000F010FC7A
:10581000641C052CF5D30C4800F00AFC0B4800F082
:1058200007FC0B4800F004FC0A4800F001FC0A48A1
:1058300000F0FEFB04480949086004480849086074
:1058400010BD00008C830020F08300200484002021
:10585000188400202C840020408400203400002084
:105860003800002010B50146164800E000680368C3
:105870008B42FBD30246436813448B4204D14368F6
:105880004C682344436001460A464B68134404684D
:10589000A34211D10C4C03682468A34208D04B6882
:1058A0000468646823444B6003681B680B6005E070
:1058B000054B1B680B6001E003680B60884200D059
:1058C000016010BD100000201800002070B50546D2
:1058D00000F0DAFBA86B08B9012400E0002400F016
:1058E000E5FB204670BD70B5054600F0CDFBA86B0A
:1058F000E96B884201D1012400E0002400F0D6FBCE
:10590000204670BD09480068006808B9012000E021
:10591000002020B14FF0FF300549086005E0034842
:105920000068C068006802490860704734000020C1
:105930006000002000BFBF2080F31188BFF34F8FAD
:10594000BFF36F8F00BF00BFFEE770B5044600F0E5
:105950009BFB94F9455010E0606A08B9012000E013
:10596000002038B904F1240001F0BEFC18B100F0A9
:1059700005FC00E003E0681E45B2002DECDC00BF32
:10598000FF2084F8450000F091FB00F07DFB94F9C6
:10599000445010E0206908B9012000E0002048B917
:1059A00004F1100001F0A0FC08B100F0E7FB681E54
:1059B00045B200E001E0002DECDC00BFFF2084F8E0
:1059C000440000F073FB70BD014621B1012904D0F1
:1059D000072906D103E0002005E0022003E00620AD
:1059E00001E0042000BF00BF704700002DE9F04730
:1059F00005464FF0000900F077FC3048006808B910
:105A0000FFF750FE75B105F00700C0F11008C8F1AE
:105A1000FF30A84201D2012000E0002008B945442F
:105A200000E00025012000EBE570002841D0002DAA
:105A30003FD02348006885423BD8224E3046046858
:105A400001E0264624686068A84202D22068002847
:105A5000F7D11A48006884422BD0306800F1080959
:105A6000206830606068401B102807D9671960689B
:105A7000401B786065603846FFF7F4FE10496068A7
:105A80000968081A0E490860084600680E49096846
:105A9000884203D20A4800680B490860606840F0F9
:105AA000004060600020206008480068401C0749F2
:105AB000086001F09DFC4846BDE8F0871800002012
:105AC0001C000020100000202000002024000020E6
:105AD0000648006830B10549096801F14800896C41
