:020000040802F0
:10000000F0AB0020610202083D2C0208B52902086D
:10001000392C0208410A0208B93602080000000023
:10002000000000000000000000000000A101020824
:10003000510F020800000000FD010208AB2F02086A
:100040007B0202087B0202087B0202087B02020894
:100050007B0202087B0202087B0202087B02020884
:100060007B0202087B0202087B0202087B02020874
:100070007B0202087B0202087B0202087B02020864
:100080007B0202087B0202087B0202087B02020854
:100090007B0202087B0202087B0202087B02020844
:1000A0007B020208853002087B0202087B020208FC
:1000B0007B0202087B0202087B0202087B02020824
:1000C0007B0202087B0202087B0202087B02020814
:1000D0007B0202087B0202087B0202087B02020804
:1000E0007B0202087B0202087B0202087B020208F4
:1000F0007B0202087B0202087B0202087B020208E4
:100100007B0202087B0202087B0202087B020208D3
:100110007B0202087B0202087B0202087B020208C3
:100120007B0202087B0202087B0202087B020208B3
:100130007B0202087B0202087B0202087B020208A3
:100140007B0202087B0202087B0202087B02020893
:100150007B0202087B0202087B0202087B02020883
:100160007B0202087B0202087B0202087B02020873
:100170007B0202087B0202087B02020800000000EA
:100180007B0202087B020208DFF810D000F0BCFA04
:10019000004800472D450208AFF30080F0AB002077
:1001A0002C4B19680868B0E8F04F80F30988BFF35A
:1001B0006F8F4FF0000080F311887047000000003F
:1001C00008480068006880F308884FF0000080F35A
:1001D000148862B661B6BFF34F8FBFF36F8F00DF35
:1001E00000BF00BF08ED00E0DFF80C00016841F43B
:1001F00070010160704700BF88ED00E0EFF30980F7
:10020000BFF36F8F134B1A681EF0100F08BF20ED5D
:10021000108A20E9F04F106009B44FF0BF0080F35E
:100220001188BFF34F8FBFF36F8F05F087FB4FF03F
:10023000000080F3118809BC19680868B0E8F04F25
:100240001EF0100F08BFB0EC108A80F30988BFF3CE
:100250006F8F704730000020EFF30580704700007B
:100260000648804706480047FEE7FEE7FEE7FEE750
:10027000FEE7FEE7FEE7FEE7FEE7FEE77130020875
:10028000890102082DE9F05F0546002092469B4651
:1002900088460646814640241BE02846414647469C
:1002A000224600F069F853465A46C01A914110D3CD
:1002B00011461846224600F050F82D1A67EB010847
:1002C0004F4622460120002100F047F817EB0009B5
:1002D0004E41201EA4F10104DFDC484631462A4687
:1002E0004346BDE8F09F40EA01039B0703D009E0C5
:1002F00008C9121F08C0042AFAD203E011F8013B12
:1003000000F8013B521EF9D27047D2B201E000F86A
:10031000012B491EFBD270470022F6E710B51346A9
:100320000A4604461946FFF7F0FF204610BD30B5D7
:100330000B46014600202022012409E021FA02F5A3
:100340009D4205D303FA02F5491B04FA02F528443D
:10035000151EA2F10102F1DC30BD202A04DB203A97
:1003600000FA02F1002070479140C2F1200320FA08
:1003700003F3194390407047202A04DB203A21FA06
:1003800002F00021704721FA02F3D040C2F12002AE
:1003900091400843194670472DE9FE4F804681EA97
:1003A0000300C00F0C46009021F0004123F00045EF
:1003B000B8EB0200A94105D24046214690461C46B2
:1003C0000B46024623F00040104347D0270DC7F3E9
:1003D0000A00C3F30A510290401A019040286BDAD8
:1003E000C3F3130040F4801B0098924620B1002311
:1003F000D2EB030A63EB0B0B01985946C0F14002A4
:100400005046FFF7AAFF06460D4650465946019A48
:1004100000F08CF910EB08006141002487EA1152CA
:1004200084EAE7731A4340D0009A62B3019A012A22
:100430004FEA075215DC001B61EB02014FF000424E
:1004400002EA0752CDE90042001C41F58011324614
:100450002B4600F08CF903B0BDE8F08F40462146F2
:10046000F9E7001B61EB0201001C41F58013001845
:100470005B412018A2F5001747EB030140EAD57055
:10048000B6196D4111E06D084FEA360645EAC075B0
:100490004FEA0752001B61EB0201001C41F580117D
:1004A00049084FEA30000019514132462B4603B04B
:1004B000BDE8F04F00F04CB9009801224000002345
:1004C000D0EB020263EBE073009821464FEAE07440
:1004D000B8EB000061EB0401E9E783F000435BE760
:1004E00081F0004158E72DE9FE4F81EA030404F052
:1004F000004421F0004100944FF0000B23F0004332
:1005000050EA01045ED052EA03045BD0C3F30A54FC
:10051000C1F30A552C44A4F2F3340194A0FB025415
:10052000C1F3130141F48011C3F3130343F48013A7
:1005300001FB024400FB034E840A970A44EA8154FB
:1005400047EA8357A4FB076802958D0A05FB0785D8
:100550004FEA932C04FB0C542705029D4FEA0658E2
:1005600047EA1637B5EB08056EEB070C870E920EBF
:1005700047EA811742EA8312A7FB0201B6EB0B019F
:1005800064EB00042B0D43EA0C335E1844EB1C5063
:10059000DA465146E7FB0201C5F313044FEA0B3379
:1005A00043EA14534FEA0432019C43EA0603A4F1E0
:1005B0000C040294009CCDE900B400F0D8F803B01C
:1005C000BDE8F08F00200146F9E72DE9F04D81EA02
:1005D000030404F0004B21F0004514464FF0000ADC
:1005E00023F0004150EA050220D054EA01021DD058
:1005F000C5F30A570246C5F31303C1F31300C1F351
:100600000A5640F4801543F48013A7EB0608101B2C
:10061000D64608F2FD3873EB050002D308F1010855
:1006200001E092185B41B8F1000F03DA00200146A7
:10063000BDE8F08D00204FF48011064684460EE0A0
:10064000171B73EB050705D3121B63EB050306436A
:100650004CEA010C49084FEA300092185B4150EA1D
:100660000107EDD152EA030012D082EA040083EAC6
:100670000501084305D0101BAB4106D2012200231F
:1006800006E000224FF0004302E06FF00102531039
:100690001AEB06004CEB085110EB0A0041EB0B0182
:1006A000BDE8F04D00F054B8C1F30A52C1F3130194
:1006B00040F2FF3341F480119A4202DA00200146F1
:1006C000704740F233439A42A2F2334202DC524274
:1006D000FFF752BEFFF741BE30B5041E71F10004B2
:1006E00004DB4FF00044404264EB0101141E73F13F
:1006F000000405DB1C464FF00043524263EB040349
:10070000994208BF904230BD064C074D06E0E068B4
:1007100040F0010394E8070098471034AC42F6D348
:10072000FFF736FD0C6B02082C6B0208202A06DB53
:10073000CB17203A41FA02F043EAE07306E041FAAF
:1007400002F3D040C2F1200291400843194670479D
:1007500010B5141E73F1000408DA401C41F10001C9
:1007600092185B411A4301D120F0010010BD2DE920
:10077000F04D92469B4611B1B1FA81F202E0B0FA17
:1007800080F220329046FFF7E8FD04460F4640EA2B
:100790000A0041EA0B0153465A46084313D011465A
:1007A00053EA010019D0C8F140025046FFF7E4FDBA
:1007B00005460E46504659464246FFF7CEFD0843D1
:1007C00005D0012004E020463946BDE8F08D002028
:1007D000054346EAE0762C4337430A986305E40A6A
:1007E000A0EB08000022FD0A44EA47540A3002D573
:1007F00000200146E9E7010510196941DDE90845D6
:1008000000196941BDE8F04DA2E770B505462846DC
:1008100000F0BAFA002403E0FF2002F03DFB641C64
:100820001E2CF9DBFE2002F037FB284600F00AF907
:100830004FF4FA6002F0B0FB4FF40521284600F0B7
:10084000C5FA022004F096FF284600F09DFAC02069
:1008500002F022FB284600F0F5F870BD00B58BB021
:1008600020A003C8CDE9090120A00068089020A0BD
:10087000006807901FA0006806901F480999416012
:10088000BDF8281001810899C0F80A100799C0F82E
:100890000E100699C0F8121041F288301649C8822D
:1008A00018216846FFF738FD01208DF81600124820
:1008B000416800910089ADF804000F48D0F80A00A3
:1008C000CDF806000C48D0F80E00CDF80A000A4812
:1008D000D0F81200CDF80E00684605F0A7F90BB06D
:1008E00000BD00000008DC1122330000C0A800EAAF
:1008F000FFFFFF00C0A80001D483002000B58BB02B
:100900002848006820B9042005F05CFA25490860F1
:1009100000224021244800F03FFD322004F02AFF4D
:1009200001224021204800F037FDC82004F022FFBA
:1009300004F074FE1D491E4804F09EFB1D4B0FCBB6
:10094000CDE90923CDE9070109A907A805F026F992
:10095000401C48B907E04FF48071174800F012FDC1
:10096000642004F007FFF6E7FFF778FF01A805F021
:10097000E7F89DF80A001149897A884205D19DF867
:100980000D100E48407B81420AD008E04FF4807180
:10099000094800F0F7FC4FF4FA7004F0EBFEF5E7BD
:1009A0000BB000BDC400002000080240D936020888
:1009B000BD3602089C68020800100240D483002063
:1009C0001CB51048022100234A02CDE900100EA1F7
:1009D0000F4805F007FC0F48012100230A02CDE96A
:1009E00000100DA1104805F0FDFB10480121002367
:1009F000CA02CDE900100EA1104805F0F3FB04F087
:100A00005FFF1CBDB40000204E6574776F726B00F1
:100A1000ED330208B800002044656275675F5365D6
:100A2000727665720000000085330208BC00002069
:100A30004144435F54657374000000007D31020837
:100A400000BFFEE710B504460C2C09DA054A02EB9C
:100A5000C4029188034A52F83400012200F09CFC41
:100A600010BD0000AC68020870B51FA003F024FCA4
:100A700000F032F942F2107002F08EFA4FF40524C1
:100A8000214621A003F018FC2146002000F09EF929
:100A900041F2883002F080FA002000F0B5F80646F6
:100AA000314624A003F008FC26F08050A04203D178
:100AB0002BA003F001FC02E037A003F0FDFB42A0F5
:100AC00003F0FAFB002508E0E8B2214600F07EF9C9
:100AD0004FF47A7002F060FA6D1C0C2DF4DB45A027
:100AE00003F0EAFB70BD000020203E205B494E4928
:100AF000545D2053746172742053657175656E6323
:100B0000652E2E2E0D0A000020203E205B544553FA
:100B1000545D2057726974696E6720436F6E666911
:100B20006720746F204348303A2030782530385899
:100B30000D0A000020203E205B544553545D205296
:100B4000656164204261636B2066726F6D2043486B
:100B5000303A20203078253038580D0A0000000047
:100B600020203E205B504153535D20535049204389
:100B70006F6D6D20537563636573732120436F6ED2
:100B80006669677572656420666F72203830304818
:100B90007A2E0D0A0000000020203E205B464149CD
:100BA0004C5D2052656164206D69736D617463688A
:100BB0002120436865636B2053504920736574742A
:100BC000696E67732E0D0A0020203E205B494E4956
:100BD000545D20436F6E6669677572696E67206148
:100BE0006C6C2031322063686970732E2E2E0D0AD2
:100BF0000000000020203E205B494E49545D204407
:100C00006F6E652E0D0A000070B50546002428465B
:100C100000F0BAF80B2002F03FF9002002F03CF996
:100C200044EA0064002002F037F944EA004400205E
:100C300002F032F944EA0024002002F02DF90443C6
:100C40002846FFF7FFFE204670BD00007CB5064633
:100C50000C4600200090019000252070304600F0E6
:100C600093F84FF4FA7002F097F94FF400611948C5
:100C700000F080FB40BB002002F00EF9002002F0E3
:100C80000BF98DF80000002002F006F98DF8010044
:100C9000002002F001F98DF80200002002F0FCF8BB
:100CA0008DF803009DF8000000049DF8011040EA53
:100CB00001209DF8021040EA010505F4000008B18A
:100CC00045F07F45012020703046FFF7BBFE2846E7
:100CD0007CBD00000008024070B514A003F0ECFADF
:100CE00000241DE014B91BA003F0E6FA21461EA063
:100CF00003F0E2FAE0B200F047F8002503E0FF203D
:100D000002F0CAF86D1C0F2DF9DBFE2002F0C4F8CA
:100D1000E0B2FFF797FE4FF47A7002F03DF9641CE1
:100D20000C2CDFDB11A003F0C7FA70BD20203E20A1
:100D300052657365742053657269616C20536571E7
:100D400075656E63652053746172742E2E2E0D0AC4
:100D50000000000020202020526573657474696EC5
:100D6000672043483A200000256420000D0A202017
:100D70003E2052657365742053657269616C20442E
:100D80006F6E652E0D0A000010B504460C2C09DAB2
:100D9000054A02EBC4029188034A52F8340000224B
:100DA00000F0FAFA10BD0000AC68020810B500248B
:100DB00009E0E0B2FFF7E8FFC02002F06DF8E0B212
:100DC000FFF740FE641C0C2CF3DB10BD70B505462C
:100DD0000C462846FFF7D8FF032002F05DF8200EEE
:100DE00002F05AF8C4F3074002F056F8C4F30720A3
:100DF00002F052F8E0B202F04FF82846FFF722FE68
:100E000070BD000070B50346104600240BE013F8D7
:100E1000016B86EA2025054E36F8155085EA002537
:100E2000A8B2651CACB28C42F1DB70BD0C69020843
:100E30000020014908707047CE0000202DE9FF4FC7
:100E400083B082468B461E46109F204C04F1080852
:100E5000381D85B21B2020700020607084F802A02D
:100E6000E070A580A0710E20E071A8F800B0059890
:100E7000A8F802003EB1002F05DD3A46314608F1E0
:100E80000400FFF730FA05F1080081B200220F4894
:100E9000FFF7B8FF02900D48083000EB05090298F3
:100EA000A9F80000162089F8020005F10B0080B2B5
:100EB000019007480088074B009004490120019ADF
:100EC00004F0DCF907B0BDE8F08F0000EE930020DD
:100ED000CC000020C800002000B593B01A4800786C
:100EE00008B913B000BD05F001FA18490968401AA5
:100EF000142800D2F5E705F0F9F9144908604421F7
:100F000002A8FFF709FA40F2C110ADF8080001206D
:100F1000ADF80A000D480068CDF81600002005E085
:100F20006421414307AA42F82010401C0C28F7DB3B
:100F3000402003AB002240F2C11100908020FFF757
:100F40007DFF00BFCDE70000CE000020D0000020D4
:100F5000704700000748006840F08070054908604D
:100F60000020054948600846006840F0010008601C
:100F700070470000FCED00E0001000E072B600BF1A
:100F8000FEE770B504460CB9012070BD94F820004E
:100F900010B9204600F0B0F82068006840F0010069
:100FA0002168086000F0FEF905460DE000F0FAF94E
:100FB000401B0A2808D9606A40F4003060620520AE
:100FC00084F820000120E0E72068406800F001007C
:100FD0000028EBD02068006820F00200216808603B
:100FE00000F0E0F905460DE000F0DCF9401B0A28AE
:100FF00008D9606A40F400306062052084F820005F
:101000000120C2E72068406800F002000028EBD110
:10101000207E012806D12068006840F08000216809
:10102000086005E02068006820F080002168086002
:10103000607E012806D12068006840F040002168E9
:10104000086005E02068006820F040002168086022
:10105000A07E012806D12068006840F020002168A9
:10106000086005E02068006820F020002168086022
:10107000E07E012806D12068006820F01000216879
:10108000086005E02068006840F0100021680860F2
:10109000207F012806D12068006840F00800216800
:1010A000086005E02068006820F0080021680860FA
:1010B000607F012806D12068006840F004002168A4
:1010C000086005E02068006820F0040021680860DE
:1010D000D4E9020108432169084361690843616852
:1010E000491E08432168C86100206062012084F81D
:1010F0002000002049E7000010B586B00446142106
:1011000001A8FFF709F91B492068884230D100BFC8
:10111000002000901848006840F0007016490860F0
:101120000846006800F00070009000BF00BF00BFDC
:101130000020009010481038006840F001000E496F
:10114000103908600846006800F00100009000BFF8
:1011500000BF4FF4C0500190022002900020039085
:10116000032004900920059001A9044800F008F824
:1011700006B010BD0064004040380240000002404C
:10118000F8B502460B460025002400200021D6E0D9
:10119000012606FA01F51E6806EA0504AC4274D180
:1011A0001E7906F00306012E04D01E7906F0030610
:1011B000022E13D190684F000326BE40B0434F006B
:1011C000DE68BE4030439060506801268E40B043D8
:1011D0001E79C6F300168E40304350601E7906F02B
:1011E0000306032E09D0D0684F000326BE40B0434B
:1011F0004F009E68BE403043D0601E7906F0030663
:10120000022E13D1CF0802F1200656F827004E0710
:10121000F70E0F26BE40B0434F07FF0E1E69BE40BB
:101220003043CF0802F1200646F8270010684F002F
:101230000326BE40B0431E7906F003064F00BE40B1
:10124000304310605E6806F44036002E76D000BF52
:10125000002600963C4E366846F480463A4F3E6083
:101260003E46366806F48046009600BF00BF374E03
:101270008F0856F827008E07370F0F26BE40B04361
:10128000334EB24202D1002624E057E0314EB24242
:1012900001D101261EE0304EB24201D1022619E0F2
:1012A0002E4EB24201D1032614E02D4EB24201D19E
:1012B00004260FE02B4EB24201D105260AE02A4E49
:1012C000B24201D1062605E0284EB24201D10726DE
:1012D00000E008268F073F0FBE4030431B4E8F08AB
:1012E00046F82700224E3068A0435E6806F4801658
:1012F00006B120431E4E3060361D3068A0435E6844
:1013000006F4001606B12043194E361D3060184E03
:10131000361F3068A0435E6806F4003606B12043ED
:10132000134E361F3060361F3068A0435E6806F4E7
:10133000803606B120430E4E083E3060491C10290D
:10134000FFF426AFF8BD00004438024008380140E1
:10135000000002400004024000080240000C02406D
:10136000001002400014024000180240001C02401D
:10137000083C0140024613690B400BB1012000E01C
:101380000020704710B5426921EA020302EA010415
:1013900043EA0443836110BD0AB1816101E00B049B
:1013A000836170470148006870470000000000201A
:1013B00003480068034909780844014908607047F8
:1013C000000000200800002010B50D48006840F41F
:1013D00000700B4908600846006840F480600860AF
:1013E0000846006840F480700860032000F0D0F8E0
:1013F0000F2000F007F800F055F8002010BD0000A5
:10140000003C0240F0B587B004460026002700BF2C
:10141000002000901E48006840F001001C49086050
:101420000846006800F00100009000BF00BF01A95D
:1014300002A800F043FA00F079FA46001548B6FB1E
:10144000F0F0471E14481549086040F2E731134890
:10145000C1604760002101618160816101F0DBF8BA
:10146000054695B90D4801F00BF905466DB91920EF
:1014700000F03CF8102C07D200222146192000F081
:1014800049F80748046000E00125284607B0F0BD90
:101490004438024040420F0000000140CC8200204E
:1014A0000400002008B500BF002000900E4800682E
:1014B00040F480400C4908600846006800F4804011
:1014C000009000BF00BF00BF00200090081F006810
:1014D00040F08050091F08600846006800F0805006
:1014E000009000BF00BF08BD4438024001460846D6
:1014F00000280DDB00BF00BF00F01F0301229A404F
:1015000043099B0003F1E023C3F8002100BF00BFA3
:1015100000BF70472DE9F05F80460D461646002754
:1015200002F0FEF9074639462A46334601F0070025
:10153000C0F1070ABAF1040F02D94FF0040A01E022
:10154000C0F1070AD14600F1040ABAF1070F02D22E
:101550004FF0000A01E0A0F1030AD4464FF0010A5F
:101560000AFA09FAAAF1010A0AEA020A0AFA0CFAC4
:101570004FF0010B0BFA0CFBABF1010B0BEA030B69
:101580004AEA0B042146404602F0D2F9BDE8F09F3A
:1015900000BF00F00702064B19684FF6FF03194021
:1015A000044B0B4343EA0221014B196000BF704713
:1015B0000CED00E00000FA0570B504460D460CB9CC
:1015C000012070BD5848006800F00700A84209D209
:1015D00055490D700846006800F00700A84201D088
:1015E0000120EEE7207800F0020002281DD12078CB
:1015F00000F00400042805D14C48006840F4E05095
:101600004A490860207800F00800082805D14748BA
:10161000006840F46040454908604448006820F094
:10162000F000A168084341490860207800F00100FB
:10163000A8B36068012807D13C4808380068C0F3A7
:101640004040B8B90120BCE76068022802D0606859
:10165000032807D1354808380068C0F3406048B90E
:101660000120AEE7314808380068C0F3400008B9EF
:101670000120A6E72D48006820F0030061680843B8
:101680002A490860FFF78EFE064609E0FFF78AFE4A
:10169000801B41F28831884202D9032091E707E09C
:1016A0002248006800F00C006168B0EB810FEDD1BA
:1016B0001D48006800F00700A84209D91A490D70BA
:1016C0000846006800F00700A84201D0012078E732
:1016D000207800F00400042807D11448006820F4A2
:1016E000E050E168084311490860207800F00800E4
:1016F000082808D10D48006820F46040216940EABC
:10170000C1000A49086000F021F908490968C1F3DD
:101710000311074A515CC840064908600648006842
:10172000FFF770FE00204CE7003C02400838024002
:10173000846802080C0000200400002010B5FFF7A8
:1017400031FE04465748006840F0010055490860E2
:1017500006E0FFF727FE001B022801D9032010BD79
:101760005048006800F002000028F2D04D480068A0
:1017700040F080004B490860FFF714FE044600204B
:1017800048490831086008E0FFF70CFE001B41F2F1
:101790008831884201D90320E1E7424808300068D7
:1017A00000F00C000028EFD1FFF7FCFD04463D4897
:1017B000006820F450203B49086006E0FFF7F2FD86
:1017C000001B642801D90320C9E73648006800F4EB
:1017D00000300028F2D1FFF7E5FD044631480068EB
:1017E00020F080702F49086006E0FFF7DBFD001B4A
:1017F000022801D90320B2E72A48006800F00070EF
:101800000028F2D1FFF7CEFD04462648006820F0FC
:1018100080602449086006E0FFF7C4FD001B022831
:1018200001D903209BE71F48006800F000600028F2
:10183000F2D11D481B49091D08601C481949843113
:10184000086018480C30006820F4F85015490C3135
:1018500008600846006820F40050086008460068E8
:1018600040F41F0008600846006840F4001008605B
:101870000C487430006820F001000A497431086097
:101880000846006840F0807008600948094908600F
:1018900009480068FFF7B6FD08B101205FE70020A6
:1018A0005DE70000003802401030000400300020E6
:1018B0000024F4000C000020040000200F2202602D
:1018C0000D4A126802F0030242600B4A126802F0ED
:1018D000F0028260084A126802F4E052C260064ACE
:1018E000126802F46042D2080261044A126802F0EF
:1018F00007020A607047000008380240003C0240BE
:1019000001480068704700000C00002000B5FFF798
:10191000F7FF04490968C1F38221034A515CC840BA
:1019200000BD0000083802409468020800B5FFF7C7
:10193000E7FF04490968C1F34231034A515CC840DA
:1019400000BD000008380240946802082DE9F04705
:10195000002400250026A1462548006800F00C0060
:1019600020B1042805D008283AD105E0DFF884909A
:1019700039E0DFF8849036E01D48001F006800F071
:101980003F041B48001F006800F4800078B11A482B
:101990001749091F0968C1F38811A0FB01700146AE
:1019A000224600233846FEF76DFC05460EE011483E
:1019B0000F49091F0968C1F38811A0FB0170014696
:1019C000224600233846FEF75DFC05460848001F06
:1019D0000068C0F30140401C4600B5FBF6F902E088
:1019E000DFF8109000BF00BF4846BDE8F087000058
:1019F000083802400024F40040787D01F8B5044620
:101A00000CB90120F8BD207800F00100002874D046
:101A1000F948006800F00C0004280DD0F648006872
:101A200000F00C00082813D1F348001F006800F4F0
:101A30008000B0F5800F0BD1EF4808380068C0F384
:101A40004040002859D06068002856D10120D9E7CD
:101A500000BF6068B0F5803F08D1E74808380068EB
:101A600040F48030E449083908601EE06068B0F551
:101A7000A02F0DD1E0480838006840F48020DE49EE
:101A8000083908600846006840F4803008600CE0BF
:101A9000D9480838006820F48030D74908390860F0
:101AA0000846006820F48020086000BF606890B19C
:101AB000FFF778FC054606E0FFF774FC401B64283E
:101AC00001D903209EE7CC4808380068C0F34040A5
:101AD0000028F1D011E0FFF765FC054606E0FFF7AE
:101AE00061FC401B642801D903208BE7C2480838F9
:101AF0000068C0F340400028F1D1207800F00200D7
:101B000002285FD1BC48006800F00C0058B1BA4808
:101B1000006800F00C0008281CD1B748001F0068BE
:101B200000F48000B0B9B44808380068C0F3400041
:101B300020B1E068012801D0012063E7AE480838F1
:101B4000006820F0F800216940EAC100AA4908397C
:101B5000086037E0E06800B30120A8490860FFF79B
:101B600021FC054606E0FFF71DFC401B022801D9B9
:101B7000032047E7A04808380068C0F34000002869
:101B8000F1D09D480838006820F0F800216940EA4B
:101B9000C10099490839086014E00020974908609D
:101BA000FFF700FC054606E0FFF7FCFB401B0228A0
:101BB00001D9032026E7904808380068C0F34000A8
:101BC0000028F1D1207800F0080008282CD16069A5
:101BD000A8B101208A490860FFF7E4FB054606E04A
:101BE000FFF7E0FB401B022801D903200AE78248E7
:101BF0006C300068C0F340000028F1D014E00020F1
:101C00007F490860FFF7CEFB054606E0FFF7CAFBF9
:101C1000401B022801D90320F4E677486C300068A5
:101C2000C0F340000028F1D1207800F0040004281F
:101C300070D1002770483830006800F0805090B9AB
:101C400000BF002000906C483830006840F08050A1
:101C50006949383108600846006800F080500090FB
:101C600000BF00BF01276748006800F48070B0B96A
:101C70006448006840F4807062490860FFF792FB96
:101C8000054606E0FFF78EFB401B022801D9032022
:101C9000B8E65C48006800F480700028F2D000BF0D
:101CA000A068012808D154486830006840F001005D
:101CB0005149683108601DE0A06805280DD14E48E3
:101CC0006830006840F004004B49683108600846FD
:101CD000006840F0010008600CE047486830006888
:101CE00020F001004449683108600846006820F08F
:101CF0000400086000BFA068A8B1FFF753FB0546C9
:101D000009E0FFF74FFB401B41F28831884202D9BE
:101D1000032077E626E0384868300068C0F34000CA
:101D20000028EED013E0FFF73DFB054608E0FFF783
:101D300039FB401B41F28831884201D9032061E61A
:101D40002D4868300068C0F340000028EFD1012F13
:101D500007D129483830006820F0805026493831B2
:101D6000086000BFA069002845D02348006800F043
:101D70000C0008285DD0A069022845D100201F4929
:101D80000866FFF70FFB054606E0FFF70BFB401B5D
:101D9000022801D9032035E6174808380068C0F347
:101DA00040600028F1D1D4E907010843616A40EAA4
:101DB00081110122A06AC2EB500041EA00412C20AF
:101DC000005D41EA00600C49091F086001200B49D1
:101DD0000866FFF7E7FA054606E0FFF7E3FA401B5F
:101DE000022801D903200DE6034808380068C0F333
:101DF00040600028F1D049E0083802400000474226
:101E0000800E474200700040002021490866FFF71D
:101E1000C9FA054606E0FFF7C5FA401B022801D9BA
:101E20000320EFE51B480068C0F340600028F2D1B2
:101E30002CE0A069012800D1E4E51648001D0668E1
:101E4000A069012820D006F48001E06981421BD1FD
:101E500006F03F01206A814216D147F6C07030403B
:101E6000616AB0EB811F0FD106F440310122A06AF4
:101E7000C2EB5000B1EB004F06D106F070612C2090
:101E8000005DB1EB006F01D00120BBE50020B9E59A
:101E9000000047420038024010B504460CB901204A
:101EA00010BD606A38B96068B0F5827F00D105E086
:101EB0000021E16102E00021216161610021A16254
:101EC00094F8510028B9002084F85000204600F012
:101ED00047F8022084F851002068006820F0400094
:101EE00021680860A08800F48270218901F404410F
:101EF0000843A18901F400610843217C01F002013B
:101F00000843217D01F001010843218B01F4007198
:101F10000843217F01F0380108432021095D01F0C9
:101F200080010843218D01F40051084321680860B5
:101F30000421A06901EA104094F8241001F0100176
:101F40000843216848602068C06920F40060216867
:101F5000C86100206065012084F8510000209FE7DF
:101F600010B586B00446142101A8FEF7D5F94549FD
:101F7000206888424ED100BF00200090424800688F
:101F800040F48040404908600846006800F4804002
:101F9000009000BF00BF00BF002000903A481038FA
:101FA000006840F0040038491039086008460068AD
:101FB00000F00400009000BF00BF00BF00200090B0
:101FC0000846006840F0020008600846006800F01B
:101FD0000200009000BF00BF0C2001900220029080
:101FE00000200390032004900520059001A92748B4
:101FF000FFF7C6F84FF480600190022002900020A5
:102000000390032004900520059001A92048FFF7C4
:10201000B7F834E01F492068884230D100BF002063
:1020200000901948006840F40040174908600846CD
:10203000006800F40040009000BF00BF00BF002017
:10204000009011481038006840F004000E49103923
:1020500008600846006800F00400009000BF00BF60
:102060004FF4E050019002200290002003900320E2
:1020700004900620059001A90448FFF781F806B0F6
:1020800010BD000000380040403802400008024007
:1020900000040240003C00402DE9F8430446884615
:1020A00016461D464FF0000994F85100012802D051
:1020B0004FF00209A8E06068B0F5827F0DD1A068FA
:1020C00058B9042084F85100334642464146204620
:1020D000009500F07EF9BDE8F88300BF94F8500049
:1020E000012801D10220F6E7012084F8500000BF4A
:1020F000FFF758F90746B8F1000F00D016B94FF0B6
:10210000010981E0042084F8510000206065C4F8D2
:102110003880A687E6872063A086E0862064606416
:10212000A068B0F5004F0BD12068006820F0400097
:10213000216808602068006820F4804021680860F9
:102140002068006800F04000402805D02068006842
:1021500040F0400021680860E06810BB1DE0206886
:10216000806800F0010050B12068007BA16B08700E
:10217000A06B401CA063E08F401EE0870DE0FFF7DE
:1021800011F9C01BA84201D3681C00B92DB94FF04A
:102190000309012084F8510036E0E08F0028DED1E9
:1021A00021E01DE02068806800F0010050B1206847
:1021B000C068A16B0880A06B801CA063E08F401EEC
:1021C000E0870DE0FFF7EEF8C01BA84201D3681CC2
:1021D00000B92DB94FF00309012084F8510013E034
:1021E000E08F0028DED13A462946204600F0C6FDA1
:1021F00008B120206065606D10B14FF0010902E068
:10220000012084F8510000BF00BF002084F8500076
:1022100000BF48465FE72DE9F84F0446884616465A
:102220001D464FF0000A00BF94F85000012802D16B
:102230000220BDE8F88F012084F8500000BFFFF7AE
:10224000B1F80746B14694F85100012802D04FF08A
:10225000020AB7E0B8F1000F00D016B94FF0010A3A
:10226000B0E0032084F8510000206065C4F830809D
:10227000A686E686A063A087E08760642064A068E5
:10228000B0F5004F0BD12068006820F040002168B5
:1022900008602068006840F4804021680860206879
:1022A000006800F04000402805D02068006840F039
:1022B000400021680860E068B0F5006F32D16068C6
:1022C00010B1B9F1010F09D1206B00882168C860F5
:1022D000206B801C2063E08E401EE0861EE020689C
:1022E000806800F0020002280AD1206B0088216873
:1022F000C860206B801C2063E08E401EE0860DE0ED
:10230000FFF750F8C01BA84201D3681C00B92DB9D3
:102310004FF0030A012084F8510053E0E08E0028BA
:10232000DDD131E0606810B1B9F1010F09D1206B46
:10233000007821680873206B401C2063E08E401EEB
:10234000E0861EE02068806800F0020002280AD1C2
:10235000206B007821680873206B401C2063E08E9E
:10236000401EE0860DE0FFF71DF8C01BA84201D318
:10237000681C00B92DB94FF0030A012084F8510000
:1023800020E0E08E0028DDD13A462946204600F0C4
:102390003FFD08B120206065A06850B900BF002053
:1023A00000902068C068009020688068009000BF9E
:1023B00000BF606D10B14FF0010A02E0012084F807
:1023C000510000BF00BF002084F8500000BF5046FD
:1023D0002FE72DE9FF5F0446884691461D460E9E75
:1023E000012002900020019000BF94F850000128C5
:1023F00003D1022004B0BDE8F09F012084F8500012
:1024000000BFFEF7CFFF074694F851B06068039015
:10241000AA46BBF1010F0BD00398B0F5827F04D11F
:10242000A06810B9BBF1040F02D002200190E9E0CE
:10243000B8F1000F03D0B9F1000F00D015B9012099
:102440000190DFE094F85100042802D0052084F8C0
:10245000510000206065C4F83890E587A587C4F86E
:102460003080E586A586206460642068006800F0FE
:102470004000402805D02068006840F040002168F6
:102480000860E068B0F5006F4DD1606810B1BAF136
:10249000010F09D1206B00882168C860206B801C67
:1024A0002063E08E401EE08636E02068806800F001
:1024B0000200022810D1E08E70B1029801280BD1E1
:1024C000206B00882168C860206B801C2063E08E30
:1024D000401EE086002002902068806800F0010025
:1024E00068B1E08F58B12068C068A16B0880A06B0C
:1024F000801CA063E08F401EE08701200290FEF761
:1025000051FFC01BB04207D3701C28B103200190BB
:10251000012084F8510075E0E08E0028C5D1E08FDD
:102520000028C2D14DE0606810B1BAF1010F09D1A5
:10253000206B007821680873206B401C2063E08EBC
:10254000401EE08637E02068806800F00200022824
:1025500010D1E08E70B1029801280BD1206B007869
:1025600021680873206B401C2063E08E401EE086CB
:10257000002002902068806800F0010068B1E08FC0
:1025800058B12068C068A16B0870A06B401CA063A4
:10259000E08F401EE08701200290FEF703FFC01B82
:1025A000B04201D3701C00B92EB903200190012064
:1025B00084F8510026E0E08E0028C4D1E08F002886
:1025C000C1D13A463146204600F022FC20B101201C
:1025D00001902020606515E0A06850B900BF002080
:1025E00000902068C068009020688068009000BF5C
:1025F00000BF606D10B10120019002E0012084F85D
:10260000510000BF00BF002084F8500000BF0198B7
:10261000F0E67047704710B504460CB9012010BDB4
:1026200094F83D0028B9002084F83C00204600F0D2
:1026300025F8022084F83D00211D206800F02AFDC5
:10264000012084F8460000BF84F83E0001213F20AD
:102650000155402001554120015500BF00BF012018
:1026600084F842004320015544200155452001557E
:1026700000BF012084F83D000020D0E77047000033
:10268000014691F83D00012801D001207047022049
:1026900081F83D000868C06840F001000B68D86010
:1026A0001A4B086898421BD00868B0F1804F17D0C9
:1026B000174B0868984213D0164B086898420FD001
:1026C000154B086898420BD0144B0868984207D005
:1026D000134B0868984203D0124B086898420CD1FB
:1026E0000868806800F00702062A0CD008680068B5
:1026F00040F001000B68186005E00868006840F0D1
:1027000001000B6818600020C0E7000000000140D5
:102710000004004000080040000C0040000401409C
:102720000040014000180040704770B50446206822
:10273000C5682068066906F00200022819D105F074
:102740000200022815D1401F21680861012020776E
:102750002068806900F0030018B12046FFF7E4FF0D
:1027600005E0204600F097F8204600F095F800209C
:10277000207706F00400042819D105F0040004288D
:1027800015D1C04321680861022020772068806944
:1027900000F4407018B12046FFF7C6FF05E0204660
:1027A00000F079F8204600F077F80020207706F056
:1027B0000800082819D105F00800082815D1C043E1
:1027C00021680861042020772068C06900F00300B8
:1027D00018B12046FFF7A8FF05E0204600F05BF89F
:1027E000204600F059F80020207706F0100010284D
:1027F00019D105F01000102815D1C04321680861D7
:10280000082020772068C06900F4407018B1204685
:10281000FFF78AFF05E0204600F03DF8204600F073
:102820003BF80020207706F0010048B105F00100D8
:1028300030B16FF0010021680861204600F02EF8E9
:1028400006F08000802809D105F08000802805D19D
:10285000C043216808612046FFF7DBFE06F0400018
:10286000402809D105F04000402805D1C043216827
:102870000861204600F01EF806F02000202809D14B
:1028800005F02000202805D1C043216808612046BA
:10289000FFF7C0FE70BD70477047000010B50446DA
:1028A00003492068884201D1FEF782FD10BD000077
:1028B00000000140704710B504460CB9012010BD5E
:1028C000A06900B100E000BF94F8410028B90020E1
:1028D00084F84000204600F029F8242084F84100C4
:1028E0002068C06820F400502168C860204600F0CD
:1028F000CDFD2068006920F49040216808612068BF
:10290000406920F02A00216848612068C06840F4CE
:1029100000502168C86000206064202084F84100D5
:1029200084F842000020606300BFC8E710B586B09D
:102930000446142101A8FDF7EFFC1B4920688842DA
:102940002FD100BF002000901848006840F40030EC
:10295000164908600846006800F40030009000BF87
:1029600000BF00BF0020009010481038006840F001
:1029700001000E49103908600846006800F00100A7
:10298000009000BF00BF0C200190022002900020A8
:102990000390032004900720059001A90448FEF746
:1029A000EFFB06B010BD000000440040403802407C
:1029B0000000024000BFFEE710B50B480B4908605D
:1029C00010204860002109488160C16001614161B7
:1029D000017641768176C17601774177FEF7D1FAAB
:1029E00008B1FEF7CBFA10BD00640040AC810020B6
:1029F00000B587B0142102A8FDF78EFC00BF0020AF
:102A000001905848006840F0800056490860084628
:102A1000006800F08000019000BF00BF00BF0020F0
:102A200001900846006840F004000860084600680D
:102A300000F00400019000BF00BF00BF0020019023
:102A40000846006840F0010008600846006800F091
:102A50000100019000BF00BF00BF002001900846A8
:102A6000006840F0100008600846006800F01000A0
:102A7000019000BF00BF00BF002001900846006821
:102A800040F0020008600846006800F00200019073
:102A900000BF00BF00BF002001900846006840F062
:102AA000080008600846006800F00800019000BFB8
:102AB00000BF012210212C48FEF76EFC01224FF4CA
:102AC000C0712A48FEF768FC00224FF420612848B4
:102AD000FEF762FC012243F69F712648FEF75CFC7C
:102AE000002240212048FEF757FC50200290012090
:102AF0000390002004900220059002A91A48FEF7D6
:102B00003FFB4FF4C070029001200390002004901E
:102B1000059002A91548FEF733FB4FF48060029040
:102B2000002003900120049002A91048FEF728FB22
:102B30004FF4206002900120039000200490059043
:102B400002A90B48FEF71CFB43F69F700290012080
:102B500003900490059002A90648FEF711FB07B008
:102B600000BD000030380240000802400010024062
:102B700000040240000C024010B50E480E490860E7
:102B80004FF48270486000210B488160C160016190
:102B900041614FF4007181610821C161002101622E
:102BA000416281620A21C162FFF776F908B1FEF73E
:102BB000E5F910BD00380040D481002010B50E4862
:102BC0000E4908604FF48270486000210B48816014
:102BD000C160016141614FF4007181612021C161D7
:102BE00000210162416281620A21C162FFF754F94A
:102BF00008B1FEF7C3F910BD003C00402C82002054
:102C000010B50B480B4908604FF4E13048600021D3
:102C100008488160C16001610C214161002181612E
:102C2000C161FFF748FE08B1FEF7A8F910BD00002A
:102C3000004400408482002000BFFEE700BFFEE7A2
:102C400070B500252E48C68AA900491C4FF4407271
:102C500002EBC10000F04CFD002847D0132841D002
:102C6000172802D01C2848D130E0A900491C4FF495
:102C7000007202EBC10000F03BFD00F0010080B1EA
:102C8000A900491C4FF4007202EBC100012100F0C1
:102C9000AFFD01201B494870002201021A48FEF7CF
:102CA0007BFB284601F086FB041E0EDDB4F5006FA9
:102CB00001DD4FF40064A2B21449284601F0C6FFBA
:102CC000A2B21249284602F019FA16E0284601F08D
:102CD00013FB00200B494870012211020A48FEF73D
:102CE0005BFB0AE0284601F0D1FB06E000233246F8
:102CF0000121284602F0C8FB00BF00BF70BD0000E4
:102D0000D4830020C000002000100240EE83002089
:102D1000FEB5012541F28936A900491C4FF44072E5
:102D200002EBC10000F0E4FCE0B1222821D12846EA
:102D300001F040FB041E14DDB4F5006F00DDEC0271
:102D400001A8A2B202AB0C490090284602F00EF88E
:102D5000BDF80400A2B202AB07490090284602F079
:102D60008DFA06E0002332460221284602F08CFB51
:102D700000BF00BFFEBD0000EE830020F8B5044692
:102D80000E4615466068B0F5827F0DD1A068B0F59B
:102D9000004F03D0A068B0F5806F05D120680068AF
:102DA00020F04000216808606068B0F5827F1FD184
:102DB000A068B0F5806F0DD03346002280212046F8
:102DC000009500F07DF808B3606D40F0200060656C
:102DD0000320F8BD3346002201212046009500F073
:102DE0006FF898B1606D40F0200060650320F0E757
:102DF0003346002201212046009500F061F828B1F9
:102E0000606D40F0200060650320E2E70020E0E70D
:102E10007CB504460E461546334601220221204663
:102E2000009500F04DF828B1606D40F0200060651D
:102E300003207CBD164800681821B0FBF1F015494D
:102E4000B0FBF1F04FF47A71484301906068B0F53F
:102E5000827F0DD13346002280212046009500F06C
:102E60002FF898B1606D40F0200060650320E0E726
:102E700000BF019800B908E00198401E0190206849
:102E80008068C0F3C0100028F3D100BF0020D0E755
:102E90000C00002040420F0001B582B000200190DC
:102EA0000120034601AA02A900900448FFF791FA05
:102EB00008B1FF200EBD9DF80400FBE72C82002026
:102EC0002DE9F84F04460D4690461E46DDF8289041
:102ED000FEF768FAA0EB0900371AFEF763FA82469C
:102EE0002C480068C0F3CB307843009045E0701C5C
:102EF000002842D0FEF756FAA0EB0A00B84200D2F2
:102F0000A7BB2068406820F0E00021684860606846
:102F1000B0F5827F0DD1A068B0F5004F03D0A06856
:102F2000B0F5806F05D12068006820F0400021686E
:102F30000860A06AB0F5005F0DD100BF206800688E
:102F400020F40050216808602068006840F40050B8
:102F50002168086000BF012084F8510000BF0020F4
:102F600084F8500000BF0320BDE8F88FFFE7009809
:102F700000B900270098401E009020688068284013
:102F8000A84201D1012000E000204045AFD100203F
:102F9000EAE700000C00002001B500E000BF009847
:102FA000411E00910028F9D108BD10B503F08EF93B
:102FB000012801D002F0ECFE10BD000000B593B076
:102FC000302107A8FDF7A8F9142102A8FDF7A4F9FC
:102FD00000BF002001902448006840F08050224942
:102FE00008600846006800F08050019000BF00BFF4
:102FF00000BF002001901D48006840F480401B493C
:1030000008600846006800F48040019000BF00BFDF
:10301000012007900004089002200D9041050E91B8
:1030200019210F914FF4A8711091022111910421DF
:10303000129107A8FEF7E2FC08B1FDF79FFF0F20F1
:10304000029002200390002004904FF4A0500590BD
:103050004FF480500690052102A8FEF7ADFA08B1A2
:10306000FDF78CFF13B000BD4038024000700040F7
:103070000348006840F47000014908607047000090
:1030800088ED00E010B50248FFF74FFB10BD0000CF
:10309000CC82002010B502682D4B98420ED0B0F1C2
:1030A000804F0BD02B4B984208D02B4B984205D029
:1030B0002A4B984202D02A4B984203D122F0700248
:1030C0004B681A43224B984220D0B0F1804F1DD05C
:1030D000204B98421AD0204B984217D01F4B984251
:1030E00014D01F4B984211D01E4B98420ED01E4B4D
:1030F00098420BD01D4B984208D01D4B984205D0EA
:103100001C4B984202D01C4B984203D122F44072CF
:10311000CB681A4322F080034C6943EA0402026040
:103120008B68C3620B688362094B984202D00C4BD8
:10313000984201D10B69036301234361036903F0E2
:1031400001031BB1036923F00103036110BD0000FB
:10315000000001400004004000080040000C004056
:10316000000401400040014000440140004801408B
:1031700000180040001C00400020004094B040F6C1
:10318000B83002F0F7FA56A001F096F8FDF76CFCA3
:10319000FDF70CFE00264FF4FA7703F0A7F8049031
:1031A0009CE0002475E005AA1119E0B2FDF74EFD80
:1031B000054605A8005D012836D1514800EB0410F2
:1031C0008068A84209D14E4800EB0410C068401C3A
:1031D0004B4901EB0411C86008E00020484901EBAD
:1031E0000411C860464800EB0410856008A840F848
:1031F00024500020424901EB0411086041488542F7
:1032000002D015F5000F09D13D4800EB04104068CD
:10321000401C3B4901EB041148600EE00020384996
:1032200001EB0411486008E0354800EB0410006829
:10323000401C334901EB04110860314800EB0410D5
:10324000006832280BD82E4800EB0410C0683228E2
:1032500005D82B4800EB04104068642818D90020DA
:1032600008A941F82400E0B2FDF7CFFA0020244974
:1032700001EB04110860224901EB0411C8602049E8
:1032800001EB0411486020481D4901EB04118860DE
:10329000641C0C2C87DB761CBE4219D300261BA0B5
:1032A00001F00AF8DDE90C210B98CDE9012100902D
:1032B0001EA008A90EC900F0FFFFDDE91112139846
:1032C000CDE90012029024A00EA90EC900F0F4FF6F
:1032D00000BF012104A802F0B9FF00BF61E70000B0
:1032E0000D0A3D3D3D2041444320383030487A208E
:1032F000446174612056696577203D3D3D0D0A00AB
:1033000014830020FFFF7F0055AAAA550D0A2D2D1A
:103310002D20414443204461746120536E617073D9
:10332000686F74202D2D2D0D0A0000005261775B0F
:10333000302D355D3A2020256C642020256C6420DA
:1033400020256C642020256C642020256C642020BE
:10335000256C640D0A0000005261775B362D313117
:103360005D3A20256C642020256C642020256C6447
:103370002020256C642020256C642020256C640DA1
:103380000A0000004FF47A7002F0F4F92DE04FF4D7
:10339000527000F0ADF9142815D003DC38B11328B1
:1033A0001ED10CE0172812D01C2819D114E00023DC
:1033B00041F28A320121022002F066F814E0022074
:1033C00001F064F810E0642002F0D4F90CE04FF44E
:1033D000FA7002F0CFF907E0022000F08DFF03E061
:1033E000642002F0C7F900BF00BFD0E708B5FDF7C1
:1033F00085FAFDF71DFD002410E000228021214800
:10340000FDF7CAFFC82002F0B5F9012280211D484E
:10341000FDF7C2FFC82002F0ADF9641C032CECDB01
:10342000002280211748FDF7B7FF00BF02F05EFFC2
:10343000009025E002F07BFC01280DD112490870B4
:10344000002280210F48FDF7A7FFFFF7F9FBFFF7E8
:103450005FFCFDF741FD0DE000200B49087048704E
:10346000012280210748FDF797FF0122110205483C
:10347000FDF792FF00BF0521684602F0E7FE00BF9E
:10348000D8E7000000100240C00000202DE9F84FEE
:1034900004462068006920F44050E1680843216830
:1034A00008612169A068084361690843E16908432C
:1034B00000902068C06849F20C6188430099084375
:1034C0002168C8602068406920F44070A169084301
:1034D0002168486176492068884203D07549206890
:1034E000884203D1FEF722FA814602E0FEF70EFA87
:1034F0008146E069B0F5004F6CD102206168A0FB05
:10350000015003461920A9FB007001462A4638469F
:10351000FCF7B8FE6421B0FBF1F04FEA001A02207C
:103520006168A0FB01510B461920A9FB00712A46D6
:103530003846FCF7A7FE834602206168A0FB0150D5
:1035400003461920A9FB00712A463846FCF79AFE6B
:103550006421B0FBF1F000EBC00101EB0010ABEB1C
:103560008000322101EBC0006421B0FBF1F000F0DB
:10357000F8000AEB400A02206168A0FB01500346F4
:103580001920A9FB007001462A463846FCF77AFE4E
:10359000834602206168A0FB015003461920A9FB65
:1035A00000712A463846FCF76DFE6421B0FBF1F04D
:1035B00000EBC00101EB0010ABEB8000322101EB0E
:1035C000C0006421B0FBF1F000F007005044216816
:1035D00088606AE004206168A0FB0150034619205E
:1035E000A9FB007001462A463846FCF74BFE82468E
:1035F00004206168A0FB015003461920A9FB00705C
:1036000001462A463846FCF73DFE6421B0FBF1F046
:1036100000EBC00101EB0010AAEB8000322101EBAE
:1036200000106421B0FBF1F000F0F00A04206168A2
:10363000A0FB017003461920A9FB00513A46284619
:10364000FCF720FE6421B0FBF1F00AEB001A042025
:103650006168A0FB01510B461920A9FB00712A46A5
:103660003846FCF70FFE834604206168A0FB01503A
:1036700003461920A9FB007001462A463846FCF78C
:1036800001FE6421B0FBF1F000EBC00101EB001082
:10369000ABEB8000322101EB00106421B0FBF1F0B4
:1036A00000F00F00504421688860BDE8F88F0000EA
:1036B000001001400014014000BFFEE710B50548AE
:1036C000006828B14FF0FF310248006802F03EFD6B
:1036D00010BD0000C400002010B50448006818B1F7
:1036E0000248006802F082FC10BD0000C400002007
:1036F00038B504461A49C86880471949486980475F
:1037000000BF1748406A10B11548806A70B9144864
:10371000016AC4F3074088471148016AC4F30720CF
:103720008847E0B20E4A116A88470DE0200C8DF8F8
:103730000000200A8DF80100E0B28DF80200084870
:103740000321826A684690470549C8698047054653
:10375000034988698047024908698047284638BD7F
:1037600080000020F8B504460E4617461F49C86879
:1037700080471E494869804700BF1C48406A10B115
:103780001A48806AC0B91948016AC4F307408847DB
:103790001648016AC4F307208847E0B2134A116A49
:1037A0008847002505E01149C86980477055681CA5
:1037B00085B2BD42F7DB12E0200C8DF80000200A34
:1037C0008DF80100E0B28DF8020008480321826AFA
:1037D0006846904705483946426A30469047034953
:1037E00088698047014908698047F8BD800000204A
:1037F00038B504460D461A49C868804718494869D3
:10380000804744F004041648806A90B91448016A5D
:10381000C4F3074088471248016AC4F30720884769
:10382000E0B20F4A116A88470D48016A2846884766
:103830000FE0200C8DF80000200A8DF80100E0B2A6
:103840008DF802008DF8035005480421826A68460D
:10385000904703498869804701490869804738BD16
:1038600080000020F8B504460E4617461E49C86879
:1038700080471D494869804744F004041A48806A1B
:10388000C0B91948016AC4F3074088471648016A5D
:10389000C4F307208847E0B2134A116A884700251D
:1038A00005E0705D104A116A8847681C85B2BD4208
:1038B000F7DB12E0200C8DF80000200A8DF80100E3
:1038C000E0B28DF8020008480321826A68469047FA
:1038D00005483946826A30469047034988698047DF
:1038E000014908698047F8BD800000207CB50C00C4
:1038F0001D461646014601D0601E00E00020CDE9BD
:103900000010064B6A462946304600F0F7F8002CB6
:1039100002D0009A002111707CBD00000342020811
:1039200002480068C0F30220704700000CED00E080
:1039300010B5002804DB0A07130E054A135406E0ED
:103940000A07140E034A00F00F031B1FD45410BDC6
:1039500000E400E018ED00E002E008C8121F08C112
:10396000002AFAD170477047002001E001C1121F00
:10397000002AFBD1704700002DE9FF5F82B00021D3
:10398000DDE90430020DDDF840B0034318D044F601
:103990001050A2F2FF3242431514119801281FD093
:1039A000A5EB0B00401C5FEA000A4FF000064E4FEB
:1039B000DFF83891B046504615D5CAF1000413E03F
:1039C000119801244AA3012801D16FEA0B01029842
:1039D000119AC0E90031C0E9024206B0BDE8F09F8B
:1039E000CBF10000DFE704460021404A491842EBD2
:1039F0000450CDE9001012E0E00707D032463B4604
:103A000040464946FCF76FFD8046894632463B46B4
:103A100010461946FCF767FD06460F466410002C59
:103A2000EAD1DDE90401DDE90023BAF1000F06DA8D
:103A3000FCF759FD42464B46FCF755FD05E0FCF707
:103A4000C4FD42464B46FCF7C0FD04460E4600222C
:103A5000284BFCF741FE03D84FF0FF30014607E04A
:103A60000022254B20463146FCF796FCFCF71CFE55
:103A7000102409E0002C0ADB0A220023FCF702FCD8
:103A8000039B30321A55641E50EA0102F2D1641CC5
:103A9000039AC4F111031444119A012A03D001229C
:103AA00008430DD10AE0084304D000204FF0110B69
:103AB000119072E7A3EB0B056D1E0DE05B4504DD75
:103AC0004FF0000205F1010504E003DA4FF00002B7
:103AD000A5F10105002AECD002981199C0E9023144
:103AE000C0E9004579E70000000014400000F03F05
:103AF000300000000000F0430000E03F2DE9FF4FE0
:103B000095B09A46884606460025EEE1252877D1ED
:103B100000242746F94A0121039400E0044316F8E3
:103B2000013F203B01FA03F01042F7D130782A28F8
:103B300011D06FF02F033078A0F13002092A16D887
:103B4000039A44F0020402EB820203EB42021044A7
:103B5000761C0390EFE758F8042B0392002A03DA4F
:103B6000504244F40054039044F00204761C307830
:103B70002E2816D116F8010F44F004042A280DD07F
:103B80006FF02F023078A0F13003092B09D807EB32
:103B9000870302EB4303C718761CF3E758F8047B4E
:103BA000761C30786C280FD006DC4C2817D068289B
:103BB0000DD06A2814D104E0742810D07A280FD1CF
:103BC0000DE044F400140AE044F4801401E044F4ED
:103BD00040147278824202D104F58014761C761C5F
:103BE000307866280BD013DC582877D009DC002801
:103BF00075D04528F6D04628F4D047281AD193E14D
:103C000018E0632835D0642879D0652812D18BE17B
:103C1000702873D008DC6728F1D069286FD06E282F
:103C20000DD06F2806D1ACE073282CD0752874D045
:103C3000782853D05246179990476D1C54E1C4F32D
:103C40000250022809D003280DD0D8F8001004280B
:103C50000DD00D6008F1040846E1D8F80010EA170D
:103C6000C1E90052F6E7D8F800100D80F2E70D70B8
:103C7000F0E718F8041B8DF8001000208DF8010003
:103C8000EB46012003E058F804BB4FF0FF3061071A
:103C90004FF0000102D40DE009F101018946B9425B
:103CA0000FDA8145F8DB1BF809100029F4D108E090
:103CB00009F1010189468142FADB1BF8091000294C
:103CC000F6D103985346A0EB090721463846179AC8
:103CD00000F080FA284400EB090507E044E008E121
:103CE0000DE01BF8010B524617999047B9F10109F5
:103CF000F7D2534621463846179AF2E039E00A21B6
:103D0000C4F302524FF0000B0091022A06D058F87B
:103D1000040BC117032A09D00AE023E008F10700C9
:103D200020F00702F2E80201904605E000B2C11758
:103D3000042A01D140B2C117002906DA0A4600213F
:103D4000404261EB02012D2202E0220504D52B2224
:103D50008DF80420012203E0E20701D02022F7E7DA
:103D6000914657E00A2100E010214FF0000B00912E
:103D70000BE010214FF0000B44F0040408270091E1
:103D800003E008204FF0000B0090C4F30252022A17
:103D900005D058F8040B0021032A08D008E008F1E8
:103DA000070020F00702F2E80201904603E080B22B
:103DB000042A00D1C0B24FF0000922072AD5327878
:103DC000702A07D0DDF800C08CF0100C5CEA0B0CF8
:103DD00005D00EE040228DF80420012208E050EAD0
:103DE000010306D030238DF804308DF8052002221F
:103DF0009146009B83F0080353EA0B030AD150EA73
:103E0000010201D1620705D530228DF804204FF060
:103E100001097F1E3278582A04D039A20C920CAACC
:103E200002920BE03BA2F9E75B46009AFCF72AFA04
:103E30000C9B9B5C029A521E0292137050EA010284
:103E4000F2D1029804A9081A00F1200B600702D5EC
:103E500024F4803400E001275F4502DDA7EB0B006E
:103E600000E0002000EB0B01009003984944401A49
:103E70000390E00306D453462146179A039800F0B6
:103E8000A9F90544002706E001A85246C05D17992C
:103E900090476D1C7F1C4F45F6DBE0030CD5534665
:103EA0002146179A039800F095F9054404E0302064
:103EB0005246179990476D1C0099481E00900029A2
:103EC000F5DC08E00298029952460078491C0291FC
:103ED000179990476D1CBBF10001ABF1010BF1DCB0
:103EE0005BE100F065F90544761C307800287FF42A
:103EF0000DAE19B02846BDE8F08F0000092801007A
:103F0000303132333435363738396162636465664F
:103F10000000000030313233343536373839414211
:103F20004344454600000000600700D4062708F11E
:103F3000070020F00700F0E80223804603F0004C61
:103F40005FEA0C0001D097A009E0200501D596A0FA
:103F500005E0E00701D095A001E0AFF24C0013901E
:103F6000307823F0004365280CD006DC452809D0C2
:103F700046281DD047287FD13BE0662818D0672807
:103F80007AD136E00021112F01DB112000E0781CEE
:103F9000CDE9000104A90CA8FFF7EEFCDDE90D0155
:103FA0000C9A4FF0000B07F10109109200914EE0BE
:103FB0004FF000400097CDE9011004A90CA8FFF7CD
:103FC000DBFCDDE90D020C9B0F994FF0000B9146D5
:103FD0001093009211B9791C00EB0109B7EB0900AD
:103FE00003D4C0F1FF3B07F10109A9EB07000190E1
:103FF00042E0012F00DA01270021112F01DD1120FD
:1040000000E03846CDE9000104A90CA8FFF7B4FC94
:10401000DDE90D010C9A00914FF0000BB9461092AA
:1040200021070FD4009A4A4503DA914601E0A9F12D
:104030000109B9F1010F05DD109AA9F10101515CE7
:104040003029F4D0B84202DA10F1040F03DA01216A
:10405000CDE9011010E0002803DC8344A9EB000146
:1040600002E0411C494500DD8946A0EB0B00401CE5
:1040700001904FF000400290200705D40198484578
:1040800002DB4FF0FF30019000208DF84B000298CA
:104090000DF14B07B0F1004F25D002200C902B20E2
:1040A0000D90029800280CDA404202902D200D90CD
:1040B00007E00A210298FCF73AF93031029007F83C
:1040C000011D0C99481E0C900029F2DC0298002872
:1040D000EFD1791E0D980870307800F0200040F084
:1040E000450007F8020D11A8C01BC01D02901398CF
:1040F000007800B1012000EB0901019801EBE071AB
:10410000029801440398401A401E0390E00306D42D
:1041100053462146179A039800F05CF8054413981B
:10412000007818B15246179990476D1CE00323D5CB
:1041300053462146179A039800F04CF805441BE0BB
:10414000BBF1000F07DB0098584504DD1098179964
:1041500010F80B0001E01799302052469047019863
:104160000BF1010B401E05F10105019004D12E2039
:104170005246179990476D1CB9F10001A9F1010948
:10418000DEDC05E017F8010B5246179990476D1CCD
:104190000299481E02900029F4DC53462146179AE2
:1041A00003989EE62D0000002B0000002000000078
:1041B0002DE9F041044600251E461746880404D424
:1041C00005E039462020B0476D1C641EF9D528460D
:1041D000BDE8F0812DE9F041044600251E469046D9
:1041E000C80301D5302700E02027880404D505E066
:1041F00041463846B0476D1C641EF9D52846BDE8D7
:10420000F0814A68002A06D00A68531C0B601070BF
:104210004868401E4860704710B5044600BF082C2F
:1042200002DD4FF0FF3010BD00BFA100491C4FF46C
:10423000807202EBC1001021FFF7DAFA00BFA10083
:10424000491C4FF4807202EBC100FFF751FA0028BD
:10425000F5D1A100491C4FF4007202EBC1001F21EF
:10426000FFF7C6FA0120A0400F49098881430E4894
:1042700001800120A0400D49098881430B4801803D
:1042800000200B4921F814000A49085500BFA1007D
:10429000491C4FF4407202EBC100FFF729FA0028D5
:1042A000F5D10120BFE7000072000020740000205B
:1042B0009C810020760000200FB410B5C2B045A844
:1042C00001904FF4807102A8019B449AFFF70EFB06
:1042D000044600200190002C0ADD4FF45270FFF7D5
:1042E00007FA172804D1A2B202A9022000F006FFA3
:1042F00042B010BC5DF814FB10B5044600BF082C9A
:1043000002DD4FF0FF3010BD00BF00BFA100491C0F
:10431000002202EBC100FFF7EBF900F00F000128CB
:1043200002D06FF00400EEE700BFA100491C4FF47B
:10433000807202EBC1000821FFF75AFA00BFA1000A
:10434000491C4FF4807202EBC100FFF7D1F900283D
:10435000F5D10120A0401549098881431348018007
:104360000120A04012490988084008B10020CAE78E
:1043700010E0A100491C4FF4007202EBC100FFF7EE
:10438000B7F900F0080028B12046FFF745FF6FF0AD
:104390000C00B8E7A100491C4FF4407202EBC100C9
:1043A000FFF7A6F90028E4D10120ACE77400002053
:1043B0007200002070B504460025002600BFA10051
:1043C000491C4FF4185202EBC100FFF791F9064661
:1043D000A100491C4FF4185202EBC10101F5807095
:1043E000FFF786F900EB062086B2AEB1A100491CAA
:1043F0004FF4185202EBC100FFF77AF90546A1000D
:10440000491C4FF4185202EBC10101F58070FFF70F
:104410006FF900EB052085B2B542D0D1284670BDBA
:1044200070B504460025002600BFA100491C4FF4CA
:10443000005202EBC100FFF75BF90646A100491CE0
:104440004FF4005202EBC10101F58070FFF750F903
:1044500000EB062086B2AEB1A100491C4FF4005219
:1044600002EBC100FFF744F90546A100491C4FF4D7
:10447000005202EBC10101F58070FFF739F900EB42
:10448000052085B2B542D0D1284670BD10B504468E
:1044900000BF082C02DD4FF0FF3010BD00BF00BF91
:1044A000A100491C002202EBC100FFF721F900F036
:1044B0000F00012802D06FF00400EEE700BF00BF3C
:1044C000A100491C4FF4407202EBC100FFF710F944
:1044D000132802D06FF00200DFE700BFA100491CE3
:1044E0004FF4807202EBC1000221FFF781F900BF97
:1044F000A100491C4FF4807202EBC100FFF7F8F8ED
:104500000028F5D105E02046FFF786FE6FF0030096
:10451000C3E7A100491C4FF4407202EBC100FFF752
:10452000E7F81428EFD10120B7E700000C480D4947
:10453000086062B6FDF702F9FCF746FFFEF73EFDA4
:10454000FEF756FAFEF718FBFEF738FBFEF734FAD3
:10455000FEF756FBFCF7FEFCFCF732FA00BFFEE765
:104560000000020808ED00E02DE9F04105460E4686
:104570002648076826480068001D01F069F850B910
:104580002348006890F82C100120884021490968D0
:10459000814320480160681CD8B9D6B11E494868DB
:1045A0001B49096888601A4982680968CA60184905
:1045B0000968091D8268516015490968091D8160F3
:1045C000154A134909684A6111460968491C116076
:1045D0001AE07C190E4800684460BC4207D20C48BF
:1045E0000168091D0D48006801F056F80CE0084804
:1045F0000168091D0A48006801F04EF80948006882
:10460000844201D207480460BDE8F08144000020E4
:104610003000002048000020888100203800002061
:10462000340000206000002010B5044601F04EF870
:104630002F480068401C2E4908602E48006840B989
:104640002C4804600846006801280DD100F080F96C
:104650000AE02948006838B926480068C06AE16A5B
:10466000884201D82348046024480068401C23493C
:10467000086094F82C1001208840214909680843FB
:104680001F490860E16A01EB81011E4A02EB8101CA
:104690004868A0608268E260211D82685160816084
:1046A000E16A01EB8101174A02EB81026261E16A72
:1046B00001EB8101134A52F82110491CE26A02EB16
:1046C0008202104B43F8221001F012F80A480068E9
:1046D00068B108480068C06AE16A884207D24FF0B2
:1046E000805009490860BFF34F8FBFF36F8F10BD33
:1046F00040000020300000204C0000205C00002022
:1047000048000020D480002004ED00E010B516E041
:1047100000F0DCFF0C48C068C468201D00F098FF62
:104720000A480068401E0949086009480068401EA0
:104730000749086000F0DCFF204600F04AF8044812
:1047400000680028E4D110BD7481002040000020E2
:104750003C0000202DE9F04104460F4615464FF07D
:104760000008A66B206C48B9206800282CD1A068EE
:1047700001F08AFE80460020A06025E07DB9394620
:10478000226C6068FBF7AFFD216C606808446060D4
:10479000D4E90101884217D32068606014E03946EB
:1047A000226CE068FBF79FFD216CE068411AE16034
:1047B0002168E068884203D2216CA068411AE16058
:1047C000022D01D106B1761E701CA0634046BDE8E3
:1047D000F08110B50446206B00F09AFF204600F0EF
:1047E00097FF10BD01464A6A22B10A6B1268C2F1F6
:1047F000050000E00020704730B54FF40043154835
:1048000000F007042CB1C01D20F00700114C041B60
:104810001B1B0246104C226000240F4D6C60D01808
:10482000083820F007000D4C206000240B4D2D6847
:104830006C600A4D2D682C601146441A4C60074C80
:1048400024680C60064D4C682C60064D4C682C604A
:1048500030BD0000D400002010000020180000200F
:10486000200000201C00002000BFFFF74FFF06487B
:1048700000680128F9D94FF0805004490860BFF35F
:104880004F8FBFF36F8FF0E7D480002004ED00E07E
:1048900010B5044654B10020A06020600021E16002
:1048A00000231A461946204601F014FB10BD2DE9DD
:1048B000F04106460D4617469846069C0DB9246001
:1048C00000E02760E66325640121204601F0B2FA8A
:1048D000BDE8F0812DE9FF5F80460E469146DDE997
:1048E0000E7A109CA9F10100216B01EB800B2BF0DB
:1048F000070B7EB1002507E0715D04F134004155DE
:10490000705D00B902E06D1C102DF5D300BF0021D1
:1049100043200155052F00D30427E7626764201D5B
:1049200000F0B7FE04F1180000F0B3FE2461C7F1F7
:104930000500A061646241465846039A00F070F990
:104940002060BAF1000F01D0CAF80040BDE8FF9F17
:1049500010B5002407E004EB84010F4A02EB81004C
:1049600000F08AFE641C052CF5D30C4800F084FE90
:104970000B4800F081FE0B4800F07EFE0A4800F074
:104980007BFE0A4800F078FE0448094908600448A4
:104990000849086010BD0000D48000203881002044
:1049A0004C810020608100207481002088810020DB
:1049B000340000203800002010B50146164800E001
:1049C000006803688B42FBD30246436813448B4262
:1049D00004D143684C682344436001460A464B684F
:1049E00013440468A34211D10C4C03682468A34209
:1049F00008D04B680468646823444B6003681B68F4
:104A00000B6005E0054B1B680B6001E003680B6061
:104A1000884200D0016010BD100000201800002066
:104A200070B5054600F052FEA86B08B9012400E0FD
:104A3000002400F05DFE204670BD70B5054600F014
:104A400045FEA86BE96B884201D1012400E00024F7
:104A500000F04EFE204670BD09480068006808B9A5
:104A6000012000E0002020B14FF0FF300549086030
:104A700005E003480068C0680068024908607047A4
:104A8000340000206000002000BFBF2080F31188A8
:104A9000BFF34F8FBFF36F8F00BF00BFFEE770B54E
:104AA000044600F013FE94F9455010E0606A08B91E
:104AB000012000E0002038B904F1240001F0B0FD2D
:104AC00018B100F07DFE00E003E0681E45B2002D45
:104AD000ECDC00BFFF2084F8450000F009FE00F088
:104AE000F5FD94F9445010E0206908B9012000E078
:104AF000002048B904F1100001F092FD08B100F067
:104B00005FFE681E45B200E001E0002DECDC00BF56
:104B1000FF2084F8440000F0EBFD70BD2DE9F04764
:104B200005464FF0000900F001FF3048006808B961
:104B3000FFF762FE75B105F00700C0F11008C8F17B
:104B4000FF30A84201D2012000E0002008B945440E
:104B500000E00025012000EBE570002841D0002D89
:104B60003FD02348006885423BD8224E3046046837
:104B700001E0264624686068A84202D22068002826
:104B8000F7D11A48006884422BD0306800F1080938
:104B9000206830606068401B102807D9671960687A
:104BA000401B786065603846FFF706FF1049606873
:104BB0000968081A0E490860084600680E49096825
:104BC000884203D20A4800680B490860606840F0D8
:104BD000004060600020206008480068401C0749D1
:104BE000086001F0A1FD4846BDE8F08718000020EC
:104BF0001C000020100000202000002024000020C5
:104C00000648006830B10549096801F14800896C1F
:104C1000491C016001480068704700003000002016
:104C2000001F4FF080730360001F21F00103036039
:104C3000001F054B036014380260001F6FF0020371
:104C40000360203870470000894A02082DE9F047C8
:104C50000446884616460027002500BF082C02DDC2
:104C6000681EBDE8F08700BF00BFA100491C0022FC
:104C700002EBC100FEF73CFD00F00F00012802D05E
:104C80006FF00400EDE700BF00BF16B96FF00D0034
:104C9000E7E700BFA100491C4FF4F05202EBC1004E
:104CA000FEF726FD4FF6FF7101EA8025B54200DAD6
:104CB0002E4638E02046FFF77DFB0546A100491C43
:104CC0004FF4407202EBC100FEF712FD0746172FAA
:104CD0001ED01C2F16D105B126E02046FFF7A0FB01
:104CE0008146A100491C4FF4F85202EBC100FEF7C7
:104CF000FFFCB9EB802F0BD12046FFF78DFA6FF048
:104D00000600AEE72046FFF787FA6FF00600A8E737
:104D10000120A04014490988084010B10DB90020B5
:104D20009FE705B100E0C5E700BFB54200DA2E46B7
:104D300032464146204600F031FEA100491C4FF4A6
:104D4000807202EBC1004021FEF752FD00BFA100BE
:104D5000491C4FF4807202EBC100FEF7C9FC002829
:104D6000F5D130467DE70000720000202DE9FC47B8
:104D700004468A4616461D46DDF82880002700BFF7
:104D8000082C02DD781EBDE8FC8700BFA100491C8D
:104D9000002202EBC100FEF7ABFC814600F00F00E1
:104DA000022804D0032803D0042803D101E000BF67
:104DB00000BF02E06FF00400E5E700BF00BF16B9D6
:104DC0006FF00D00DFE700BFA84830F81400E8B925
:104DD0001AE02046FFF7EEFA0746A100491C4FF4FF
:104DE000407202EBC100FEF783FC10B96FF00300C4
:104DF000C9E70120A0409E490988084010B10FB9B9
:104E00000020C0E707B100E0E3E700BF09F00700BA
:104E1000022804D003287CD004287BD158E0934892
:104E200030F81400E8BB08226946204600F0B6FDC1
:104E3000A100491C4FF4807202EBC1004021FEF733
:104E4000D7FC00BFA100491C4FF4807202EBC100E7
:104E5000FEF74EFC0028F5D19DF8000028709DF863
:104E6000010068709DF80200A8709DF80300E870CA
:104E70009DF80400A8F800009DF8050098F80010BF
:104E800000EB0120A8F800009DF80600774921F802
:104E900014009DF8070011F8141000EB012073496D
:104EA00000E004E021F814008020724908556F48A2
:104EB00030F81400B04201DD374602E06B4830F8AC
:104EC00014703E463A465146204600F067FDA1E088
:104ED000664830F81400B8BB02226946204600F04C
:104EE0005DFDA100491C4FF4807202EBC10040211E
:104EF000FEF77EFC00BFA100491C4FF4807202EB5C
:104F0000C100FEF7F5FB0028F5D19DF800005749D8
:104F100001E02DE076E021F814009DF8010011F881
:104F2000141000EB0120801E504921F8140008469F
:104F300030F8140040F2EA51884206DD2046FFF7BF
:104F40006BF96FF47A701EE702E08020494908553A
:104F5000464830F81400B04201DD374602E04348CD
:104F600030F814703A465146204600F017FD51E0E3
:104F70003E4830F81400A8BB06226946204600F0DF
:104F80000DFDA100491C4FF4807202EBC1004021CD
:104F9000FEF72EFC00BFA100491C4FF4807202EB0B
:104FA000C100FEF7A5FB0028F5D19DF80000287090
:104FB0009DF8010068709DF80200A8709DF803003C
:104FC000E8709DF80400294921F814009DF80500B7
:104FD00011F8141000EB0120244921F8140080205E
:104FE00024490855214830F81400B04201DD374605
:104FF00002E01E4830F814703A465146204600F050
:10500000CDFC07E03946204600F00AFD174820F89D
:10501000147000BF00BFA100491C4FF4807202EB66
:10502000C1004021FEF7E4FB00BFA100491C4FF482
:10503000807202EBC100FEF75BFB0028F5D10B4844
:1050400030F81400C01B094921F81400084630F854
:10505000140030B10748005D40F0010005490855D3
:1050600002E000200349085538468CE69C81002068
:10507000720000207600002000B131B9054A064BCD
:10508000DA60064B044A136102E0034AD060116102
:1050900070470000155B020880000020175B0208C3
:1050A00000B131B9054A064B5A61064B044A936177
:1050B00002E0034A50619161704700002D5B0208D5
:1050C00080000020195B020800BF094A128802F420
:1050D0000072002AF9D000B131B9064A044BDA61F6
:1050E000054B034A136202E0014AD0611162704726
:1050F00080000020855C0208A55C02082DE9F041D3
:105100000446884615460026002700BF082C02DD0D
:10511000701EBDE8F08100BF00BFA100491C002245
:1051200002EBC100FEF7E4FA00F00F00012802D004
:105130006FF00400EDE700BF00BF15B96FF00D0080
:10514000E7E700BFA100491C4FF4407202EBC10029
:10515000FEF7CEFA0646172E04D01C2E02D06FF0B2
:105160000600D6E70120A04042490988084040B324
:10517000A100491C4FF4007202EBC100FEF7B8FA1F
:1051800000F01F0606F0100080B1A100491C4FF48A
:10519000007202EBC1001021FEF72AFB0120A040A3
:1051A000344909888143334801800AE006F0080049
:1051B00028B12046FFF730F86FF00C00A9E7002077
:1051C000A7E7A100491C4FF4F85202EBC100FEF71B
:1051D0008FFA4FF6FF7101EA8027BD4200DD3D46A0
:1051E00023E02046FFF71CF90746A100491C4FF4B5
:1051F000407202EBC100FEF77BFA0646172E07D07D
:105200001C2E05D02046FFF707F86FF0060080E758
:105210000120A04018490988084018B1BD4201DDAD
:10522000002076E7BD4200DC00E0DAE700BF2A4656
:105230004146204600F027FCA100491C4FF4807233
:1052400002EBC1002021FEF7D3FA00BFA100491CE8
:105250004FF4807202EBC100FEF74AFA0028F5D144
:105260000120A040034909880843024908802846D4
:105270004FE7000074000020720000202DE9F05F6D
:1052800004468B4615461E46DDF828A00027B84682
:1052900000BF082C02DD781EBDE8F09F00BFA10012
:1052A000491C002202EBC100FEF722FA00F00F00B9
:1052B000022804D0032804D0042803D100E000BF52
:1052C00000BF02E06FF00400E6E700BF00BF15B9C1
:1052D0006FF00D00E0E700BF96F80090707869F37A
:1052E0001F208146B07869F31F208146F07869F36A
:1052F0001F208146B9F1000F0DD1A100491C0022E9
:1053000002EBC100FEF7F4F900F00400042802D01B
:105310006FF00B00C0E7BAF1000F0DD1A100491CDE
:10532000002202EBC100FEF7E3F900F004000428BC
:1053300002D06FF00A00AFE7A100491C4FF44072A1
:1053400002EBC100FEF7D4F90746422F06D0222F08
:1053500004D0322F02D06FF006009DE7A100491C57
:105360004FF4406202EBC10004223146FEF77AFAA4
:105370004FEA2A21A200521C4FF4805303EBC200D3
:10538000FEF736FA0AF0FF01A200521C4FF48053D8
:1053900003EBC20202F58070FEF72AFAA100491C55
:1053A0004FF4F85202EBC100FEF7A2F94FF6FF717D
:1053B00001EA8028454500DD45461CE02046FFF710
:1053C0002FF88046A100491C4FF4407202EBC10047
:1053D000FEF78EF910B96FF003005DE70120A040E1
:1053E00028490988084018B1454501DD002053E7E8
:1053F000454500DC00E0E1E700BF2A46594620466B
:1054000000F041FBA100491C4FF4807202EBC10087
:105410002021FEF7EDF900BFA100491C4FF4807276
:1054200002EBC100FEF764F90028F5D125E0A100E8
:10543000491C4FF4007202EBC100FEF759F900F06D
:105440001F0707F0100048B1A100491C4FF400727B
:1054500002EBC1001021FEF7CBF90FE007F00800C6
:1054600058B1A100491C4FF4007202EBC1000821A1
:10547000FEF7BEF96FF00C000EE7D8E700BF284634
:105480000AE7000072000020F8B504460E461746F1
:105490001D4600BF082C02DD4FF0FF30F8BD00BFF5
:1054A000012E06D0022E10D0032E10D0042E0FD1C4
:1054B0000CE0042269464FF47060FEF753F900983F
:1054C00010B96FF00200E9E705E000BF00BF02E09D
:1054D0006FF00400E2E700BF05F0040010B16FF0C8
:1054E0000500DBE705B3012E02D0022E1AD106E03B
:1054F00005F0210010B96FF00500CFE713E005F0CB
:10550000200028B105F0800010B96FF00500C5E754
:1055100005F0100028B105F0800010B96FF005000B
:10552000BCE700E000BF00BF2046FEF775FE05F0B7
:10553000F00242EA0601A200521C002303EBC20063
:10554000FEF756F97FB9304807880088401C2E497D
:105550000880084600884FF6F071884203D14FF466
:105560004040294908803912A200521C4FF4806340
:1055700003EBC200FEF73CF9F9B2A200521C4FF453
:10558000806303EBC20202F58070FEF731F9A100DF
:10559000491C4FF4807202EBC1000121FEF728F98B
:1055A00000BFA100491C4FF4807202EBC100FEF75E
:1055B0009FF80028F5D10120A040144909888143B3
:1055C0001248018005F00100A040104909880843F5
:1055D0000E4908800120A0400D49098881430C48EC
:1055E000018000200B4921F814000B49085500BF29
:1055F000A100491C4FF4407202EBC100FEF778F89D
:105600000028F5D060B249E7700000207200002049
:10561000740000209C8100207600002000B506491F
:105620000648FFF729FD06490648FFF739FD0649F8
:105630000648FFF749FD00BD175B0208155B02082D
:10564000195B02082D5B0208A55C0208855C020854
:1056500001460A69D1E901309860D1E90103586037
:105660005068884201D18868506000200861106845
:10567000401E10601068704700F1080141604FF053
:10568000FF31816000F10801C1600161002101600A
:10569000704700210161704710B502460B685C1C21
:1056A0000CB9106907E002F1080000E040684468A6
:1056B00024689C42FAD944684C604C68A1608860B8
:1056C00041600A611468641C146010BD00BFBF20F3
:1056D00080F31188BFF34F8FBFF36F8F00BF034874
:1056E0000068401C01490860704700002C00002041
:1056F00006480068401E054908600846006820B951
:10570000002080F3118800BF00BF70472C000020EC
:1057100070B506463546E6B1083D2C466068C00FB8
:10572000B8B12068A8B9606820F00040606000F05F
:10573000FDF8084960680968084406490860204681
:10574000FFF73AF904480068401C0349086000F07C
:10575000EBFF70BD1C0000202800002000204FF04F
:10576000E0210861886102484861072008617047AC
:105770003F90020070B50446002544B100F0D6F811
:1057800000212046FEF7F0FE00F0CEFF05463DB9B1
:105790004FF0805003490860BFF34F8FBFF36F8F06
:1057A00070BD000004ED00E0034909680160034991
:1057B0000968416070470000580000204400002044
:1057C00001200149086070475400002070B505466B
:1057D0000C460548016818312846FFF75DFF012196
:1057E0002046FEF7C1FE70BD300000202DE9F047D5
:1057F00006460F4634464FF00109002E5AD0606C21
:10580000B84201D23D4600E0656CE06AA84251D042
:10581000A06C01284ED1D4F82C80E562A06900F07C
:10582000004010B9C5F10500A06108EB8801224ACB
:1058300002EB81016069884201D1012000E0002073
:10584000C0B3201DFFF704FF40B994F82C100120CD
:1058500088401A49096881431848016094F82C105F
:105860000120884015490968084314490860E16A25
:1058700001EB8101104A02EB81014868A060826857
:10588000E260211D826851608160E16A01EB810163
:10589000094A02EB81026261E16A01EB8101064A79
:1058A00052F82110491CE26A02EB8202024B43F8D3
:1058B000221000BFBDE8F087D480002048000020FF
:1058C0001CB5124800210B468022CDE9001010A122
:1058D000114800F087FC0446012C14D100BFBF2002
:1058E00080F31188BFF34F8FBFF36F8F00BF4FF06E
:1058F000FF300A4908600120094908600020094971
:10590000086000F021FA084800681CBD640000200F
:1059100049444C450000000069480208600000202E
:105920004C0000204400002068000020024800686D
:10593000401C0149086070476C0000201248006854
:1059400018B10120114908601DE000200F490860CE
:105950000F480068B0FA80F0C0F11F0101EB81022E
:105960000C4B03EB820042685268426000F108026F
:105970004368934202D14268526842604268D268EA
:10598000054B1A6000BF70476C00002054000020D7
:1059900048000020D4800020300000202DE9F0478E
:1059A00004460F4616460025A8460EB9BDE8F08706
:1059B000A100491C4FF4205202EBC10101F5807097
:1059C000FDF796FE8146A100491C4FF4205202EBE0
:1059D000C100FDF78DFE09EB002085B22902A00071
:1059E000C01C01EBC008324639464046FDF7BAFEFE
:1059F000A81985B22912A200521C4FF4205303EBC0
:105A0000C200FDF7F5FEE9B2A200521C4FF420538C
:105A100003EBC20202F58070FDF7EAFE00BFC5E7A6
:105A20002DE9F04104460E460025A100491C4FF423
:105A3000205202EBC10101F58070FDF759FE0746C7
:105A4000A100491C4FF4205202EBC100FDF750FEAB
:105A500007EB002085B2A81985B22912A200521CBA
:105A60004FF4205303EBC200FDF7C2FEE9B2A200DF
:105A7000521C4FF4205303EBC20202F58070FDF775
:105A8000B7FEBDE8F0812DE9F04704460F46164603
:105A90000025A8460EB9BDE8F087A100491C4FF4C7
:105AA000105202EBC10101F58070FDF721FE814625
:105AB000A100491C4FF4105202EBC100FDF718FE83
:105AC00009EB002085B22902A000801C01EBC00870
:105AD000324639464046FDF7C5FEA81985B229125F
